{
  "_format": "hh-sol-artifact-1",
  "contractName": "ModularCompliance",
  "sourceName": "contracts/trex/compliance/modular/ModularCompliance.sol",
  "abi": [
    {
      "anonymous": false,
      "inputs": [
        {
          "indexed": false,
          "internalType": "uint8",
          "name": "version",
          "type": "uint8"
        }
      ],
      "name": "Initialized",
      "type": "event"
    },
    {
      "anonymous": false,
      "inputs": [
        {
          "indexed": true,
          "internalType": "address",
          "name": "_module",
          "type": "address"
        }
      ],
      "name": "ModuleAdded",
      "type": "event"
    },
    {
      "anonymous": false,
      "inputs": [
        {
          "indexed": true,
          "internalType": "address",
          "name": "target",
          "type": "address"
        },
        {
          "indexed": false,
          "internalType": "bytes4",
          "name": "selector",
          "type": "bytes4"
        }
      ],
      "name": "ModuleInteraction",
      "type": "event"
    },
    {
      "anonymous": false,
      "inputs": [
        {
          "indexed": true,
          "internalType": "address",
          "name": "_module",
          "type": "address"
        }
      ],
      "name": "ModuleRemoved",
      "type": "event"
    },
    {
      "anonymous": false,
      "inputs": [
        {
          "indexed": true,
          "internalType": "address",
          "name": "previousOwner",
          "type": "address"
        },
        {
          "indexed": true,
          "internalType": "address",
          "name": "newOwner",
          "type": "address"
        }
      ],
      "name": "OwnershipTransferred",
      "type": "event"
    },
    {
      "anonymous": false,
      "inputs": [
        {
          "indexed": false,
          "internalType": "address",
          "name": "_token",
          "type": "address"
        }
      ],
      "name": "TokenBound",
      "type": "event"
    },
    {
      "anonymous": false,
      "inputs": [
        {
          "indexed": false,
          "internalType": "address",
          "name": "_token",
          "type": "address"
        }
      ],
      "name": "TokenUnbound",
      "type": "event"
    },
    {
      "inputs": [
        {
          "internalType": "address",
          "name": "_module",
          "type": "address"
        }
      ],
      "name": "addModule",
      "outputs": [],
      "stateMutability": "nonpayable",
      "type": "function"
    },
    {
      "inputs": [
        {
          "internalType": "address",
          "name": "_token",
          "type": "address"
        }
      ],
      "name": "bindToken",
      "outputs": [],
      "stateMutability": "nonpayable",
      "type": "function"
    },
    {
      "inputs": [
        {
          "internalType": "bytes",
          "name": "callData",
          "type": "bytes"
        },
        {
          "internalType": "address",
          "name": "_module",
          "type": "address"
        }
      ],
      "name": "callModuleFunction",
      "outputs": [],
      "stateMutability": "nonpayable",
      "type": "function"
    },
    {
      "inputs": [
        {
          "internalType": "address",
          "name": "_from",
          "type": "address"
        },
        {
          "internalType": "address",
          "name": "_to",
          "type": "address"
        },
        {
          "internalType": "uint256",
          "name": "_value",
          "type": "uint256"
        }
      ],
      "name": "canTransfer",
      "outputs": [
        {
          "internalType": "bool",
          "name": "",
          "type": "bool"
        }
      ],
      "stateMutability": "view",
      "type": "function"
    },
    {
      "inputs": [
        {
          "internalType": "address",
          "name": "_to",
          "type": "address"
        },
        {
          "internalType": "uint256",
          "name": "_value",
          "type": "uint256"
        }
      ],
      "name": "created",
      "outputs": [],
      "stateMutability": "nonpayable",
      "type": "function"
    },
    {
      "inputs": [
        {
          "internalType": "address",
          "name": "_from",
          "type": "address"
        },
        {
          "internalType": "uint256",
          "name": "_value",
          "type": "uint256"
        }
      ],
      "name": "destroyed",
      "outputs": [],
      "stateMutability": "nonpayable",
      "type": "function"
    },
    {
      "inputs": [],
      "name": "getModules",
      "outputs": [
        {
          "internalType": "address[]",
          "name": "",
          "type": "address[]"
        }
      ],
      "stateMutability": "view",
      "type": "function"
    },
    {
      "inputs": [],
      "name": "getTokenBound",
      "outputs": [
        {
          "internalType": "address",
          "name": "",
          "type": "address"
        }
      ],
      "stateMutability": "view",
      "type": "function"
    },
    {
      "inputs": [],
      "name": "init",
      "outputs": [],
      "stateMutability": "nonpayable",
      "type": "function"
    },
    {
      "inputs": [
        {
          "internalType": "address",
          "name": "_module",
          "type": "address"
        }
      ],
      "name": "isModuleBound",
      "outputs": [
        {
          "internalType": "bool",
          "name": "",
          "type": "bool"
        }
      ],
      "stateMutability": "view",
      "type": "function"
    },
    {
      "inputs": [],
      "name": "owner",
      "outputs": [
        {
          "internalType": "address",
          "name": "",
          "type": "address"
        }
      ],
      "stateMutability": "view",
      "type": "function"
    },
    {
      "inputs": [
        {
          "internalType": "address",
          "name": "_module",
          "type": "address"
        }
      ],
      "name": "removeModule",
      "outputs": [],
      "stateMutability": "nonpayable",
      "type": "function"
    },
    {
      "inputs": [],
      "name": "renounceOwnership",
      "outputs": [],
      "stateMutability": "nonpayable",
      "type": "function"
    },
    {
      "inputs": [
        {
          "internalType": "address",
          "name": "newOwner",
          "type": "address"
        }
      ],
      "name": "transferOwnership",
      "outputs": [],
      "stateMutability": "nonpayable",
      "type": "function"
    },
    {
      "inputs": [
        {
          "internalType": "address",
          "name": "_from",
          "type": "address"
        },
        {
          "internalType": "address",
          "name": "_to",
          "type": "address"
        },
        {
          "internalType": "uint256",
          "name": "_value",
          "type": "uint256"
        }
      ],
      "name": "transferred",
      "outputs": [],
      "stateMutability": "nonpayable",
      "type": "function"
    },
    {
      "inputs": [
        {
          "internalType": "address",
          "name": "_token",
          "type": "address"
        }
      ],
      "name": "unbindToken",
      "outputs": [],
      "stateMutability": "nonpayable",
      "type": "function"
    }
  ],
  "bytecode": "0x608060405234801561001057600080fd5b506114b6806100206000396000f3fe608060405234801561001057600080fd5b50600436106101005760003560e01c80638da5cb5b11610097578063e1c7392a11610066578063e1c7392a14610220578063e46638e614610228578063efb22d331461023b578063f2fde38b1461024e57600080fd5b80638da5cb5b146101ab578063a0632461146101bc578063a446d49f146101cf578063b2494df31461020b57600080fd5b80636a3edf28116100d35780636a3edf2814610153578063715018a61461017d5780638baf29b4146101855780638d2ea7721461019857600080fd5b80631ed86f19146101055780633ff5aa021461011a57806340db3b501461012d5780635f8dead314610140575b600080fd5b6101186101133660046111b5565b610261565b005b6101186101283660046111b5565b610433565b61011861013b3660046111b5565b61053e565b61011861014e3660046111d0565b610686565b6065546001600160a01b03165b6040516001600160a01b0390911681526020015b60405180910390f35b6101186107cf565b6101186101933660046111fa565b6107e3565b6101186101a63660046111d0565b610957565b6033546001600160a01b0316610160565b6101186101ca3660046111b5565b610a9a565b6101fb6101dd3660046111b5565b6001600160a01b031660009081526067602052604090205460ff1690565b6040519015158152602001610174565b610213610cd2565b6040516101749190611236565b610118610d34565b6101fb6102363660046111fa565b610e41565b610118610249366004611283565b610f1e565b61011861025c3660046111b5565b611004565b61026961107a565b6001600160a01b0381166102985760405162461bcd60e51b815260040161028f90611304565b60405180910390fd5b6001600160a01b03811660009081526067602052604090205460ff16156102f85760405162461bcd60e51b81526020600482015260146024820152731b5bd91d5b1948185b1c9958591e48189bdd5b9960621b604482015260640161028f565b6066546018101561034b5760405162461bcd60e51b815260206004820152601f60248201527f63616e6e6f7420616464206d6f7265207468616e203235206d6f64756c657300604482015260640161028f565b6040516312a4c95160e21b81523060048201526001600160a01b03821690634a93254490602401600060405180830381600087803b15801561038c57600080fd5b505af11580156103a0573d6000803e3d6000fd5b50506066805460018082019092557f46501879b8ca8525e8c2fd519e2fbfcfa2ebea26501294aa02cbfcfb12e943540180546001600160a01b0319166001600160a01b038616908117909155600081815260676020526040808220805460ff191690941790935591519093507fead6a006345da1073a106d5f32372d2d2204f46cb0b4bca8f5ebafcbbed12b8a9250a250565b336104466033546001600160a01b031690565b6001600160a01b0316148061047757506065546001600160a01b03161580156104775750336001600160a01b038216145b6104c35760405162461bcd60e51b815260206004820152601c60248201527f6f6e6c79206f776e6572206f7220746f6b656e2063616e2063616c6c00000000604482015260640161028f565b6001600160a01b0381166104e95760405162461bcd60e51b815260040161028f90611304565b606580546001600160a01b0319166001600160a01b0383169081179091556040519081527f2de35142b19ed5a07796cf30791959c592018f70b1d2d7c460eef8ffe713692b906020015b60405180910390a150565b336105516033546001600160a01b031690565b6001600160a01b0316148061056e5750336001600160a01b038216145b6105ba5760405162461bcd60e51b815260206004820152601c60248201527f6f6e6c79206f776e6572206f7220746f6b656e2063616e2063616c6c00000000604482015260640161028f565b6065546001600160a01b038281169116146106175760405162461bcd60e51b815260206004820152601760248201527f5468697320746f6b656e206973206e6f7420626f756e64000000000000000000604482015260640161028f565b6001600160a01b03811661063d5760405162461bcd60e51b815260040161028f90611304565b606580546001600160a01b03191690556040516001600160a01b03821681527f28a4ca7134a3b3f9aff286e79ad3daadb4a06d1b43d037a3a98bdc074edd9b7a90602001610533565b6065546001600160a01b031633146106b05760405162461bcd60e51b815260040161028f9061133b565b6001600160a01b0382166106d65760405162461bcd60e51b815260040161028f90611304565b600081116107265760405162461bcd60e51b815260206004820181905260248201527f696e76616c696420617267756d656e74202d206e6f2076616c7565206d696e74604482015260640161028f565b60665460005b818110156107c95760668181548110610747576107476113a5565b60009182526020909120015460405163f104a8c960e01b81526001600160a01b038681166004830152602482018690529091169063f104a8c990604401600060405180830381600087803b15801561079e57600080fd5b505af11580156107b2573d6000803e3d6000fd5b5050505080806107c1906113d1565b91505061072c565b50505050565b6107d761107a565b6107e160006110d4565b565b6065546001600160a01b0316331461080d5760405162461bcd60e51b815260040161028f9061133b565b6001600160a01b0383161580159061082d57506001600160a01b03821615155b6108495760405162461bcd60e51b815260040161028f90611304565b600081116108a55760405162461bcd60e51b8152602060048201526024808201527f696e76616c696420617267756d656e74202d206e6f2076616c7565207472616e60448201526339b332b960e11b606482015260840161028f565b60665460005b8181101561095057606681815481106108c6576108c66113a5565b600091825260209091200154604051630b2df87b60e21b81526001600160a01b03878116600483015286811660248301526044820186905290911690632cb7e1ec90606401600060405180830381600087803b15801561092557600080fd5b505af1158015610939573d6000803e3d6000fd5b505050508080610948906113d1565b9150506108ab565b5050505050565b6065546001600160a01b031633146109815760405162461bcd60e51b815260040161028f9061133b565b6001600160a01b0382166109a75760405162461bcd60e51b815260040161028f90611304565b600081116109f75760405162461bcd60e51b815260206004820181905260248201527f696e76616c696420617267756d656e74202d206e6f2076616c7565206275726e604482015260640161028f565b60665460005b818110156107c95760668181548110610a1857610a186113a5565b600091825260209091200154604051631b9248d160e11b81526001600160a01b038681166004830152602482018690529091169063372491a290604401600060405180830381600087803b158015610a6f57600080fd5b505af1158015610a83573d6000803e3d6000fd5b505050508080610a92906113d1565b9150506109fd565b610aa261107a565b6001600160a01b038116610ac85760405162461bcd60e51b815260040161028f90611304565b6001600160a01b03811660009081526067602052604090205460ff16610b235760405162461bcd60e51b815260206004820152601060248201526f1b5bd91d5b19481b9bdd08189bdd5b9960821b604482015260640161028f565b60665460005b81811015610ccd57826001600160a01b031660668281548110610b4e57610b4e6113a5565b6000918252602090912001546001600160a01b031603610cbb57604051630694a5fb60e01b81523060048201526001600160a01b03841690630694a5fb90602401600060405180830381600087803b158015610ba957600080fd5b505af1158015610bbd573d6000803e3d6000fd5b505050506066600183610bd091906113ea565b81548110610be057610be06113a5565b600091825260209091200154606680546001600160a01b039092169183908110610c0c57610c0c6113a5565b9060005260206000200160006101000a8154816001600160a01b0302191690836001600160a01b031602179055506066805480610c4b57610c4b6113fd565b60008281526020808220830160001990810180546001600160a01b03191690559092019092556001600160a01b03851680835260679091526040808320805460ff191690555190917f0a1ee69f55c33d8467c69ca59ce2007a737a88603d75392972520bf67cb513b891a2505050565b80610cc5816113d1565b915050610b29565b505050565b60606066805480602002602001604051908101604052809291908181526020018280548015610d2a57602002820191906000526020600020905b81546001600160a01b03168152600190910190602001808311610d0c575b5050505050905090565b600054610100900460ff1615808015610d545750600054600160ff909116105b80610d6e5750303b158015610d6e575060005460ff166001145b610dd15760405162461bcd60e51b815260206004820152602e60248201527f496e697469616c697a61626c653a20636f6e747261637420697320616c72656160448201526d191e481a5b9a5d1a585b1a5e995960921b606482015260840161028f565b6000805460ff191660011790558015610df4576000805461ff0019166101001790555b610dfc611126565b8015610e3e576000805461ff0019169055604051600181527f7f26b83ff96e1f2b6a682f133852f6798a09c465da95921460cefb384740249890602001610533565b50565b606654600090815b81811015610f105760668181548110610e6457610e646113a5565b600091825260209091200154604051624edf3960e21b81526001600160a01b0388811660048301528781166024830152604482018790523060648301529091169063013b7ce490608401602060405180830381865afa158015610ecb573d6000803e3d6000fd5b505050506040513d601f19601f82011682018060405250810190610eef9190611413565b610efe57600092505050610f17565b80610f08816113d1565b915050610e49565b5060019150505b9392505050565b610f2661107a565b6001600160a01b03811660009081526067602052604090205460ff16610f8e5760405162461bcd60e51b815260206004820152601960248201527f63616c6c206f6e6c79206f6e20626f756e64206d6f64756c6500000000000000604482015260640161028f565b6040518284823760008084836000865af1610fad573d6000803e3d6000fd5b50806001600160a01b03167f20d79de70adcc6e9353d8a9a5646b46dc352710d0a310b1ad1f67faeca7ef891610fe38585611155565b6040516001600160e01b0319909116815260200160405180910390a2505050565b61100c61107a565b6001600160a01b0381166110715760405162461bcd60e51b815260206004820152602660248201527f4f776e61626c653a206e6577206f776e657220697320746865207a65726f206160448201526564647265737360d01b606482015260840161028f565b610e3e816110d4565b6033546001600160a01b031633146107e15760405162461bcd60e51b815260206004820181905260248201527f4f776e61626c653a2063616c6c6572206973206e6f7420746865206f776e6572604482015260640161028f565b603380546001600160a01b038381166001600160a01b0319831681179093556040519116919082907f8be0079c531659141344cd1fd0a4f28419497f9722a3daafe3b4186f6b6457e090600090a35050565b600054610100900460ff1661114d5760405162461bcd60e51b815260040161028f90611435565b6107e1611169565b600060048210611163575081355b92915050565b600054610100900460ff166111905760405162461bcd60e51b815260040161028f90611435565b6107e1336110d4565b80356001600160a01b03811681146111b057600080fd5b919050565b6000602082840312156111c757600080fd5b610f1782611199565b600080604083850312156111e357600080fd5b6111ec83611199565b946020939093013593505050565b60008060006060848603121561120f57600080fd5b61121884611199565b925061122660208501611199565b9150604084013590509250925092565b6020808252825182820181905260009190848201906040850190845b818110156112775783516001600160a01b031683529284019291840191600101611252565b50909695505050505050565b60008060006040848603121561129857600080fd5b833567ffffffffffffffff808211156112b057600080fd5b818601915086601f8301126112c457600080fd5b8135818111156112d357600080fd5b8760208285010111156112e557600080fd5b6020928301955093506112fb9186019050611199565b90509250925092565b6020808252601f908201527f696e76616c696420617267756d656e74202d207a65726f206164647265737300604082015260600190565b60208082526044908201527f6572726f72203a20746869732061646472657373206973206e6f74206120746f60408201527f6b656e20626f756e6420746f2074686520636f6d706c69616e636520636f6e746060820152631c9858dd60e21b608082015260a00190565b634e487b7160e01b600052603260045260246000fd5b634e487b7160e01b600052601160045260246000fd5b6000600182016113e3576113e36113bb565b5060010190565b81810381811115611163576111636113bb565b634e487b7160e01b600052603160045260246000fd5b60006020828403121561142557600080fd5b81518015158114610f1757600080fd5b6020808252602b908201527f496e697469616c697a61626c653a20636f6e7472616374206973206e6f74206960408201526a6e697469616c697a696e6760a81b60608201526080019056fea26469706673582212203839145f0e08aed34aed19d556bf725d84144af16fe4889b0f5f0df6bf9ed47764736f6c63430008130033",
  "linkReferences": {},
  "deployedLinkReferences": {}
}