{
  "_format": "hh-sol-artifact-1",
  "contractName": "Token",
  "sourceName": "contracts/trex/token/Token.sol",
  "abi": [
    {
      "inputs": [
        {
          "internalType": "address",
          "name": "_identityRegistry",
          "type": "address"
        },
        {
          "internalType": "address",
          "name": "_compliance",
          "type": "address"
        },
        {
          "internalType": "string",
          "name": "_name",
          "type": "string"
        },
        {
          "internalType": "string",
          "name": "_symbol",
          "type": "string"
        },
        {
          "internalType": "uint8",
          "name": "_decimals",
          "type": "uint8"
        },
        {
          "internalType": "address",
          "name": "_onchainID",
          "type": "address"
        }
      ],
      "stateMutability": "nonpayable",
      "type": "constructor"
    },
    {
      "anonymous": false,
      "inputs": [
        {
          "indexed": true,
          "internalType": "address",
          "name": "_userAddress",
          "type": "address"
        },
        {
          "indexed": true,
          "internalType": "bool",
          "name": "_isFrozen",
          "type": "bool"
        },
        {
          "indexed": true,
          "internalType": "address",
          "name": "_owner",
          "type": "address"
        }
      ],
      "name": "AddressFrozen",
      "type": "event"
    },
    {
      "anonymous": false,
      "inputs": [
        {
          "indexed": true,
          "internalType": "address",
          "name": "_agent",
          "type": "address"
        }
      ],
      "name": "AgentAdded",
      "type": "event"
    },
    {
      "anonymous": false,
      "inputs": [
        {
          "indexed": true,
          "internalType": "address",
          "name": "_agent",
          "type": "address"
        }
      ],
      "name": "AgentRemoved",
      "type": "event"
    },
    {
      "anonymous": false,
      "inputs": [
        {
          "indexed": true,
          "internalType": "address",
          "name": "owner",
          "type": "address"
        },
        {
          "indexed": true,
          "internalType": "address",
          "name": "spender",
          "type": "address"
        },
        {
          "indexed": false,
          "internalType": "uint256",
          "name": "value",
          "type": "uint256"
        }
      ],
      "name": "Approval",
      "type": "event"
    },
    {
      "anonymous": false,
      "inputs": [
        {
          "indexed": true,
          "internalType": "address",
          "name": "_compliance",
          "type": "address"
        }
      ],
      "name": "ComplianceAdded",
      "type": "event"
    },
    {
      "anonymous": false,
      "inputs": [
        {
          "indexed": true,
          "internalType": "address",
          "name": "_identityRegistry",
          "type": "address"
        }
      ],
      "name": "IdentityRegistryAdded",
      "type": "event"
    },
    {
      "anonymous": false,
      "inputs": [
        {
          "indexed": true,
          "internalType": "address",
          "name": "previousOwner",
          "type": "address"
        },
        {
          "indexed": true,
          "internalType": "address",
          "name": "newOwner",
          "type": "address"
        }
      ],
      "name": "OwnershipTransferred",
      "type": "event"
    },
    {
      "anonymous": false,
      "inputs": [
        {
          "indexed": false,
          "internalType": "address",
          "name": "account",
          "type": "address"
        }
      ],
      "name": "Paused",
      "type": "event"
    },
    {
      "anonymous": false,
      "inputs": [
        {
          "indexed": true,
          "internalType": "address",
          "name": "_lostWallet",
          "type": "address"
        },
        {
          "indexed": true,
          "internalType": "address",
          "name": "_newWallet",
          "type": "address"
        },
        {
          "indexed": true,
          "internalType": "address",
          "name": "_investorOnchainID",
          "type": "address"
        }
      ],
      "name": "RecoverySuccess",
      "type": "event"
    },
    {
      "anonymous": false,
      "inputs": [
        {
          "indexed": true,
          "internalType": "address",
          "name": "_userAddress",
          "type": "address"
        },
        {
          "indexed": false,
          "internalType": "uint256",
          "name": "_amount",
          "type": "uint256"
        }
      ],
      "name": "TokensFrozen",
      "type": "event"
    },
    {
      "anonymous": false,
      "inputs": [
        {
          "indexed": true,
          "internalType": "address",
          "name": "_userAddress",
          "type": "address"
        },
        {
          "indexed": false,
          "internalType": "uint256",
          "name": "_amount",
          "type": "uint256"
        }
      ],
      "name": "TokensUnfrozen",
      "type": "event"
    },
    {
      "anonymous": false,
      "inputs": [
        {
          "indexed": true,
          "internalType": "address",
          "name": "from",
          "type": "address"
        },
        {
          "indexed": true,
          "internalType": "address",
          "name": "to",
          "type": "address"
        },
        {
          "indexed": false,
          "internalType": "uint256",
          "name": "value",
          "type": "uint256"
        }
      ],
      "name": "Transfer",
      "type": "event"
    },
    {
      "anonymous": false,
      "inputs": [
        {
          "indexed": false,
          "internalType": "address",
          "name": "account",
          "type": "address"
        }
      ],
      "name": "Unpaused",
      "type": "event"
    },
    {
      "anonymous": false,
      "inputs": [
        {
          "indexed": true,
          "internalType": "string",
          "name": "_newName",
          "type": "string"
        },
        {
          "indexed": true,
          "internalType": "string",
          "name": "_newSymbol",
          "type": "string"
        },
        {
          "indexed": false,
          "internalType": "uint8",
          "name": "_newDecimals",
          "type": "uint8"
        },
        {
          "indexed": false,
          "internalType": "string",
          "name": "_newVersion",
          "type": "string"
        },
        {
          "indexed": true,
          "internalType": "address",
          "name": "_newOnchainID",
          "type": "address"
        }
      ],
      "name": "UpdatedTokenInformation",
      "type": "event"
    },
    {
      "inputs": [
        {
          "internalType": "address",
          "name": "_agent",
          "type": "address"
        }
      ],
      "name": "addAgent",
      "outputs": [],
      "stateMutability": "nonpayable",
      "type": "function"
    },
    {
      "inputs": [
        {
          "internalType": "address",
          "name": "owner",
          "type": "address"
        },
        {
          "internalType": "address",
          "name": "spender",
          "type": "address"
        }
      ],
      "name": "allowance",
      "outputs": [
        {
          "internalType": "uint256",
          "name": "",
          "type": "uint256"
        }
      ],
      "stateMutability": "view",
      "type": "function"
    },
    {
      "inputs": [
        {
          "internalType": "address",
          "name": "spender",
          "type": "address"
        },
        {
          "internalType": "uint256",
          "name": "amount",
          "type": "uint256"
        }
      ],
      "name": "approve",
      "outputs": [
        {
          "internalType": "bool",
          "name": "",
          "type": "bool"
        }
      ],
      "stateMutability": "nonpayable",
      "type": "function"
    },
    {
      "inputs": [
        {
          "internalType": "address",
          "name": "account",
          "type": "address"
        }
      ],
      "name": "balanceOf",
      "outputs": [
        {
          "internalType": "uint256",
          "name": "",
          "type": "uint256"
        }
      ],
      "stateMutability": "view",
      "type": "function"
    },
    {
      "inputs": [
        {
          "internalType": "address",
          "name": "_userAddress",
          "type": "address"
        },
        {
          "internalType": "uint256",
          "name": "_amount",
          "type": "uint256"
        }
      ],
      "name": "burn",
      "outputs": [],
      "stateMutability": "nonpayable",
      "type": "function"
    },
    {
      "inputs": [],
      "name": "compliance",
      "outputs": [
        {
          "internalType": "contract IModularCompliance",
          "name": "",
          "type": "address"
        }
      ],
      "stateMutability": "view",
      "type": "function"
    },
    {
      "inputs": [],
      "name": "decimals",
      "outputs": [
        {
          "internalType": "uint8",
          "name": "",
          "type": "uint8"
        }
      ],
      "stateMutability": "view",
      "type": "function"
    },
    {
      "inputs": [
        {
          "internalType": "address",
          "name": "spender",
          "type": "address"
        },
        {
          "internalType": "uint256",
          "name": "subtractedValue",
          "type": "uint256"
        }
      ],
      "name": "decreaseAllowance",
      "outputs": [
        {
          "internalType": "bool",
          "name": "",
          "type": "bool"
        }
      ],
      "stateMutability": "nonpayable",
      "type": "function"
    },
    {
      "inputs": [
        {
          "internalType": "address",
          "name": "_from",
          "type": "address"
        },
        {
          "internalType": "address",
          "name": "_to",
          "type": "address"
        },
        {
          "internalType": "uint256",
          "name": "_amount",
          "type": "uint256"
        }
      ],
      "name": "forcedTransfer",
      "outputs": [
        {
          "internalType": "bool",
          "name": "",
          "type": "bool"
        }
      ],
      "stateMutability": "nonpayable",
      "type": "function"
    },
    {
      "inputs": [
        {
          "internalType": "address",
          "name": "_userAddress",
          "type": "address"
        },
        {
          "internalType": "uint256",
          "name": "_amount",
          "type": "uint256"
        }
      ],
      "name": "freezePartialTokens",
      "outputs": [],
      "stateMutability": "nonpayable",
      "type": "function"
    },
    {
      "inputs": [
        {
          "internalType": "address",
          "name": "_userAddress",
          "type": "address"
        }
      ],
      "name": "getFrozenTokens",
      "outputs": [
        {
          "internalType": "uint256",
          "name": "",
          "type": "uint256"
        }
      ],
      "stateMutability": "view",
      "type": "function"
    },
    {
      "inputs": [],
      "name": "identityRegistry",
      "outputs": [
        {
          "internalType": "contract IIdentityRegistry",
          "name": "",
          "type": "address"
        }
      ],
      "stateMutability": "view",
      "type": "function"
    },
    {
      "inputs": [
        {
          "internalType": "address",
          "name": "spender",
          "type": "address"
        },
        {
          "internalType": "uint256",
          "name": "addedValue",
          "type": "uint256"
        }
      ],
      "name": "increaseAllowance",
      "outputs": [
        {
          "internalType": "bool",
          "name": "",
          "type": "bool"
        }
      ],
      "stateMutability": "nonpayable",
      "type": "function"
    },
    {
      "inputs": [
        {
          "internalType": "address",
          "name": "_agent",
          "type": "address"
        }
      ],
      "name": "isAgent",
      "outputs": [
        {
          "internalType": "bool",
          "name": "",
          "type": "bool"
        }
      ],
      "stateMutability": "view",
      "type": "function"
    },
    {
      "inputs": [
        {
          "internalType": "address",
          "name": "_userAddress",
          "type": "address"
        }
      ],
      "name": "isFrozen",
      "outputs": [
        {
          "internalType": "bool",
          "name": "",
          "type": "bool"
        }
      ],
      "stateMutability": "view",
      "type": "function"
    },
    {
      "inputs": [
        {
          "internalType": "address",
          "name": "_to",
          "type": "address"
        },
        {
          "internalType": "uint256",
          "name": "_amount",
          "type": "uint256"
        }
      ],
      "name": "mint",
      "outputs": [],
      "stateMutability": "nonpayable",
      "type": "function"
    },
    {
      "inputs": [],
      "name": "name",
      "outputs": [
        {
          "internalType": "string",
          "name": "",
          "type": "string"
        }
      ],
      "stateMutability": "view",
      "type": "function"
    },
    {
      "inputs": [],
      "name": "onchainID",
      "outputs": [
        {
          "internalType": "address",
          "name": "",
          "type": "address"
        }
      ],
      "stateMutability": "view",
      "type": "function"
    },
    {
      "inputs": [],
      "name": "owner",
      "outputs": [
        {
          "internalType": "address",
          "name": "",
          "type": "address"
        }
      ],
      "stateMutability": "view",
      "type": "function"
    },
    {
      "inputs": [],
      "name": "paused",
      "outputs": [
        {
          "internalType": "bool",
          "name": "",
          "type": "bool"
        }
      ],
      "stateMutability": "view",
      "type": "function"
    },
    {
      "inputs": [
        {
          "internalType": "address",
          "name": "_lostWallet",
          "type": "address"
        },
        {
          "internalType": "address",
          "name": "_newWallet",
          "type": "address"
        },
        {
          "internalType": "address",
          "name": "_investorOnchainID",
          "type": "address"
        }
      ],
      "name": "recoveryAddress",
      "outputs": [
        {
          "internalType": "bool",
          "name": "",
          "type": "bool"
        }
      ],
      "stateMutability": "nonpayable",
      "type": "function"
    },
    {
      "inputs": [
        {
          "internalType": "address",
          "name": "_agent",
          "type": "address"
        }
      ],
      "name": "removeAgent",
      "outputs": [],
      "stateMutability": "nonpayable",
      "type": "function"
    },
    {
      "inputs": [],
      "name": "renounceOwnership",
      "outputs": [],
      "stateMutability": "nonpayable",
      "type": "function"
    },
    {
      "inputs": [
        {
          "internalType": "address",
          "name": "_userAddress",
          "type": "address"
        },
        {
          "internalType": "bool",
          "name": "_freeze",
          "type": "bool"
        }
      ],
      "name": "setAddressFrozen",
      "outputs": [],
      "stateMutability": "nonpayable",
      "type": "function"
    },
    {
      "inputs": [
        {
          "internalType": "address",
          "name": "_compliance",
          "type": "address"
        }
      ],
      "name": "setCompliance",
      "outputs": [],
      "stateMutability": "nonpayable",
      "type": "function"
    },
    {
      "inputs": [
        {
          "internalType": "address",
          "name": "_identityRegistry",
          "type": "address"
        }
      ],
      "name": "setIdentityRegistry",
      "outputs": [],
      "stateMutability": "nonpayable",
      "type": "function"
    },
    {
      "inputs": [
        {
          "internalType": "address",
          "name": "_onchainID",
          "type": "address"
        }
      ],
      "name": "setOnchainID",
      "outputs": [],
      "stateMutability": "nonpayable",
      "type": "function"
    },
    {
      "inputs": [],
      "name": "symbol",
      "outputs": [
        {
          "internalType": "string",
          "name": "",
          "type": "string"
        }
      ],
      "stateMutability": "view",
      "type": "function"
    },
    {
      "inputs": [],
      "name": "totalSupply",
      "outputs": [
        {
          "internalType": "uint256",
          "name": "",
          "type": "uint256"
        }
      ],
      "stateMutability": "view",
      "type": "function"
    },
    {
      "inputs": [
        {
          "internalType": "address",
          "name": "_to",
          "type": "address"
        },
        {
          "internalType": "uint256",
          "name": "_amount",
          "type": "uint256"
        }
      ],
      "name": "transfer",
      "outputs": [
        {
          "internalType": "bool",
          "name": "",
          "type": "bool"
        }
      ],
      "stateMutability": "nonpayable",
      "type": "function"
    },
    {
      "inputs": [
        {
          "internalType": "address",
          "name": "_from",
          "type": "address"
        },
        {
          "internalType": "address",
          "name": "_to",
          "type": "address"
        },
        {
          "internalType": "uint256",
          "name": "_amount",
          "type": "uint256"
        }
      ],
      "name": "transferFrom",
      "outputs": [
        {
          "internalType": "bool",
          "name": "",
          "type": "bool"
        }
      ],
      "stateMutability": "nonpayable",
      "type": "function"
    },
    {
      "inputs": [
        {
          "internalType": "address",
          "name": "newOwner",
          "type": "address"
        }
      ],
      "name": "transferOwnership",
      "outputs": [],
      "stateMutability": "nonpayable",
      "type": "function"
    },
    {
      "inputs": [
        {
          "internalType": "address",
          "name": "_userAddress",
          "type": "address"
        },
        {
          "internalType": "uint256",
          "name": "_amount",
          "type": "uint256"
        }
      ],
      "name": "unfreezePartialTokens",
      "outputs": [],
      "stateMutability": "nonpayable",
      "type": "function"
    },
    {
      "inputs": [],
      "name": "version",
      "outputs": [
        {
          "internalType": "string",
          "name": "",
          "type": "string"
        }
      ],
      "stateMutability": "pure",
      "type": "function"
    }
  ],
  "bytecode": "0x60806040523480156200001157600080fd5b5060405162002d9538038062002d9583398101604081905262000034916200051a565b8383600362000044838262000664565b50600462000053828262000664565b50506005805460ff19169055506200006b336200014f565b600780546001600160a01b0319166001600160a01b0383161790556200009186620001a9565b6200009c85620001fd565b6007546001600160a01b0316620000b26200031e565b604051620000c1919062000730565b604051908190039020620000d4620003b8565b604051620000e3919062000730565b60405180910390207f6a1105ac8148a3c319adbc369f9072573e8a11d3a3d195e067e7c40767ec54d18560405180604001604052806005815260200164342e302e3160d81b8152506040516200013b9291906200074e565b60405180910390a45050505050506200078d565b600580546001600160a01b03838116610100818102610100600160a81b031985161790945560405193909204169182907f8be0079c531659141344cd1fd0a4f28419497f9722a3daafe3b4186f6b6457e090600090a35050565b620001b3620003c9565b600a80546001600160a01b0319166001600160a01b0383169081179091556040517fd2be862d755bca7e0d39772b2cab3a5578da9c285f69199f4c063c2294a7f36c90600090a250565b62000207620003c9565b600b546001600160a01b0316156200027957600b5460405163040db3b560e41b81523060048201526001600160a01b03909116906340db3b5090602401600060405180830381600087803b1580156200025f57600080fd5b505af115801562000274573d6000803e3d6000fd5b505050505b600b80546001600160a01b0319166001600160a01b038316908117909155604051631ffad50160e11b8152306004820152633ff5aa0290602401600060405180830381600087803b158015620002ce57600080fd5b505af1158015620002e3573d6000803e3d6000fd5b50506040516001600160a01b03841692507f7f3a888862559648ec01d97deb7b5012bff86dc91e654a1de397170db40e35b69150600090a250565b6060600480546200032f90620005d5565b80601f01602080910402602001604051908101604052809291908181526020018280546200035d90620005d5565b8015620003ae5780601f106200038257610100808354040283529160200191620003ae565b820191906000526020600020905b8154815290600101906020018083116200039057829003601f168201915b5050505050905090565b6060600380546200032f90620005d5565b6005546001600160a01b036101009091041633146200042e5760405162461bcd60e51b815260206004820181905260248201527f4f776e61626c653a2063616c6c6572206973206e6f7420746865206f776e6572604482015260640160405180910390fd5b565b80516001600160a01b03811681146200044857600080fd5b919050565b634e487b7160e01b600052604160045260246000fd5b60005b838110156200048057818101518382015260200162000466565b50506000910152565b600082601f8301126200049b57600080fd5b81516001600160401b0380821115620004b857620004b86200044d565b604051601f8301601f19908116603f01168101908282118183101715620004e357620004e36200044d565b81604052838152866020858801011115620004fd57600080fd5b6200051084602083016020890162000463565b9695505050505050565b60008060008060008060c087890312156200053457600080fd5b6200053f8762000430565b95506200054f6020880162000430565b60408801519095506001600160401b03808211156200056d57600080fd5b6200057b8a838b0162000489565b955060608901519150808211156200059257600080fd5b50620005a189828a0162000489565b935050608087015160ff81168114620005b957600080fd5b9150620005c960a0880162000430565b90509295509295509295565b600181811c90821680620005ea57607f821691505b6020821081036200060b57634e487b7160e01b600052602260045260246000fd5b50919050565b601f8211156200065f57600081815260208120601f850160051c810160208610156200063a5750805b601f850160051c820191505b818110156200065b5782815560010162000646565b5050505b505050565b81516001600160401b038111156200068057620006806200044d565b6200069881620006918454620005d5565b8462000611565b602080601f831160018114620006d05760008415620006b75750858301515b600019600386901b1c1916600185901b1785556200065b565b600085815260208120601f198616915b828110156200070157888601518255948401946001909101908401620006e0565b5085821015620007205787850151600019600388901b60f8161c191681555b5050505050600190811b01905550565b600082516200074481846020870162000463565b9190910192915050565b60ff8316815260406020820152600082518060408401526200077881606085016020870162000463565b601f01601f1916919091016060019392505050565b6125f8806200079d6000396000f3fe608060405234801561001057600080fd5b50600436106102065760003560e01c8063715018a61161011a578063a457c2d7116100ad578063cbf3f8611161007c578063cbf3f86114610465578063dd62ed3e14610478578063e58398361461048b578063f2fde38b146104b7578063f8981789146104ca57600080fd5b8063a457c2d71461041b578063a9059cbb1461042e578063aba6370514610441578063c69c09cf1461045257600080fd5b806395d89b41116100e957806395d89b41146103da57806397a6278e146103e25780639dc29fac146103f55780639fc1d0e71461040857600080fd5b8063715018a61461039657806384e798421461039e5780638da5cb5b146103b15780639285948a146103c757600080fd5b806323b872dd1161019d57806340c10f191161016c57806340c10f191461033357806354fd4d50146103465780635c975abb146103675780636290865d1461037257806370a082311461038357600080fd5b806323b872dd146102eb578063313ce567146102fe578063395093511461030d5780633d1ddc5b1461032057600080fd5b8063158b1a57116101d9578063158b1a571461028657806318160ddd146102bd5780631fe56f7d146102c55780631ffbb064146102d857600080fd5b806306fdde031461020b578063095ea7b314610229578063125c4a331461024c578063134e18f414610261575b600080fd5b6102136104dd565b60405161022091906122f6565b60405180910390f35b61023c610237366004612325565b61056f565b6040519015158152602001610220565b61025f61025a366004612325565b610589565b005b600a546001600160a01b03165b6040516001600160a01b039091168152602001610220565b6102af61029436600461234f565b6001600160a01b031660009081526009602052604090205490565b604051908152602001610220565b6002546102af565b61025f6102d3366004612325565b6106b8565b61023c6102e636600461234f565b6107e1565b61023c6102f936600461236a565b6107ee565b60405160128152602001610220565b61023c61031b366004612325565b6109ac565b61025f61032e36600461234f565b6109ce565b61025f610341366004612325565b610a8a565b604080518082019091526005815264342e302e3160d81b6020820152610213565b60055460ff1661023c565b600b546001600160a01b031661026e565b6102af61039136600461234f565b610abd565b61025f610ad8565b61025f6103ac36600461234f565b610aec565b60055461010090046001600160a01b031661026e565b61023c6103d53660046123a6565b610b8c565b610213610ef0565b61025f6103f036600461234f565b610eff565b61025f610403366004612325565b610f9f565b61023c61041636600461236a565b611153565b61023c610429366004612325565b61137b565b61023c61043c366004612325565b611401565b6007546001600160a01b031661026e565b61025f6104603660046123f7565b611577565b61025f61047336600461234f565b6115f1565b6102af61048636600461242e565b611643565b61023c61049936600461234f565b6001600160a01b031660009081526008602052604090205460ff1690565b61025f6104c536600461234f565b61166e565b61025f6104d836600461234f565b6116e7565b6060600380546104ec90612461565b80601f016020809104026020016040519081016040528092919081815260200182805461051890612461565b80156105655780601f1061053a57610100808354040283529160200191610565565b820191906000526020600020905b81548152906001019060200180831161054857829003601f168201915b5050505050905090565b60003361057d818585611801565b60019150505b92915050565b610592336107e1565b6105b75760405162461bcd60e51b81526004016105ae9061249b565b60405180910390fd5b60006105c283610abd565b6001600160a01b0384166000908152600960205260409020549091506105e99083906124ff565b8110156106385760405162461bcd60e51b815260206004820181905260248201527f416d6f756e74206578636565647320617661696c61626c652062616c616e636560448201526064016105ae565b6001600160a01b03831660009081526009602052604090205461065c9083906124ff565b6001600160a01b038416600081815260096020526040908190209290925590517fa065e63c631c86f1b9f66a4a2f63f2093bf1c2168d23290259dbd969e0222a45906106ab9085815260200190565b60405180910390a2505050565b6106c1336107e1565b6106dd5760405162461bcd60e51b81526004016105ae9061249b565b6001600160a01b0382166000908152600960205260409020548111156107625760405162461bcd60e51b815260206004820152603460248201527f416d6f756e742073686f756c64206265206c657373207468616e206f7220657160448201527375616c20746f2066726f7a656e20746f6b656e7360601b60648201526084016105ae565b6001600160a01b038216600090815260096020526040902054610786908290612512565b6001600160a01b038316600081815260096020526040908190209290925590517f9bed35cb62ad0dba04f9d5bfee4b5bc91443e77da8a65c4c84834c51bb08b0d6906107d59084815260200190565b60405180910390a25050565b6000610583600683611926565b60006107f86119a9565b6001600160a01b03831660009081526008602052604090205460ff1615801561083157503360009081526008602052604090205460ff16155b6108705760405162461bcd60e51b815260206004820152601060248201526f3bb0b63632ba1034b990333937bd32b760811b60448201526064016105ae565b336000818152600960205260409020549061088a90610abd565b6108949190612512565b8211156108da5760405162461bcd60e51b8152602060048201526014602482015273496e73756666696369656e742042616c616e636560601b60448201526064016105ae565b6108e58484846119ef565b15610965576108f5848484611ae2565b50600b546040516322ebca6d60e21b81526001600160a01b0390911690638baf29b49061092a90879087908790600401612525565b600060405180830381600087803b15801561094457600080fd5b505af1158015610958573d6000803e3d6000fd5b50505050600190506109a5565b60405162461bcd60e51b81526020600482015260156024820152745472616e73666572206e6f7420706f737369626c6560581b60448201526064016105ae565b9392505050565b60003361057d8185856109bf8383611643565b6109c991906124ff565b611801565b6109d6611afb565b600780546001600160a01b0319166001600160a01b0383169081179091556109fc610ef0565b604051610a099190612549565b6040518091039020610a196104dd565b604051610a269190612549565b60405180910390207f6a1105ac8148a3c319adbc369f9072573e8a11d3a3d195e067e7c40767ec54d1610a57601290565b6040805180820182526005815264342e302e3160d81b60208201529051610a7f929190612565565b60405180910390a450565b610a93336107e1565b610aaf5760405162461bcd60e51b81526004016105ae9061249b565b610ab98282611b5b565b5050565b6001600160a01b031660009081526020819052604090205490565b610ae0611afb565b610aea6000611d4b565b565b610af4611afb565b6001600160a01b038116610b4a5760405162461bcd60e51b815260206004820152601f60248201527f696e76616c696420617267756d656e74202d207a65726f20616464726573730060448201526064016105ae565b610b55600682611da5565b6040516001600160a01b038216907ff68e73cec97f2d70aa641fb26e87a4383686e2efacb648f2165aeb02ac562ec590600090a250565b6000610b97336107e1565b610bb35760405162461bcd60e51b81526004016105ae9061249b565b610bbc84610abd565b600003610c025760405162461bcd60e51b81526020600482015260146024820152733737903a37b5b2b739903a37903932b1b7bb32b960611b60448201526064016105ae565b604080516001600160a01b038516602082015283916000910160408051808303601f1901815290829052805160209091012063d202158d60e01b8252600482018190526001602483015291506001600160a01b0383169063d202158d90604401602060405180830381865afa158015610c7f573d6000803e3d6000fd5b505050506040513d601f19601f82011682018060405250810190610ca39190612581565b15610eb0576000610cb387610abd565b6001600160a01b038881166000818152600960205260409081902054600a549151637e42683b60e01b815260048101939093529394509091169063454a03e090899087908490637e42683b90602401602060405180830381865afa158015610d1f573d6000803e3d6000fd5b505050506040513d601f19601f82011682018060405250810190610d43919061259e565b6040516001600160e01b031960e086901b1681526001600160a01b03938416600482015292909116602483015261ffff166044820152606401600060405180830381600087803b158015610d9657600080fd5b505af1158015610daa573d6000803e3d6000fd5b50505050610db9888884611153565b508015610dca57610dca8782610589565b6001600160a01b03881660009081526008602052604090205460ff161515600103610dfa57610dfa876001611577565b600a5460405163a8d29d1d60e01b81526001600160a01b038a811660048301529091169063a8d29d1d90602401600060405180830381600087803b158015610e4157600080fd5b505af1158015610e55573d6000803e3d6000fd5b50505050856001600160a01b0316876001600160a01b0316896001600160a01b03167ff0c9129a94f30f1caaceb63e44b9811d0a3edf1d6c23757f346093af5553fed060405160405180910390a460019450505050506109a5565b60405162461bcd60e51b81526020600482015260156024820152745265636f76657279206e6f7420706f737369626c6560581b60448201526064016105ae565b6060600480546104ec90612461565b610f07611afb565b6001600160a01b038116610f5d5760405162461bcd60e51b815260206004820152601f60248201527f696e76616c696420617267756d656e74202d207a65726f20616464726573730060448201526064016105ae565b610f68600682611e21565b6040516001600160a01b038216907fed9c8ad8d5a0a66898ea49d2956929c93ae2e8bd50281b2ed897c5d1a6737e0b90600090a250565b610fa8336107e1565b610fc45760405162461bcd60e51b81526004016105ae9061249b565b80610fce83610abd565b101561101c5760405162461bcd60e51b815260206004820152601d60248201527f63616e6e6f74206275726e206d6f7265207468616e2062616c616e636500000060448201526064016105ae565b6001600160a01b03821660009081526009602052604081205461103e84610abd565b6110489190612512565b9050808211156110de57600061105e8284612512565b6001600160a01b038516600090815260096020526040902054909150611085908290612512565b6001600160a01b038516600081815260096020526040908190209290925590517f9bed35cb62ad0dba04f9d5bfee4b5bc91443e77da8a65c4c84834c51bb08b0d6906110d49084815260200190565b60405180910390a2505b6110e88383611ea3565b600b5460405163469753b960e11b81526001600160a01b0385811660048301526024820185905290911690638d2ea77290604401600060405180830381600087803b15801561113657600080fd5b505af115801561114a573d6000803e3d6000fd5b50505050505050565b600061115e336107e1565b61117a5760405162461bcd60e51b81526004016105ae9061249b565b8161118485610abd565b10156111cb5760405162461bcd60e51b815260206004820152601660248201527573656e6465722062616c616e636520746f6f206c6f7760501b60448201526064016105ae565b6001600160a01b0384166000908152600960205260408120546111ed86610abd565b6111f79190612512565b90508083111561128d57600061120d8285612512565b6001600160a01b038716600090815260096020526040902054909150611234908290612512565b6001600160a01b038716600081815260096020526040908190209290925590517f9bed35cb62ad0dba04f9d5bfee4b5bc91443e77da8a65c4c84834c51bb08b0d6906112839084815260200190565b60405180910390a2505b600a5460405163b9209e3360e01b81526001600160a01b0386811660048301529091169063b9209e3390602401602060405180830381865afa1580156112d7573d6000803e3d6000fd5b505050506040513d601f19601f820116820180604052508101906112fb9190612581565b156109655761130b858585611fcd565b600b546040516322ebca6d60e21b81526001600160a01b0390911690638baf29b49061133f90889088908890600401612525565b600060405180830381600087803b15801561135957600080fd5b505af115801561136d573d6000803e3d6000fd5b5050505060019150506109a5565b600033816113898286611643565b9050838110156113e95760405162461bcd60e51b815260206004820152602560248201527f45524332303a2064656372656173656420616c6c6f77616e63652062656c6f77604482015264207a65726f60d81b60648201526084016105ae565b6113f68286868403611801565b506001949350505050565b600061140b6119a9565b6001600160a01b03831660009081526008602052604090205460ff1615801561144457503360009081526008602052604090205460ff16155b6114835760405162461bcd60e51b815260206004820152601060248201526f3bb0b63632ba1034b990333937bd32b760811b60448201526064016105ae565b336000818152600960205260409020549061149d90610abd565b6114a79190612512565b8211156114ed5760405162461bcd60e51b8152602060048201526014602482015273496e73756666696369656e742042616c616e636560601b60448201526064016105ae565b6114f83384846119ef565b1561096557611508338484611fcd565b600b546040516322ebca6d60e21b81526001600160a01b0390911690638baf29b49061153c90339087908790600401612525565b600060405180830381600087803b15801561155657600080fd5b505af115801561156a573d6000803e3d6000fd5b5050505060019050610583565b611580336107e1565b61159c5760405162461bcd60e51b81526004016105ae9061249b565b6001600160a01b038216600081815260086020526040808220805460ff19168515159081179091559051339391927f7fa523c84ab8d7fc5b72f08b9e46dbbf10c39e119a075b3e317002d14bc9f43691a45050565b6115f9611afb565b600a80546001600160a01b0319166001600160a01b0383169081179091556040517fd2be862d755bca7e0d39772b2cab3a5578da9c285f69199f4c063c2294a7f36c90600090a250565b6001600160a01b03918216600090815260016020908152604080832093909416825291909152205490565b611676611afb565b6001600160a01b0381166116db5760405162461bcd60e51b815260206004820152602660248201527f4f776e61626c653a206e6577206f776e657220697320746865207a65726f206160448201526564647265737360d01b60648201526084016105ae565b6116e481611d4b565b50565b6116ef611afb565b600b546001600160a01b03161561175e57600b5460405163040db3b560e41b81523060048201526001600160a01b03909116906340db3b5090602401600060405180830381600087803b15801561174557600080fd5b505af1158015611759573d6000803e3d6000fd5b505050505b600b80546001600160a01b0319166001600160a01b038316908117909155604051631ffad50160e11b8152306004820152633ff5aa0290602401600060405180830381600087803b1580156117b257600080fd5b505af11580156117c6573d6000803e3d6000fd5b50506040516001600160a01b03841692507f7f3a888862559648ec01d97deb7b5012bff86dc91e654a1de397170db40e35b69150600090a250565b6001600160a01b0383166118635760405162461bcd60e51b8152602060048201526024808201527f45524332303a20617070726f76652066726f6d20746865207a65726f206164646044820152637265737360e01b60648201526084016105ae565b6001600160a01b0382166118c45760405162461bcd60e51b815260206004820152602260248201527f45524332303a20617070726f766520746f20746865207a65726f206164647265604482015261737360f01b60648201526084016105ae565b6001600160a01b0383811660008181526001602090815260408083209487168084529482529182902085905590518481527f8c5be1e5ebec7d5bd14f71427d1e84f3dd0314c0f7b2291e5b200ac8c7c3b92591015b60405180910390a3505050565b60006001600160a01b0382166119895760405162461bcd60e51b815260206004820152602260248201527f526f6c65733a206163636f756e7420697320746865207a65726f206164647265604482015261737360f01b60648201526084016105ae565b506001600160a01b03166000908152602091909152604090205460ff1690565b60055460ff1615610aea5760405162461bcd60e51b815260206004820152601060248201526f14185d5cd8589b194e881c185d5cd95960821b60448201526064016105ae565b600a5460405163b9209e3360e01b81526001600160a01b038481166004830152600092169063b9209e3390602401602060405180830381865afa158015611a3a573d6000803e3d6000fd5b505050506040513d601f19601f82011682018060405250810190611a5e9190612581565b8015611ada5750600b546040516372331c7360e11b81526001600160a01b039091169063e46638e690611a9990879087908790600401612525565b602060405180830381865afa158015611ab6573d6000803e3d6000fd5b505050506040513d601f19601f82011682018060405250810190611ada9190612581565b949350505050565b600033611af0858285612173565b6113f6858585611fcd565b6005546001600160a01b03610100909104163314610aea5760405162461bcd60e51b815260206004820181905260248201527f4f776e61626c653a2063616c6c6572206973206e6f7420746865206f776e657260448201526064016105ae565b600a5460405163b9209e3360e01b81526001600160a01b0384811660048301529091169063b9209e3390602401602060405180830381865afa158015611ba5573d6000803e3d6000fd5b505050506040513d601f19601f82011682018060405250810190611bc99190612581565b611c155760405162461bcd60e51b815260206004820152601960248201527f4964656e74697479206973206e6f742076657269666965642e0000000000000060448201526064016105ae565b600b546040516372331c7360e11b81526001600160a01b039091169063e46638e690611c4a9060009086908690600401612525565b602060405180830381865afa158015611c67573d6000803e3d6000fd5b505050506040513d601f19601f82011682018060405250810190611c8b9190612581565b611cd75760405162461bcd60e51b815260206004820152601760248201527f436f6d706c69616e6365206e6f7420666f6c6c6f77656400000000000000000060448201526064016105ae565b611ce182826121e7565b600b54604051635f8dead360e01b81526001600160a01b0384811660048301526024820184905290911690635f8dead390604401600060405180830381600087803b158015611d2f57600080fd5b505af1158015611d43573d6000803e3d6000fd5b505050505050565b600580546001600160a01b03838116610100818102610100600160a81b031985161790945560405193909204169182907f8be0079c531659141344cd1fd0a4f28419497f9722a3daafe3b4186f6b6457e090600090a35050565b611daf8282611926565b15611dfc5760405162461bcd60e51b815260206004820152601f60248201527f526f6c65733a206163636f756e7420616c72656164792068617320726f6c650060448201526064016105ae565b6001600160a01b0316600090815260209190915260409020805460ff19166001179055565b611e2b8282611926565b611e815760405162461bcd60e51b815260206004820152602160248201527f526f6c65733a206163636f756e7420646f6573206e6f74206861766520726f6c6044820152606560f81b60648201526084016105ae565b6001600160a01b0316600090815260209190915260409020805460ff19169055565b6001600160a01b038216611f035760405162461bcd60e51b815260206004820152602160248201527f45524332303a206275726e2066726f6d20746865207a65726f206164647265736044820152607360f81b60648201526084016105ae565b6001600160a01b03821660009081526020819052604090205481811015611f775760405162461bcd60e51b815260206004820152602260248201527f45524332303a206275726e20616d6f756e7420657863656564732062616c616e604482015261636560f01b60648201526084016105ae565b6001600160a01b0383166000818152602081815260408083208686039055600280548790039055518581529192917fddf252ad1be2c89b69c2b068fc378daa952ba7f163c4a11628f55a4df523b3ef9101611919565b6001600160a01b0383166120315760405162461bcd60e51b815260206004820152602560248201527f45524332303a207472616e736665722066726f6d20746865207a65726f206164604482015264647265737360d81b60648201526084016105ae565b6001600160a01b0382166120935760405162461bcd60e51b815260206004820152602360248201527f45524332303a207472616e7366657220746f20746865207a65726f206164647260448201526265737360e81b60648201526084016105ae565b6001600160a01b0383166000908152602081905260409020548181101561210b5760405162461bcd60e51b815260206004820152602660248201527f45524332303a207472616e7366657220616d6f756e7420657863656564732062604482015265616c616e636560d01b60648201526084016105ae565b6001600160a01b03848116600081815260208181526040808320878703905593871680835291849020805487019055925185815290927fddf252ad1be2c89b69c2b068fc378daa952ba7f163c4a11628f55a4df523b3ef910160405180910390a35b50505050565b600061217f8484611643565b9050600019811461216d57818110156121da5760405162461bcd60e51b815260206004820152601d60248201527f45524332303a20696e73756666696369656e7420616c6c6f77616e636500000060448201526064016105ae565b61216d8484848403611801565b6001600160a01b03821661223d5760405162461bcd60e51b815260206004820152601f60248201527f45524332303a206d696e7420746f20746865207a65726f20616464726573730060448201526064016105ae565b806002600082825461224f91906124ff565b90915550506001600160a01b038216600081815260208181526040808320805486019055518481527fddf252ad1be2c89b69c2b068fc378daa952ba7f163c4a11628f55a4df523b3ef910160405180910390a35050565b60005b838110156122c15781810151838201526020016122a9565b50506000910152565b600081518084526122e28160208601602086016122a6565b601f01601f19169290920160200192915050565b6020815260006109a560208301846122ca565b80356001600160a01b038116811461232057600080fd5b919050565b6000806040838503121561233857600080fd5b61234183612309565b946020939093013593505050565b60006020828403121561236157600080fd5b6109a582612309565b60008060006060848603121561237f57600080fd5b61238884612309565b925061239660208501612309565b9150604084013590509250925092565b6000806000606084860312156123bb57600080fd5b6123c484612309565b92506123d260208501612309565b91506123e060408501612309565b90509250925092565b80151581146116e457600080fd5b6000806040838503121561240a57600080fd5b61241383612309565b91506020830135612423816123e9565b809150509250929050565b6000806040838503121561244157600080fd5b61244a83612309565b915061245860208401612309565b90509250929050565b600181811c9082168061247557607f821691505b60208210810361249557634e487b7160e01b600052602260045260246000fd5b50919050565b6020808252602e908201527f4167656e74526f6c653a2063616c6c657220646f6573206e6f7420686176652060408201526d746865204167656e7420726f6c6560901b606082015260800190565b634e487b7160e01b600052601160045260246000fd5b80820180821115610583576105836124e9565b81810381811115610583576105836124e9565b6001600160a01b039384168152919092166020820152604081019190915260600190565b6000825161255b8184602087016122a6565b9190910192915050565b60ff83168152604060208201526000611ada60408301846122ca565b60006020828403121561259357600080fd5b81516109a5816123e9565b6000602082840312156125b057600080fd5b815161ffff811681146109a557600080fdfea2646970667358221220ae99746b68a58d96edee3d7086e022fd32f1e0b812d9aebf169c6e4d65c2261664736f6c63430008130033",
  "linkReferences": {},
  "deployedLinkReferences": {}
}