{
  "_format": "hh-sol-artifact-1",
  "contractName": "Verifier",
  "sourceName": "contracts/onchain-id/verifiers/Verifier.sol",
  "abi": [
    {
      "anonymous": false,
      "inputs": [
        {
          "indexed": true,
          "internalType": "uint256",
          "name": "claimTopic",
          "type": "uint256"
        }
      ],
      "name": "ClaimTopicAdded",
      "type": "event"
    },
    {
      "anonymous": false,
      "inputs": [
        {
          "indexed": true,
          "internalType": "uint256",
          "name": "claimTopic",
          "type": "uint256"
        }
      ],
      "name": "ClaimTopicRemoved",
      "type": "event"
    },
    {
      "anonymous": false,
      "inputs": [
        {
          "indexed": true,
          "internalType": "contract IClaimIssuer",
          "name": "trustedIssuer",
          "type": "address"
        },
        {
          "indexed": false,
          "internalType": "uint256[]",
          "name": "claimTopics",
          "type": "uint256[]"
        }
      ],
      "name": "ClaimTopicsUpdated",
      "type": "event"
    },
    {
      "anonymous": false,
      "inputs": [
        {
          "indexed": true,
          "internalType": "address",
          "name": "previousOwner",
          "type": "address"
        },
        {
          "indexed": true,
          "internalType": "address",
          "name": "newOwner",
          "type": "address"
        }
      ],
      "name": "OwnershipTransferred",
      "type": "event"
    },
    {
      "anonymous": false,
      "inputs": [
        {
          "indexed": true,
          "internalType": "contract IClaimIssuer",
          "name": "trustedIssuer",
          "type": "address"
        },
        {
          "indexed": false,
          "internalType": "uint256[]",
          "name": "claimTopics",
          "type": "uint256[]"
        }
      ],
      "name": "TrustedIssuerAdded",
      "type": "event"
    },
    {
      "anonymous": false,
      "inputs": [
        {
          "indexed": true,
          "internalType": "contract IClaimIssuer",
          "name": "trustedIssuer",
          "type": "address"
        }
      ],
      "name": "TrustedIssuerRemoved",
      "type": "event"
    },
    {
      "inputs": [
        {
          "internalType": "uint256",
          "name": "claimTopic",
          "type": "uint256"
        }
      ],
      "name": "addClaimTopic",
      "outputs": [],
      "stateMutability": "nonpayable",
      "type": "function"
    },
    {
      "inputs": [
        {
          "internalType": "contract IClaimIssuer",
          "name": "trustedIssuer",
          "type": "address"
        },
        {
          "internalType": "uint256[]",
          "name": "claimTopics",
          "type": "uint256[]"
        }
      ],
      "name": "addTrustedIssuer",
      "outputs": [],
      "stateMutability": "nonpayable",
      "type": "function"
    },
    {
      "inputs": [
        {
          "internalType": "uint256",
          "name": "",
          "type": "uint256"
        },
        {
          "internalType": "uint256",
          "name": "",
          "type": "uint256"
        }
      ],
      "name": "claimTopicsToTrustedIssuers",
      "outputs": [
        {
          "internalType": "contract IClaimIssuer",
          "name": "",
          "type": "address"
        }
      ],
      "stateMutability": "view",
      "type": "function"
    },
    {
      "inputs": [
        {
          "internalType": "contract IClaimIssuer",
          "name": "trustedIssuer",
          "type": "address"
        }
      ],
      "name": "getTrustedIssuerClaimTopics",
      "outputs": [
        {
          "internalType": "uint256[]",
          "name": "",
          "type": "uint256[]"
        }
      ],
      "stateMutability": "view",
      "type": "function"
    },
    {
      "inputs": [],
      "name": "getTrustedIssuers",
      "outputs": [
        {
          "internalType": "contract IClaimIssuer[]",
          "name": "",
          "type": "address[]"
        }
      ],
      "stateMutability": "view",
      "type": "function"
    },
    {
      "inputs": [
        {
          "internalType": "uint256",
          "name": "claimTopic",
          "type": "uint256"
        }
      ],
      "name": "getTrustedIssuersForClaimTopic",
      "outputs": [
        {
          "internalType": "contract IClaimIssuer[]",
          "name": "",
          "type": "address[]"
        }
      ],
      "stateMutability": "view",
      "type": "function"
    },
    {
      "inputs": [
        {
          "internalType": "address",
          "name": "issuer",
          "type": "address"
        },
        {
          "internalType": "uint256",
          "name": "claimTopic",
          "type": "uint256"
        }
      ],
      "name": "hasClaimTopic",
      "outputs": [
        {
          "internalType": "bool",
          "name": "",
          "type": "bool"
        }
      ],
      "stateMutability": "view",
      "type": "function"
    },
    {
      "inputs": [
        {
          "internalType": "uint256",
          "name": "claimTopic",
          "type": "uint256"
        }
      ],
      "name": "isClaimTopicRequired",
      "outputs": [
        {
          "internalType": "bool",
          "name": "",
          "type": "bool"
        }
      ],
      "stateMutability": "view",
      "type": "function"
    },
    {
      "inputs": [
        {
          "internalType": "address",
          "name": "issuer",
          "type": "address"
        }
      ],
      "name": "isTrustedIssuer",
      "outputs": [
        {
          "internalType": "bool",
          "name": "",
          "type": "bool"
        }
      ],
      "stateMutability": "view",
      "type": "function"
    },
    {
      "inputs": [],
      "name": "owner",
      "outputs": [
        {
          "internalType": "address",
          "name": "",
          "type": "address"
        }
      ],
      "stateMutability": "view",
      "type": "function"
    },
    {
      "inputs": [
        {
          "internalType": "uint256",
          "name": "claimTopic",
          "type": "uint256"
        }
      ],
      "name": "removeClaimTopic",
      "outputs": [],
      "stateMutability": "nonpayable",
      "type": "function"
    },
    {
      "inputs": [
        {
          "internalType": "contract IClaimIssuer",
          "name": "trustedIssuer",
          "type": "address"
        }
      ],
      "name": "removeTrustedIssuer",
      "outputs": [],
      "stateMutability": "nonpayable",
      "type": "function"
    },
    {
      "inputs": [],
      "name": "renounceOwnership",
      "outputs": [],
      "stateMutability": "nonpayable",
      "type": "function"
    },
    {
      "inputs": [
        {
          "internalType": "uint256",
          "name": "",
          "type": "uint256"
        }
      ],
      "name": "requiredClaimTopics",
      "outputs": [
        {
          "internalType": "uint256",
          "name": "",
          "type": "uint256"
        }
      ],
      "stateMutability": "view",
      "type": "function"
    },
    {
      "inputs": [
        {
          "internalType": "address",
          "name": "newOwner",
          "type": "address"
        }
      ],
      "name": "transferOwnership",
      "outputs": [],
      "stateMutability": "nonpayable",
      "type": "function"
    },
    {
      "inputs": [
        {
          "internalType": "address",
          "name": "",
          "type": "address"
        },
        {
          "internalType": "uint256",
          "name": "",
          "type": "uint256"
        }
      ],
      "name": "trustedIssuerClaimTopics",
      "outputs": [
        {
          "internalType": "uint256",
          "name": "",
          "type": "uint256"
        }
      ],
      "stateMutability": "view",
      "type": "function"
    },
    {
      "inputs": [
        {
          "internalType": "uint256",
          "name": "",
          "type": "uint256"
        }
      ],
      "name": "trustedIssuers",
      "outputs": [
        {
          "internalType": "contract IClaimIssuer",
          "name": "",
          "type": "address"
        }
      ],
      "stateMutability": "view",
      "type": "function"
    },
    {
      "inputs": [
        {
          "internalType": "contract IClaimIssuer",
          "name": "trustedIssuer",
          "type": "address"
        },
        {
          "internalType": "uint256[]",
          "name": "newClaimTopics",
          "type": "uint256[]"
        }
      ],
      "name": "updateIssuerClaimTopics",
      "outputs": [],
      "stateMutability": "nonpayable",
      "type": "function"
    },
    {
      "inputs": [
        {
          "internalType": "address",
          "name": "identity",
          "type": "address"
        }
      ],
      "name": "verify",
      "outputs": [
        {
          "internalType": "bool",
          "name": "isVerified",
          "type": "bool"
        }
      ],
      "stateMutability": "view",
      "type": "function"
    }
  ],
  "bytecode": "0x608060405234801561001057600080fd5b5061001a3361001f565b61006f565b600080546001600160a01b038381166001600160a01b0319831681178455604051919092169283917f8be0079c531659141344cd1fd0a4f28419497f9722a3daafe3b4186f6b6457e09190a35050565b611dea8061007e6000396000f3fe608060405234801561001057600080fd5b50600436106101215760003560e01c8063b5fa8693116100ad578063c7b2255111610071578063c7b2255114610276578063c801dd4014610289578063d9dd24c51461029c578063ef2ed1a4146102a4578063f2fde38b146102b757600080fd5b8063b5fa8693146101fc578063b93d28eb1461021d578063ba64c34114610230578063be36359f14610243578063c28fb2781461025657600080fd5b806363a9c3d7116100f457806363a9c3d714610196578063715018a6146101a95780638da5cb5b146101b157806393e9f801146101d65780639f63ea98146101e957600080fd5b806304bc7e8414610126578063082978461461013b57806334a899871461014e57806352c111d114610176575b600080fd5b610139610134366004611819565b6102ca565b005b6101396101493660046118a1565b610666565b61016161015c3660046118ba565b610756565b60405190151581526020015b60405180910390f35b6101896101843660046118a1565b610815565b60405161016d91906118e6565b6101616101a4366004611933565b610881565b610139610c6c565b6000546001600160a01b03165b6040516001600160a01b03909116815260200161016d565b6101be6101e4366004611957565b610c80565b6101396101f7366004611819565b610cb8565b61020f61020a3660046118a1565b610f3f565b60405190815260200161016d565b61013961022b366004611933565b610f60565b61020f61023e3660046118ba565b611301565b6101616102513660046118a1565b611332565b610269610264366004611933565b61138c565b60405161016d9190611979565b6101396102843660046118a1565b61145e565b6101be6102973660046118a1565b6115ad565b6101896115d7565b6101616102b2366004611933565b611639565b6101396102c5366004611933565b611667565b6102d26116e0565b6001600160a01b0383166103015760405162461bcd60e51b81526004016102f8906119b1565b60405180910390fd5b6001600160a01b038316600090815260036020526040812054900361035f5760405162461bcd60e51b81526020600482015260146024820152732727aa1030903a393ab9ba32b21034b9b9bab2b960611b60448201526064016102f8565b600f8111156103805760405162461bcd60e51b81526004016102f8906119e8565b806103cd5760405162461bcd60e51b815260206004820152601c60248201527f636c61696d20746f706963732063616e6e6f7420626520656d7074790000000060448201526064016102f8565b60005b6001600160a01b038416600090815260036020526040902054811015610581576001600160a01b038416600090815260036020526040812080548390811061041a5761041a611a2d565b600091825260208083209091015480835260049091526040822054909250905b8181101561056b57600083815260046020526040902080546001600160a01b03891691908390811061046e5761046e611a2d565b6000918252602090912001546001600160a01b0316036105595760008381526004602052604090206104a1600184611a59565b815481106104b1576104b1611a2d565b60009182526020808320909101548583526004909152604090912080546001600160a01b0390921691839081106104ea576104ea611a2d565b600091825260208083209190910180546001600160a01b0319166001600160a01b03949094169390931790925584815260049091526040902080548061053257610532611a6c565b600082815260209020810160001990810180546001600160a01b031916905501905561056b565b8061056381611a82565b91505061043a565b505050808061057990611a82565b9150506103d0565b506001600160a01b03831660009081526003602052604090206105a590838361178a565b5060005b8181101561061d57600460008484848181106105c7576105c7611a2d565b6020908102929092013583525081810192909252604001600090812080546001810182559082529190200180546001600160a01b0319166001600160a01b0386161790558061061581611a82565b9150506105a9565b50826001600160a01b03167fec753cfc52044f61676f18a11e500093a9f2b1cd5e4942bc476f2b0438159bcf8383604051610659929190611a9b565b60405180910390a2505050565b61066e6116e0565b60015460005b8181101561075157826001828154811061069057610690611a2d565b90600052602060002001540361073f5760016106ac8184611a59565b815481106106bc576106bc611a2d565b9060005260206000200154600182815481106106da576106da611a2d565b60009182526020909120015560018054806106f7576106f7611a6c565b60019003818190600052602060002001600090559055827f0b1381093c776453c1bbe54fd68be1b235c65db61d099cb50d194b2991e0eec560405160405180910390a2505050565b8061074981611a82565b915050610674565b505050565b6001600160a01b0382166000908152600360209081526040808320805482518185028101850190935280835284938301828280156107b357602002820191906000526020600020905b81548152602001906001019080831161079f575b505083519394506000925050505b8181101561080757848382815181106107dc576107dc611a2d565b6020026020010151036107f5576001935050505061080f565b806107ff81611a82565b9150506107c1565b506000925050505b92915050565b60008181526004602090815260409182902080548351818402810184019094528084526060939283018282801561087557602002820191906000526020600020905b81546001600160a01b03168152600190910190602001808311610857575b50505050509050919050565b600154600090810361089557506001919050565b600080600060608060005b600154811015610c5e576000306001600160a01b03166352c111d1600184815481106108ce576108ce611a2d565b90600052602060002001546040518263ffffffff1660e01b81526004016108f791815260200190565b600060405180830381865afa158015610914573d6000803e3d6000fd5b505050506040513d6000823e601f3d908101601f1916820160405261093c9190810190611b1b565b905080516000036109565750600098975050505050505050565b6000815167ffffffffffffffff81111561097257610972611ad4565b60405190808252806020026020018201604052801561099b578160200160208202803683370190505b50905060005b8251811015610a4c578281815181106109bc576109bc611a2d565b6020026020010151600185815481106109d7576109d7611a2d565b9060005260206000200154604051602001610a079291906001600160a01b03929092168252602082015260400190565b60405160208183030381529060405280519060200120828281518110610a2f57610a2f611a2d565b602090810291909101015280610a4481611a82565b9150506109a1565b5060005b8151811015610c48578a6001600160a01b031663c9100bcb838381518110610a7a57610a7a611a2d565b60200260200101516040518263ffffffff1660e01b8152600401610aa091815260200190565b600060405180830381865afa158015610abd573d6000803e3d6000fd5b505050506040513d6000823e601f3d908101601f19168201604052610ae59190810190611c60565b5060018054959e50939c50919a50985096509085908110610b0857610b08611a2d565b90600052602060002001548903610c1157866001600160a01b031663c0969a6e8c60018781548110610b3c57610b3c611a2d565b906000526020600020015489896040518563ffffffff1660e01b8152600401610b689493929190611d4e565b602060405180830381865afa925050508015610ba1575060408051601f3d908101601f19168201909252610b9e91810190611d92565b60015b610bcf5760018251610bb39190611a59565b8103610bca575060009a9950505050505050505050565b610c36565b8015610bda57825191505b80158015610bf4575060018351610bf19190611a59565b82145b15610c0b575060009b9a5050505050505050505050565b50610c36565b60018251610c1f9190611a59565b8103610c36575060009a9950505050505050505050565b80610c4081611a82565b915050610a50565b5050508080610c5690611a82565b9150506108a0565b506001979650505050505050565b610c746116e0565b610c7e600061173a565b565b60046020528160005260406000208181548110610c9c57600080fd5b6000918252602090912001546001600160a01b03169150829050565b610cc06116e0565b6001600160a01b038316610ce65760405162461bcd60e51b81526004016102f8906119b1565b6001600160a01b03831660009081526003602052604090205415610d4c5760405162461bcd60e51b815260206004820152601d60248201527f747275737465642049737375657220616c72656164792065786973747300000060448201526064016102f8565b80610da55760405162461bcd60e51b8152602060048201526024808201527f7472757374656420636c61696d20746f706963732063616e6e6f7420626520656044820152636d70747960e01b60648201526084016102f8565b600f811115610dc65760405162461bcd60e51b81526004016102f8906119e8565b600254603211610e295760405162461bcd60e51b815260206004820152602860248201527f63616e6e6f742068617665206d6f7265207468616e2035302074727573746564604482015267206973737565727360c01b60648201526084016102f8565b60028054600181019091557f405787fa12a823e0f2b7631cc41b3ba8828b3321ca811111fa75cd3aa3bb5ace0180546001600160a01b0319166001600160a01b0385169081179091556000908152600360205260409020610e8b90838361178a565b5060005b81811015610f035760046000848484818110610ead57610ead611a2d565b6020908102929092013583525081810192909252604001600090812080546001810182559082529190200180546001600160a01b0319166001600160a01b03861617905580610efb81611a82565b915050610e8f565b50826001600160a01b03167ffedc33fd34859594822c0ff6f3f4f9fc279cc6d5cae53068f706a088e45008728383604051610659929190611a9b565b60018181548110610f4f57600080fd5b600091825260209091200154905081565b610f686116e0565b6001600160a01b038116610f8e5760405162461bcd60e51b81526004016102f8906119b1565b6001600160a01b0381166000908152600360205260408120549003610fec5760405162461bcd60e51b81526020600482015260146024820152732727aa1030903a393ab9ba32b21034b9b9bab2b960611b60448201526064016102f8565b60025460005b818110156110f257826001600160a01b03166002828154811061101757611017611a2d565b6000918252602090912001546001600160a01b0316036110e057600261103e600184611a59565b8154811061104e5761104e611a2d565b600091825260209091200154600280546001600160a01b03909216918390811061107a5761107a611a2d565b9060005260206000200160006101000a8154816001600160a01b0302191690836001600160a01b0316021790555060028054806110b9576110b9611a6c565b600082815260209020810160001990810180546001600160a01b03191690550190556110f2565b806110ea81611a82565b915050610ff2565b5060005b6001600160a01b0383166000908152600360205260409020548110156112a7576001600160a01b038316600090815260036020526040812080548390811061114057611140611a2d565b600091825260208083209091015480835260049091526040822054909250905b8181101561129157600083815260046020526040902080546001600160a01b03881691908390811061119457611194611a2d565b6000918252602090912001546001600160a01b03160361127f5760008381526004602052604090206111c7600184611a59565b815481106111d7576111d7611a2d565b60009182526020808320909101548583526004909152604090912080546001600160a01b03909216918390811061121057611210611a2d565b600091825260208083209190910180546001600160a01b0319166001600160a01b03949094169390931790925584815260049091526040902080548061125857611258611a6c565b600082815260209020810160001990810180546001600160a01b0319169055019055611291565b8061128981611a82565b915050611160565b505050808061129f90611a82565b9150506110f6565b506001600160a01b03821660009081526003602052604081206112c9916117d5565b6040516001600160a01b038316907f2214ded40113cc3fb63fc206cafee88270b0a903dac7245d54efdde30ebb032190600090a25050565b6003602052816000526040600020818154811061131d57600080fd5b90600052602060002001600091509150505481565b600154600090815b8181101561138257836001828154811061135657611356611a2d565b906000526020600020015403611370575060019392505050565b8061137a81611a82565b91505061133a565b5060009392505050565b6001600160a01b038116600090815260036020526040812054606091036113f55760405162461bcd60e51b815260206004820152601c60248201527f747275737465642049737375657220646f65736e27742065786973740000000060448201526064016102f8565b6001600160a01b0382166000908152600360209081526040918290208054835181840281018401909452808452909183018282801561087557602002820191906000526020600020905b81548152602001906001019080831161143f5750505050509050919050565b6114666116e0565b600154600f81106114c45760405162461bcd60e51b815260206004820152602260248201527f63616e6e6f742072657175697265206d6f7265207468616e20313520746f7069604482015261637360f01b60648201526084016102f8565b60005b8181101561154d5782600182815481106114e3576114e3611a2d565b90600052602060002001540361153b5760405162461bcd60e51b815260206004820152601960248201527f636c61696d546f70696320616c7265616479206578697374730000000000000060448201526064016102f8565b8061154581611a82565b9150506114c7565b5060018054808201825560009182527fb10e2d527612073b26eecdfd717e6a320cf44b4afac2b0732d9fcbe2b7fa0cf60183905560405183917f01c928b7f7ade2949e92366aa9454dbef3a416b731cf6ec786ba9595bbd814d691a25050565b600281815481106115bd57600080fd5b6000918252602090912001546001600160a01b0316905081565b6060600280548060200260200160405190810160405280929190818152602001828054801561162f57602002820191906000526020600020905b81546001600160a01b03168152600190910190602001808311611611575b5050505050905090565b6001600160a01b0381166000908152600360205260408120541561165f57506001919050565b506000919050565b61166f6116e0565b6001600160a01b0381166116d45760405162461bcd60e51b815260206004820152602660248201527f4f776e61626c653a206e6577206f776e657220697320746865207a65726f206160448201526564647265737360d01b60648201526084016102f8565b6116dd8161173a565b50565b6000546001600160a01b03163314610c7e5760405162461bcd60e51b815260206004820181905260248201527f4f776e61626c653a2063616c6c6572206973206e6f7420746865206f776e657260448201526064016102f8565b600080546001600160a01b038381166001600160a01b0319831681178455604051919092169283917f8be0079c531659141344cd1fd0a4f28419497f9722a3daafe3b4186f6b6457e09190a35050565b8280548282559060005260206000209081019282156117c5579160200282015b828111156117c55782358255916020019190600101906117aa565b506117d19291506117ef565b5090565b50805460008255906000526020600020908101906116dd91905b5b808211156117d157600081556001016117f0565b6001600160a01b03811681146116dd57600080fd5b60008060006040848603121561182e57600080fd5b833561183981611804565b9250602084013567ffffffffffffffff8082111561185657600080fd5b818601915086601f83011261186a57600080fd5b81358181111561187957600080fd5b8760208260051b850101111561188e57600080fd5b6020830194508093505050509250925092565b6000602082840312156118b357600080fd5b5035919050565b600080604083850312156118cd57600080fd5b82356118d881611804565b946020939093013593505050565b6020808252825182820181905260009190848201906040850190845b818110156119275783516001600160a01b031683529284019291840191600101611902565b50909695505050505050565b60006020828403121561194557600080fd5b813561195081611804565b9392505050565b6000806040838503121561196a57600080fd5b50508035926020909101359150565b6020808252825182820181905260009190848201906040850190845b8181101561192757835183529284019291840191600101611995565b6020808252601f908201527f696e76616c696420617267756d656e74202d207a65726f206164647265737300604082015260600190565b60208082526025908201527f63616e6e6f742068617665206d6f7265207468616e20313520636c61696d20746040820152646f7069637360d81b606082015260800190565b634e487b7160e01b600052603260045260246000fd5b634e487b7160e01b600052601160045260246000fd5b8181038181111561080f5761080f611a43565b634e487b7160e01b600052603160045260246000fd5b600060018201611a9457611a94611a43565b5060010190565b6020808252810182905260006001600160fb1b03831115611abb57600080fd5b8260051b80856040850137919091016040019392505050565b634e487b7160e01b600052604160045260246000fd5b604051601f8201601f1916810167ffffffffffffffff81118282101715611b1357611b13611ad4565b604052919050565b60006020808385031215611b2e57600080fd5b825167ffffffffffffffff80821115611b4657600080fd5b818501915085601f830112611b5a57600080fd5b815181811115611b6c57611b6c611ad4565b8060051b9150611b7d848301611aea565b8181529183018401918481019088841115611b9757600080fd5b938501935b83851015611bc15784519250611bb183611804565b8282529385019390850190611b9c565b98975050505050505050565b60005b83811015611be8578181015183820152602001611bd0565b50506000910152565b600067ffffffffffffffff831115611c0b57611c0b611ad4565b611c1e601f8401601f1916602001611aea565b9050828152838383011115611c3257600080fd5b611950836020830184611bcd565b600082601f830112611c5157600080fd5b61195083835160208501611bf1565b60008060008060008060c08789031215611c7957600080fd5b86519550602087015194506040870151611c9281611804565b606088015190945067ffffffffffffffff80821115611cb057600080fd5b611cbc8a838b01611c40565b94506080890151915080821115611cd257600080fd5b611cde8a838b01611c40565b935060a0890151915080821115611cf457600080fd5b508701601f81018913611d0657600080fd5b611d1589825160208401611bf1565b9150509295509295509295565b60008151808452611d3a816020860160208601611bcd565b601f01601f19169290920160200192915050565b60018060a01b0385168152836020820152608060408201526000611d756080830185611d22565b8281036060840152611d878185611d22565b979650505050505050565b600060208284031215611da457600080fd5b8151801515811461195057600080fdfea264697066735822122014aa3b4c380eb59c9df38292285d5ade9d110da7aed7dc32f7faf374090d540664736f6c63430008130033",
  "linkReferences": {},
  "deployedLinkReferences": {}
}