{
  "_format": "hh-sol-artifact-1",
  "contractName": "IdFactoryAccessControl",
  "sourceName": "contracts/onchain-id/factory/IdFactoryAccessControl.sol",
  "abi": [
    {
      "inputs": [
        {
          "internalType": "address",
          "name": "implementationAuthority",
          "type": "address"
        }
      ],
      "stateMutability": "nonpayable",
      "type": "constructor"
    },
    {
      "anonymous": false,
      "inputs": [
        {
          "indexed": true,
          "internalType": "address",
          "name": "_addr",
          "type": "address"
        }
      ],
      "name": "Deployed",
      "type": "event"
    },
    {
      "anonymous": false,
      "inputs": [
        {
          "indexed": true,
          "internalType": "address",
          "name": "previousOwner",
          "type": "address"
        },
        {
          "indexed": true,
          "internalType": "address",
          "name": "newOwner",
          "type": "address"
        }
      ],
      "name": "OwnershipTransferred",
      "type": "event"
    },
    {
      "anonymous": false,
      "inputs": [
        {
          "indexed": true,
          "internalType": "bytes32",
          "name": "role",
          "type": "bytes32"
        },
        {
          "indexed": true,
          "internalType": "bytes32",
          "name": "previousAdminRole",
          "type": "bytes32"
        },
        {
          "indexed": true,
          "internalType": "bytes32",
          "name": "newAdminRole",
          "type": "bytes32"
        }
      ],
      "name": "RoleAdminChanged",
      "type": "event"
    },
    {
      "anonymous": false,
      "inputs": [
        {
          "indexed": true,
          "internalType": "bytes32",
          "name": "role",
          "type": "bytes32"
        },
        {
          "indexed": true,
          "internalType": "address",
          "name": "account",
          "type": "address"
        },
        {
          "indexed": true,
          "internalType": "address",
          "name": "sender",
          "type": "address"
        }
      ],
      "name": "RoleGranted",
      "type": "event"
    },
    {
      "anonymous": false,
      "inputs": [
        {
          "indexed": true,
          "internalType": "bytes32",
          "name": "role",
          "type": "bytes32"
        },
        {
          "indexed": true,
          "internalType": "address",
          "name": "account",
          "type": "address"
        },
        {
          "indexed": true,
          "internalType": "address",
          "name": "sender",
          "type": "address"
        }
      ],
      "name": "RoleRevoked",
      "type": "event"
    },
    {
      "anonymous": false,
      "inputs": [
        {
          "indexed": true,
          "internalType": "address",
          "name": "factory",
          "type": "address"
        }
      ],
      "name": "TokenFactoryAdded",
      "type": "event"
    },
    {
      "anonymous": false,
      "inputs": [
        {
          "indexed": true,
          "internalType": "address",
          "name": "factory",
          "type": "address"
        }
      ],
      "name": "TokenFactoryRemoved",
      "type": "event"
    },
    {
      "anonymous": false,
      "inputs": [
        {
          "indexed": true,
          "internalType": "address",
          "name": "token",
          "type": "address"
        },
        {
          "indexed": true,
          "internalType": "address",
          "name": "identity",
          "type": "address"
        }
      ],
      "name": "TokenLinked",
      "type": "event"
    },
    {
      "anonymous": false,
      "inputs": [
        {
          "indexed": true,
          "internalType": "address",
          "name": "wallet",
          "type": "address"
        },
        {
          "indexed": true,
          "internalType": "address",
          "name": "identity",
          "type": "address"
        }
      ],
      "name": "WalletLinked",
      "type": "event"
    },
    {
      "anonymous": false,
      "inputs": [
        {
          "indexed": true,
          "internalType": "address",
          "name": "wallet",
          "type": "address"
        },
        {
          "indexed": true,
          "internalType": "address",
          "name": "identity",
          "type": "address"
        }
      ],
      "name": "WalletUnlinked",
      "type": "event"
    },
    {
      "inputs": [],
      "name": "DEFAULT_ADMIN_ROLE",
      "outputs": [
        {
          "internalType": "bytes32",
          "name": "",
          "type": "bytes32"
        }
      ],
      "stateMutability": "view",
      "type": "function"
    },
    {
      "inputs": [],
      "name": "IDENTITY_MANAGER_ROLE",
      "outputs": [
        {
          "internalType": "bytes32",
          "name": "",
          "type": "bytes32"
        }
      ],
      "stateMutability": "view",
      "type": "function"
    },
    {
      "inputs": [
        {
          "internalType": "address",
          "name": "_factory",
          "type": "address"
        }
      ],
      "name": "addTokenFactory",
      "outputs": [],
      "stateMutability": "nonpayable",
      "type": "function"
    },
    {
      "inputs": [
        {
          "internalType": "address",
          "name": "_wallet",
          "type": "address"
        },
        {
          "internalType": "string",
          "name": "_salt",
          "type": "string"
        }
      ],
      "name": "createIdentity",
      "outputs": [
        {
          "internalType": "address",
          "name": "",
          "type": "address"
        }
      ],
      "stateMutability": "nonpayable",
      "type": "function"
    },
    {
      "inputs": [
        {
          "internalType": "address",
          "name": "_wallet",
          "type": "address"
        },
        {
          "internalType": "string",
          "name": "_salt",
          "type": "string"
        },
        {
          "internalType": "bytes32[]",
          "name": "_managementKeys",
          "type": "bytes32[]"
        }
      ],
      "name": "createIdentityWithManagementKeys",
      "outputs": [
        {
          "internalType": "address",
          "name": "",
          "type": "address"
        }
      ],
      "stateMutability": "nonpayable",
      "type": "function"
    },
    {
      "inputs": [
        {
          "internalType": "address",
          "name": "_token",
          "type": "address"
        },
        {
          "internalType": "address",
          "name": "_tokenOwner",
          "type": "address"
        },
        {
          "internalType": "string",
          "name": "_salt",
          "type": "string"
        }
      ],
      "name": "createTokenIdentity",
      "outputs": [
        {
          "internalType": "address",
          "name": "",
          "type": "address"
        }
      ],
      "stateMutability": "nonpayable",
      "type": "function"
    },
    {
      "inputs": [
        {
          "internalType": "address",
          "name": "_wallet",
          "type": "address"
        }
      ],
      "name": "getIdentity",
      "outputs": [
        {
          "internalType": "address",
          "name": "",
          "type": "address"
        }
      ],
      "stateMutability": "view",
      "type": "function"
    },
    {
      "inputs": [
        {
          "internalType": "bytes32",
          "name": "role",
          "type": "bytes32"
        }
      ],
      "name": "getRoleAdmin",
      "outputs": [
        {
          "internalType": "bytes32",
          "name": "",
          "type": "bytes32"
        }
      ],
      "stateMutability": "view",
      "type": "function"
    },
    {
      "inputs": [
        {
          "internalType": "address",
          "name": "_identity",
          "type": "address"
        }
      ],
      "name": "getToken",
      "outputs": [
        {
          "internalType": "address",
          "name": "",
          "type": "address"
        }
      ],
      "stateMutability": "view",
      "type": "function"
    },
    {
      "inputs": [
        {
          "internalType": "address",
          "name": "_identity",
          "type": "address"
        }
      ],
      "name": "getWallets",
      "outputs": [
        {
          "internalType": "address[]",
          "name": "",
          "type": "address[]"
        }
      ],
      "stateMutability": "view",
      "type": "function"
    },
    {
      "inputs": [
        {
          "internalType": "bytes32",
          "name": "role",
          "type": "bytes32"
        },
        {
          "internalType": "address",
          "name": "account",
          "type": "address"
        }
      ],
      "name": "grantRole",
      "outputs": [],
      "stateMutability": "nonpayable",
      "type": "function"
    },
    {
      "inputs": [
        {
          "internalType": "bytes32",
          "name": "role",
          "type": "bytes32"
        },
        {
          "internalType": "address",
          "name": "account",
          "type": "address"
        }
      ],
      "name": "hasRole",
      "outputs": [
        {
          "internalType": "bool",
          "name": "",
          "type": "bool"
        }
      ],
      "stateMutability": "view",
      "type": "function"
    },
    {
      "inputs": [
        {
          "internalType": "string",
          "name": "_salt",
          "type": "string"
        }
      ],
      "name": "isSaltTaken",
      "outputs": [
        {
          "internalType": "bool",
          "name": "",
          "type": "bool"
        }
      ],
      "stateMutability": "view",
      "type": "function"
    },
    {
      "inputs": [
        {
          "internalType": "address",
          "name": "_factory",
          "type": "address"
        }
      ],
      "name": "isTokenFactory",
      "outputs": [
        {
          "internalType": "bool",
          "name": "",
          "type": "bool"
        }
      ],
      "stateMutability": "view",
      "type": "function"
    },
    {
      "inputs": [
        {
          "internalType": "address",
          "name": "_newWallet",
          "type": "address"
        }
      ],
      "name": "linkWallet",
      "outputs": [],
      "stateMutability": "nonpayable",
      "type": "function"
    },
    {
      "inputs": [],
      "name": "owner",
      "outputs": [
        {
          "internalType": "address",
          "name": "",
          "type": "address"
        }
      ],
      "stateMutability": "view",
      "type": "function"
    },
    {
      "inputs": [
        {
          "internalType": "address",
          "name": "_factory",
          "type": "address"
        }
      ],
      "name": "removeTokenFactory",
      "outputs": [],
      "stateMutability": "nonpayable",
      "type": "function"
    },
    {
      "inputs": [],
      "name": "renounceOwnership",
      "outputs": [],
      "stateMutability": "nonpayable",
      "type": "function"
    },
    {
      "inputs": [
        {
          "internalType": "bytes32",
          "name": "role",
          "type": "bytes32"
        },
        {
          "internalType": "address",
          "name": "account",
          "type": "address"
        }
      ],
      "name": "renounceRole",
      "outputs": [],
      "stateMutability": "nonpayable",
      "type": "function"
    },
    {
      "inputs": [
        {
          "internalType": "bytes32",
          "name": "role",
          "type": "bytes32"
        },
        {
          "internalType": "address",
          "name": "account",
          "type": "address"
        }
      ],
      "name": "revokeRole",
      "outputs": [],
      "stateMutability": "nonpayable",
      "type": "function"
    },
    {
      "inputs": [
        {
          "internalType": "bytes4",
          "name": "interfaceId",
          "type": "bytes4"
        }
      ],
      "name": "supportsInterface",
      "outputs": [
        {
          "internalType": "bool",
          "name": "",
          "type": "bool"
        }
      ],
      "stateMutability": "view",
      "type": "function"
    },
    {
      "inputs": [
        {
          "internalType": "address",
          "name": "newOwner",
          "type": "address"
        }
      ],
      "name": "transferOwnership",
      "outputs": [],
      "stateMutability": "nonpayable",
      "type": "function"
    },
    {
      "inputs": [
        {
          "internalType": "address",
          "name": "_oldWallet",
          "type": "address"
        }
      ],
      "name": "unlinkWallet",
      "outputs": [],
      "stateMutability": "nonpayable",
      "type": "function"
    }
  ],
  "bytecode": "0x60a06040523480156200001157600080fd5b5060405162002aff38038062002aff8339810160408190526200003491620001c0565b6200003f33620000e7565b6001600160a01b0381166200009a5760405162461bcd60e51b815260206004820152601f60248201527f696e76616c696420617267756d656e74202d207a65726f206164647265737300604482015260640160405180910390fd5b6001600160a01b038116608052620000b460003362000137565b620000e07f6f4ec491520a619d027305ac474684693a3aa2bc30b42428035171ecb53bb4ad3362000137565b50620001f2565b600080546001600160a01b038381166001600160a01b0319831681178455604051919092169283917f8be0079c531659141344cd1fd0a4f28419497f9722a3daafe3b4186f6b6457e09190a35050565b60008281526001602090815260408083206001600160a01b038516845290915290205460ff16620001bc5760008281526001602081815260408084206001600160a01b0386168086529252808420805460ff19169093179092559051339285917f2f8788117e7eff1d82e926ec794901d17c78024a50270940304540a733656f0d9190a45b5050565b600060208284031215620001d357600080fd5b81516001600160a01b0381168114620001eb57600080fd5b9392505050565b6080516128e36200021c600039600081816107b001528181610d45015261150b01526128e36000f3fe60806040523480156200001157600080fd5b5060043610620001695760003560e01c80635977043811620000d35780639ce1936511620000865780639ce193651462000382578063a217fddf1462000399578063b8bb812614620003a2578063d547741f14620003b9578063f2fde38b14620003d0578063fe5cd59a14620003e757600080fd5b80635977043814620002f2578063715018a614620003215780638da5cb5b146200032b5780638e952bfe146200033d57806391d148541462000354578063937529ef146200036b57600080fd5b806336568abe116200012c57806336568abe14620002415780633a50045114620002585780633d56ff66146200026f5780633e3bc3d71462000286578063422c29a414620002b55780635027dbe214620002db57600080fd5b806301ffc9a7146200016e5780630b8442cb146200019a578063248a9ca314620001d15780632f2ff15d14620001f85780632fea7b811462000211575b600080fd5b620001856200017f36600462001cfa565b620003fe565b60405190151581526020015b60405180910390f35b620001c27f6f4ec491520a619d027305ac474684693a3aa2bc30b42428035171ecb53bb4ad81565b60405190815260200162000191565b620001c2620001e236600462001d26565b6000908152600160208190526040909120015490565b6200020f6200020936600462001d58565b62000436565b005b620002286200022236600462001d87565b62000465565b6040516001600160a01b03909116815260200162000191565b6200020f6200025236600462001d58565b620004cb565b620001856200026936600462001da5565b62000551565b620002286200028036600462001edd565b62000582565b620001856200029736600462001d87565b6001600160a01b031660009081526002602052604090205460ff1690565b620002cc620002c636600462001d87565b6200087e565b60405162000191919062001f43565b6200020f620002ec36600462001d87565b620008f6565b620002286200030336600462001d87565b6001600160a01b039081166000908152600760205260409020541690565b6200020f62000bce565b6000546001600160a01b031662000228565b620002286200034e36600462001f92565b62000be6565b620001856200036536600462001d58565b62000e23565b6200020f6200037c36600462001d87565b62000e4e565b6200020f6200039336600462001d87565b62000f24565b620001c2600081565b6200020f620003b336600462001d87565b62001002565b6200020f620003ca36600462001d58565b62001280565b6200020f620003e136600462001d87565b620012aa565b62000228620003f836600462001fe6565b62001329565b60006001600160e01b03198216637965db0b60e01b14806200043057506301ffc9a760e01b6001600160e01b03198316145b92915050565b6000828152600160208190526040909120015462000454816200180c565b62000460838362001818565b505050565b6001600160a01b0381811660009081526006602052604081205490911615620004a757506001600160a01b039081166000908152600660205260409020541690565b506001600160a01b039081166000908152600460205260409020541690565b919050565b6001600160a01b0381163314620005415760405162461bcd60e51b815260206004820152602f60248201527f416363657373436f6e74726f6c3a2063616e206f6e6c792072656e6f756e636560448201526e103937b632b9903337b91039b2b63360891b60648201526084015b60405180910390fd5b6200054d828262001886565b5050565b60006003838360405162000567929190620020d3565b9081526040519081900360200190205460ff16905092915050565b3360009081526002602052604081205460ff1680620005ab57506000546001600160a01b031633145b620005f95760405162461bcd60e51b815260206004820152601e60248201527f6f6e6c7920466163746f7279206f72206f776e65722063616e2063616c6c0000604482015260640162000538565b6001600160a01b038416620006225760405162461bcd60e51b81526004016200053890620020e3565b6001600160a01b0383166200064b5760405162461bcd60e51b81526004016200053890620020e3565b6040516020016200066790602080825260009082015260400190565b604051602081830303815290604052805190602001208260405160200162000690919062002140565b6040516020818303038152906040528051906020012003620006c65760405162461bcd60e51b8152600401620005389062002175565b600082604051602001620006db9190620021ac565b6040516020818303038152906040529050600381604051620006fe9190620021db565b9081526040519081900360200190205460ff1615620007315760405162461bcd60e51b81526004016200053890620021f9565b6001600160a01b038581166000908152600660205260409020541615620007a75760405162461bcd60e51b815260206004820152602360248201527f746f6b656e20616c7265616479206c696e6b656420746f20616e206964656e7460448201526269747960e81b606482015260840162000538565b6000620007d6827f000000000000000000000000000000000000000000000000000000000000000087620018f0565b90506001600383604051620007ec9190620021db565b9081526040805160209281900383018120805460ff1916941515949094179093556001600160a01b0389811660008181526006855283812080546001600160a01b0319908116948916948517909155838252600790955292832080549094168117909355927fa8261d398ddc63db24cc53cd0c63c9464cabad1bc478ede2107b32c1c4010b7a9190a395945050505050565b6001600160a01b038116600090815260056020908152604091829020805483518184028101840190945280845260609392830182828015620008ea57602002820191906000526020600020905b81546001600160a01b03168152600190910190602001808311620008cb575b50505050509050919050565b6001600160a01b0381166200091f5760405162461bcd60e51b81526004016200053890620020e3565b336001600160a01b03821603620009845760405162461bcd60e51b815260206004820152602260248201527f63616e6e6f742062652063616c6c6564206f6e2073656e646572206164647265604482015261737360f01b606482015260840162000538565b6001600160a01b03808216600090815260046020526040808220543383529120548216911614620009f85760405162461bcd60e51b815260206004820152601f60248201527f6f6e6c792061206c696e6b65642077616c6c65742063616e20756e6c696e6b00604482015260640162000538565b6001600160a01b03808216600090815260046020908152604080832080546001600160a01b03198116909155909316808352600590915291812054905b8181101562000b88576001600160a01b0383811660009081526005602052604090208054918616918390811062000a705762000a7062002225565b6000918252602090912001546001600160a01b03160362000b73576001600160a01b038316600090815260056020526040902062000ab060018462002251565b8154811062000ac35762000ac362002225565b60009182526020808320909101546001600160a01b0386811684526005909252604090922080549190921691908390811062000b035762000b0362002225565b600091825260208083209190910180546001600160a01b0319166001600160a01b03948516179055918516815260059091526040902080548062000b4b5762000b4b62002267565b600082815260209020810160001990810180546001600160a01b031916905501905562000b88565b8062000b7f816200227d565b91505062000a35565b50816001600160a01b0316836001600160a01b03167f35e6fc363a4bf723d53b26c1a751674aca9c3ead425f0591f84f5540ede86f1260405160405180910390a3505050565b62000bd862001980565b62000be46000620019dc565b565b600062000bf262001980565b6001600160a01b03831662000c1b5760405162461bcd60e51b81526004016200053890620020e3565b60405160200162000c3790602080825260009082015260400190565b604051602081830303815290604052805190602001208260405160200162000c60919062002140565b604051602081830303815290604052805190602001200362000c965760405162461bcd60e51b8152600401620005389062002175565b60008260405160200162000cab919062002299565b604051602081830303815290604052905060038160405162000cce9190620021db565b9081526040519081900360200190205460ff161562000d015760405162461bcd60e51b81526004016200053890620021f9565b6001600160a01b03848116600090815260046020526040902054161562000d3c5760405162461bcd60e51b81526004016200053890620022c6565b600062000d6b827f000000000000000000000000000000000000000000000000000000000000000087620018f0565b9050600160038360405162000d819190620021db565b9081526040805160209281900383018120805460ff1916941515949094179093556001600160a01b0388811660008181526004855283812080546001600160a01b0319908116948916948517909155838252600586529381208054600181018255908252948120909401805490931681179092559290917f8e0c709111388f5480579514d86663489ab1f206fe6da1a0c4d03ac8c318b3c691a3949350505050565b60009182526001602090815260408084206001600160a01b0393909316845291905290205460ff1690565b62000e5862001980565b6001600160a01b03811662000e815760405162461bcd60e51b81526004016200053890620020e3565b6001600160a01b03811660009081526002602052604090205460ff1662000edb5760405162461bcd60e51b815260206004820152600d60248201526c6e6f74206120666163746f727960981b604482015260640162000538565b6001600160a01b038116600081815260026020526040808220805460ff19169055517fd1fd5274f793d20291c0abfe42e1ef63213a11b34996d485f7afb8fe014248519190a250565b62000f2e62001980565b6001600160a01b03811662000f575760405162461bcd60e51b81526004016200053890620020e3565b6001600160a01b03811660009081526002602052604090205460ff161562000fb65760405162461bcd60e51b8152602060048201526011602482015270616c7265616479206120666163746f727960781b604482015260640162000538565b6001600160a01b038116600081815260026020526040808220805460ff19166001179055517f45eb8ac5344d2d3f306550fe6e969ca4190526313c512afed851d052bf2ab2fd9190a250565b6001600160a01b0381166200102b5760405162461bcd60e51b81526004016200053890620020e3565b336000908152600460205260409020546001600160a01b0316620010a45760405162461bcd60e51b815260206004820152602960248201527f77616c6c6574206e6f74206c696e6b656420746f20616e206964656e746974796044820152680818dbdb9d1c9858dd60ba1b606482015260840162000538565b6001600160a01b0381811660009081526004602052604090205416156200110e5760405162461bcd60e51b815260206004820152601960248201527f6e65772077616c6c657420616c7265616479206c696e6b656400000000000000604482015260640162000538565b6001600160a01b038181166000908152600660205260409020541615620011785760405162461bcd60e51b815260206004820181905260248201527f696e76616c696420617267756d656e74202d20746f6b656e2061646472657373604482015260640162000538565b336000908152600460209081526040808320546001600160a01b0316808452600590925290912054606511620011ff5760405162461bcd60e51b815260206004820152602560248201527f6d617820616d6f756e74206f662077616c6c6574732070657220494420657863604482015264195959195960da1b606482015260840162000538565b6001600160a01b03808316600081815260046020908152604080832080549587166001600160a01b031996871681179091558084526005835281842080546001810182559085529284209092018054909516841790945592517f8e0c709111388f5480579514d86663489ab1f206fe6da1a0c4d03ac8c318b3c69190a35050565b600082815260016020819052604090912001546200129e816200180c565b62000460838362001886565b620012b462001980565b6001600160a01b0381166200131b5760405162461bcd60e51b815260206004820152602660248201527f4f776e61626c653a206e6577206f776e657220697320746865207a65726f206160448201526564647265737360d01b606482015260840162000538565b6200132681620019dc565b50565b60007f6f4ec491520a619d027305ac474684693a3aa2bc30b42428035171ecb53bb4ad62001357816200180c565b6001600160a01b038516620013805760405162461bcd60e51b81526004016200053890620020e3565b6040516020016200139c90602080825260009082015260400190565b6040516020818303038152906040528051906020012084604051602001620013c5919062002140565b6040516020818303038152906040528051906020012003620013fb5760405162461bcd60e51b8152600401620005389062002175565b60008460405160200162001410919062002299565b6040516020818303038152906040529050600381604051620014339190620021db565b9081526040519081900360200190205460ff1615620014665760405162461bcd60e51b81526004016200053890620021f9565b6001600160a01b038681166000908152600460205260409020541615620014a15760405162461bcd60e51b81526004016200053890620022c6565b6000845111620015025760405162461bcd60e51b815260206004820152602560248201527f696e76616c696420617267756d656e74202d20656d707479206c697374206f66604482015264206b65797360d81b606482015260840162000538565b600062001531827f000000000000000000000000000000000000000000000000000000000000000030620018f0565b905060005b8551811015620016b757604080516001600160a01b038a16602082015201604051602081830303815290604052805190602001208682815181106200157f576200157f62002225565b602002602001015103620015fc5760405162461bcd60e51b815260206004820152603b60248201527f696e76616c696420617267756d656e74202d2077616c6c657420697320616c7360448201527f6f206c697374656420696e206d616e6167656d656e74206b6579730000000000606482015260840162000538565b816001600160a01b0316631d38124087838151811062001620576200162062002225565b60200260200101516001806040518463ffffffff1660e01b81526004016200165b939291909283526020830191909152604082015260600190565b6020604051808303816000875af11580156200167b573d6000803e3d6000fd5b505050506040513d601f19601f82011682018060405250810190620016a191906200230a565b5080620016ae816200227d565b91505062001536565b50604080513060208201526001600160a01b038316916353d413c5910160408051601f198184030181529082905280516020909101206001600160e01b031960e084901b1682526004820152600160248201526044016020604051808303816000875af11580156200172d573d6000803e3d6000fd5b505050506040513d601f19601f820116820180604052508101906200175391906200230a565b506001600383604051620017689190620021db565b9081526040805160209281900383018120805460ff1916941515949094179093556001600160a01b038a811660008181526004855283812080546001600160a01b0319908116948916948517909155838252600586529381208054600181018255908252948120909401805490931681179092559290917f8e0c709111388f5480579514d86663489ab1f206fe6da1a0c4d03ac8c318b3c691a39695505050505050565b62001326813362001a2c565b62001824828262000e23565b6200054d5760008281526001602081815260408084206001600160a01b0386168086529252808420805460ff19169093179092559051339285917f2f8788117e7eff1d82e926ec794901d17c78024a50270940304540a733656f0d9190a45050565b62001892828262000e23565b156200054d5760008281526001602090815260408083206001600160a01b0385168085529252808320805460ff1916905551339285917ff6391f5c32d9c69d2a47ea670b442974b53935d1edc7fd64eb21e047a839171b9190a45050565b60008060405180602001620019059062001cec565b601f1982820381018352601f9091011660408181526001600160a01b038781166020840152861681830152805180830382018152606083019091529192506000906200195890849084906080016200232e565b604051602081830303815290604052905062001975878262001a90565b979650505050505050565b6000546001600160a01b0316331462000be45760405162461bcd60e51b815260206004820181905260248201527f4f776e61626c653a2063616c6c6572206973206e6f7420746865206f776e6572604482015260640162000538565b600080546001600160a01b038381166001600160a01b0319831681178455604051919092169283917f8be0079c531659141344cd1fd0a4f28419497f9722a3daafe3b4186f6b6457e09190a35050565b62001a38828262000e23565b6200054d5762001a488162001b18565b62001a5583602062001b2b565b60405160200162001a6892919062002361565b60408051601f198184030181529082905262461bcd60e51b8252620005389160040162002140565b6000808360405160200162001aa69190620021db565b60405160208183030381529060405280519060200120905060008360200184518381836000f592505050803b62001adc57600080fd5b6040516001600160a01b038216907ff40fcec21964ffb566044d083b4073f29f7f7929110ea19e1b3ebe375d89055e90600090a2949350505050565b6060620004306001600160a01b03831660145b6060600062001b3c836002620023da565b62001b49906002620023f4565b67ffffffffffffffff81111562001b645762001b6462001e1c565b6040519080825280601f01601f19166020018201604052801562001b8f576020820181803683370190505b509050600360fc1b8160008151811062001bad5762001bad62002225565b60200101906001600160f81b031916908160001a905350600f60fb1b8160018151811062001bdf5762001bdf62002225565b60200101906001600160f81b031916908160001a905350600062001c05846002620023da565b62001c12906001620023f4565b90505b600181111562001c94576f181899199a1a9b1b9c1cb0b131b232b360811b85600f166010811062001c4a5762001c4a62002225565b1a60f81b82828151811062001c635762001c6362002225565b60200101906001600160f81b031916908160001a90535060049490941c9362001c8c816200240a565b905062001c15565b50831562001ce55760405162461bcd60e51b815260206004820181905260248201527f537472696e67733a20686578206c656e67746820696e73756666696369656e74604482015260640162000538565b9392505050565b610489806200242583390190565b60006020828403121562001d0d57600080fd5b81356001600160e01b03198116811462001ce557600080fd5b60006020828403121562001d3957600080fd5b5035919050565b80356001600160a01b0381168114620004c657600080fd5b6000806040838503121562001d6c57600080fd5b8235915062001d7e6020840162001d40565b90509250929050565b60006020828403121562001d9a57600080fd5b62001ce58262001d40565b6000806020838503121562001db957600080fd5b823567ffffffffffffffff8082111562001dd257600080fd5b818501915085601f83011262001de757600080fd5b81358181111562001df757600080fd5b86602082850101111562001e0a57600080fd5b60209290920196919550909350505050565b634e487b7160e01b600052604160045260246000fd5b604051601f8201601f1916810167ffffffffffffffff8111828210171562001e5e5762001e5e62001e1c565b604052919050565b600082601f83011262001e7857600080fd5b813567ffffffffffffffff81111562001e955762001e9562001e1c565b62001eaa601f8201601f191660200162001e32565b81815284602083860101111562001ec057600080fd5b816020850160208301376000918101602001919091529392505050565b60008060006060848603121562001ef357600080fd5b62001efe8462001d40565b925062001f0e6020850162001d40565b9150604084013567ffffffffffffffff81111562001f2b57600080fd5b62001f398682870162001e66565b9150509250925092565b6020808252825182820181905260009190848201906040850190845b8181101562001f865783516001600160a01b03168352928401929184019160010162001f5f565b50909695505050505050565b6000806040838503121562001fa657600080fd5b62001fb18362001d40565b9150602083013567ffffffffffffffff81111562001fce57600080fd5b62001fdc8582860162001e66565b9150509250929050565b60008060006060848603121562001ffc57600080fd5b620020078462001d40565b925060208085013567ffffffffffffffff808211156200202657600080fd5b620020348883890162001e66565b945060408701359150808211156200204b57600080fd5b818701915087601f8301126200206057600080fd5b81358181111562002075576200207562001e1c565b8060051b91506200208884830162001e32565b818152918301840191848101908a841115620020a357600080fd5b938501935b83851015620020c357843582529385019390850190620020a8565b8096505050505050509250925092565b8183823760009101908152919050565b6020808252601f908201527f696e76616c696420617267756d656e74202d207a65726f206164647265737300604082015260600190565b60005b83811015620021375781810151838201526020016200211d565b50506000910152565b6020815260008251806020840152620021618160408501602087016200211a565b601f01601f19169190910160400192915050565b6020808252601f908201527f696e76616c696420617267756d656e74202d20656d70747920737472696e6700604082015260600190565b642a37b5b2b760d91b815260008251620021ce8160058501602087016200211a565b9190910160050192915050565b60008251620021ef8184602087016200211a565b9190910192915050565b60208082526012908201527139b0b63a1030b63932b0b23c903a30b5b2b760711b604082015260600190565b634e487b7160e01b600052603260045260246000fd5b634e487b7160e01b600052601160045260246000fd5b818103818111156200043057620004306200223b565b634e487b7160e01b600052603160045260246000fd5b6000600182016200229257620022926200223b565b5060010190565b6213d25160ea1b815260008251620022b98160038501602087016200211a565b9190910160030192915050565b60208082526024908201527f77616c6c657420616c7265616479206c696e6b656420746f20616e206964656e6040820152637469747960e01b606082015260800190565b6000602082840312156200231d57600080fd5b8151801515811462001ce557600080fd5b60008351620023428184602088016200211a565b835190830190620023588183602088016200211a565b01949350505050565b7f416363657373436f6e74726f6c3a206163636f756e74200000000000000000008152600083516200239b8160178501602088016200211a565b7001034b99036b4b9b9b4b733903937b6329607d1b6017918401918201528351620023ce8160288401602088016200211a565b01602801949350505050565b80820281158282048414176200043057620004306200223b565b808201808211156200043057620004306200223b565b6000816200241c576200241c6200223b565b50600019019056fe608060405234801561001057600080fd5b5060405161048938038061048983398101604081905261002f91610271565b6001600160a01b03821661008a5760405162461bcd60e51b815260206004820152601f60248201527f696e76616c696420617267756d656e74202d207a65726f20616464726573730060448201526064015b60405180910390fd5b6001600160a01b0381166100e05760405162461bcd60e51b815260206004820152601f60248201527f696e76616c696420617267756d656e74202d207a65726f2061646472657373006044820152606401610081565b817fc5f16f0fcc639fa48a6947836d9850f504798523bf8c9a3a87d5876cf622bcf7556000826001600160a01b031663aaf10f426040518163ffffffff1660e01b8152600401602060405180830381865afa158015610143573d6000803e3d6000fd5b505050506040513d601f19601f8201168201806040525081019061016791906102a4565b6040516001600160a01b03848116602483015291925060009183169060440160408051601f198184030181529181526020820180516001600160e01b031663189acdbd60e31b179052516101bb91906102c6565b600060405180830381855af49150503d80600081146101f6576040519150601f19603f3d011682016040523d82523d6000602084013e6101fb565b606091505b505090508061024c5760405162461bcd60e51b815260206004820152601660248201527f496e697469616c697a6174696f6e206661696c65642e000000000000000000006044820152606401610081565b505050506102f5565b80516001600160a01b038116811461026c57600080fd5b919050565b6000806040838503121561028457600080fd5b61028d83610255565b915061029b60208401610255565b90509250929050565b6000602082840312156102b657600080fd5b6102bf82610255565b9392505050565b6000825160005b818110156102e757602081860181015185830152016102cd565b506000920191825250919050565b610185806103046000396000f3fe60806040526004361061001e5760003560e01c80632307f882146100d4575b60006100487fc5f16f0fcc639fa48a6947836d9850f504798523bf8c9a3a87d5876cf622bcf75490565b6001600160a01b031663aaf10f426040518163ffffffff1660e01b8152600401602060405180830381865afa158015610085573d6000803e3d6000fd5b505050506040513d601f19601f820116820180604052508101906100a9919061011f565b90503660008037600080366000846127105a03f43d806000803e8180156100cf57816000f35b816000fd5b3480156100e057600080fd5b507fc5f16f0fcc639fa48a6947836d9850f504798523bf8c9a3a87d5876cf622bcf7546040516001600160a01b03909116815260200160405180910390f35b60006020828403121561013157600080fd5b81516001600160a01b038116811461014857600080fd5b939250505056fea264697066735822122068f7f4cfab99d61b883e9f8a5125d058fd4ce07bd9cc35d9143aefe58c6a447264736f6c63430008130033a264697066735822122055475e74de2b04b5380a22aca7cb1e76ef8ed68a7f84aa2aaea940b23ab2637764736f6c63430008130033",
  "linkReferences": {},
  "deployedLinkReferences": {}
}