{
  "_format": "hh-sol-artifact-1",
  "contractName": "ComplianceTpft",
  "sourceName": "contracts/branded-token/ComplianceTpft.sol",
  "abi": [
    {
      "inputs": [
        {
          "internalType": "uint16[]",
          "name": "countries",
          "type": "uint16[]"
        }
      ],
      "stateMutability": "nonpayable",
      "type": "constructor"
    },
    {
      "anonymous": false,
      "inputs": [
        {
          "indexed": false,
          "internalType": "uint16",
          "name": "_country",
          "type": "uint16"
        }
      ],
      "name": "AddedRestrictedCountry",
      "type": "event"
    },
    {
      "anonymous": false,
      "inputs": [
        {
          "indexed": true,
          "internalType": "address",
          "name": "_agent",
          "type": "address"
        }
      ],
      "name": "AgentAdded",
      "type": "event"
    },
    {
      "anonymous": false,
      "inputs": [
        {
          "indexed": true,
          "internalType": "address",
          "name": "_agent",
          "type": "address"
        }
      ],
      "name": "AgentRemoved",
      "type": "event"
    },
    {
      "anonymous": false,
      "inputs": [
        {
          "indexed": true,
          "internalType": "address",
          "name": "previousOwner",
          "type": "address"
        },
        {
          "indexed": true,
          "internalType": "address",
          "name": "newOwner",
          "type": "address"
        }
      ],
      "name": "OwnershipTransferred",
      "type": "event"
    },
    {
      "anonymous": false,
      "inputs": [
        {
          "indexed": false,
          "internalType": "uint16",
          "name": "_country",
          "type": "uint16"
        }
      ],
      "name": "RemovedRestrictedCountry",
      "type": "event"
    },
    {
      "anonymous": false,
      "inputs": [
        {
          "indexed": false,
          "internalType": "address",
          "name": "_agentAddress",
          "type": "address"
        }
      ],
      "name": "TokenAgentAdded",
      "type": "event"
    },
    {
      "anonymous": false,
      "inputs": [
        {
          "indexed": false,
          "internalType": "address",
          "name": "_agentAddress",
          "type": "address"
        }
      ],
      "name": "TokenAgentRemoved",
      "type": "event"
    },
    {
      "anonymous": false,
      "inputs": [
        {
          "indexed": false,
          "internalType": "address",
          "name": "_token",
          "type": "address"
        }
      ],
      "name": "TokenBound",
      "type": "event"
    },
    {
      "anonymous": false,
      "inputs": [
        {
          "indexed": false,
          "internalType": "address",
          "name": "_token",
          "type": "address"
        }
      ],
      "name": "TokenUnbound",
      "type": "event"
    },
    {
      "inputs": [
        {
          "internalType": "address",
          "name": "_agent",
          "type": "address"
        }
      ],
      "name": "addAgent",
      "outputs": [],
      "stateMutability": "nonpayable",
      "type": "function"
    },
    {
      "inputs": [
        {
          "internalType": "uint16",
          "name": "_country",
          "type": "uint16"
        }
      ],
      "name": "addCountryRestriction",
      "outputs": [],
      "stateMutability": "nonpayable",
      "type": "function"
    },
    {
      "inputs": [
        {
          "internalType": "address",
          "name": "_agentAddress",
          "type": "address"
        }
      ],
      "name": "addTokenAgent",
      "outputs": [],
      "stateMutability": "nonpayable",
      "type": "function"
    },
    {
      "inputs": [
        {
          "internalType": "uint16[]",
          "name": "_countries",
          "type": "uint16[]"
        }
      ],
      "name": "batchRestrictCountries",
      "outputs": [],
      "stateMutability": "nonpayable",
      "type": "function"
    },
    {
      "inputs": [
        {
          "internalType": "uint16[]",
          "name": "_countries",
          "type": "uint16[]"
        }
      ],
      "name": "batchUnrestrictCountries",
      "outputs": [],
      "stateMutability": "nonpayable",
      "type": "function"
    },
    {
      "inputs": [
        {
          "internalType": "address",
          "name": "_token",
          "type": "address"
        }
      ],
      "name": "bindToken",
      "outputs": [],
      "stateMutability": "nonpayable",
      "type": "function"
    },
    {
      "inputs": [
        {
          "internalType": "address",
          "name": "_from",
          "type": "address"
        },
        {
          "internalType": "address",
          "name": "_to",
          "type": "address"
        },
        {
          "internalType": "uint256",
          "name": "_value",
          "type": "uint256"
        }
      ],
      "name": "canTransfer",
      "outputs": [
        {
          "internalType": "bool",
          "name": "",
          "type": "bool"
        }
      ],
      "stateMutability": "view",
      "type": "function"
    },
    {
      "inputs": [
        {
          "internalType": "address",
          "name": "",
          "type": "address"
        },
        {
          "internalType": "address",
          "name": "_to",
          "type": "address"
        },
        {
          "internalType": "uint256",
          "name": "",
          "type": "uint256"
        }
      ],
      "name": "complianceCheckOnCountryRestrictions",
      "outputs": [
        {
          "internalType": "bool",
          "name": "",
          "type": "bool"
        }
      ],
      "stateMutability": "view",
      "type": "function"
    },
    {
      "inputs": [
        {
          "internalType": "address",
          "name": "_to",
          "type": "address"
        },
        {
          "internalType": "uint256",
          "name": "_value",
          "type": "uint256"
        }
      ],
      "name": "created",
      "outputs": [],
      "stateMutability": "nonpayable",
      "type": "function"
    },
    {
      "inputs": [
        {
          "internalType": "address",
          "name": "_from",
          "type": "address"
        },
        {
          "internalType": "uint256",
          "name": "_value",
          "type": "uint256"
        }
      ],
      "name": "destroyed",
      "outputs": [],
      "stateMutability": "nonpayable",
      "type": "function"
    },
    {
      "inputs": [
        {
          "internalType": "address",
          "name": "_agent",
          "type": "address"
        }
      ],
      "name": "isAgent",
      "outputs": [
        {
          "internalType": "bool",
          "name": "",
          "type": "bool"
        }
      ],
      "stateMutability": "view",
      "type": "function"
    },
    {
      "inputs": [
        {
          "internalType": "uint16",
          "name": "_country",
          "type": "uint16"
        }
      ],
      "name": "isCountryRestricted",
      "outputs": [
        {
          "internalType": "bool",
          "name": "",
          "type": "bool"
        }
      ],
      "stateMutability": "view",
      "type": "function"
    },
    {
      "inputs": [
        {
          "internalType": "address",
          "name": "_agentAddress",
          "type": "address"
        }
      ],
      "name": "isTokenAgent",
      "outputs": [
        {
          "internalType": "bool",
          "name": "",
          "type": "bool"
        }
      ],
      "stateMutability": "view",
      "type": "function"
    },
    {
      "inputs": [
        {
          "internalType": "address",
          "name": "_token",
          "type": "address"
        }
      ],
      "name": "isTokenBound",
      "outputs": [
        {
          "internalType": "bool",
          "name": "",
          "type": "bool"
        }
      ],
      "stateMutability": "view",
      "type": "function"
    },
    {
      "inputs": [],
      "name": "owner",
      "outputs": [
        {
          "internalType": "address",
          "name": "",
          "type": "address"
        }
      ],
      "stateMutability": "view",
      "type": "function"
    },
    {
      "inputs": [
        {
          "internalType": "address",
          "name": "_agent",
          "type": "address"
        }
      ],
      "name": "removeAgent",
      "outputs": [],
      "stateMutability": "nonpayable",
      "type": "function"
    },
    {
      "inputs": [
        {
          "internalType": "uint16",
          "name": "_country",
          "type": "uint16"
        }
      ],
      "name": "removeCountryRestriction",
      "outputs": [],
      "stateMutability": "nonpayable",
      "type": "function"
    },
    {
      "inputs": [
        {
          "internalType": "address",
          "name": "_agentAddress",
          "type": "address"
        }
      ],
      "name": "removeTokenAgent",
      "outputs": [],
      "stateMutability": "nonpayable",
      "type": "function"
    },
    {
      "inputs": [],
      "name": "renounceOwnership",
      "outputs": [],
      "stateMutability": "nonpayable",
      "type": "function"
    },
    {
      "inputs": [],
      "name": "tokenBound",
      "outputs": [
        {
          "internalType": "contract IToken",
          "name": "",
          "type": "address"
        }
      ],
      "stateMutability": "view",
      "type": "function"
    },
    {
      "inputs": [
        {
          "internalType": "address",
          "name": "newOwner",
          "type": "address"
        }
      ],
      "name": "transferOwnership",
      "outputs": [],
      "stateMutability": "nonpayable",
      "type": "function"
    },
    {
      "inputs": [
        {
          "internalType": "address",
          "name": "_from",
          "type": "address"
        },
        {
          "internalType": "address",
          "name": "_to",
          "type": "address"
        },
        {
          "internalType": "uint256",
          "name": "_value",
          "type": "uint256"
        }
      ],
      "name": "transferred",
      "outputs": [],
      "stateMutability": "nonpayable",
      "type": "function"
    },
    {
      "inputs": [
        {
          "internalType": "address",
          "name": "_token",
          "type": "address"
        }
      ],
      "name": "unbindToken",
      "outputs": [],
      "stateMutability": "nonpayable",
      "type": "function"
    }
  ],
  "bytecode": "0x60806040523480156200001157600080fd5b506040516200149b3803806200149b833981016040819052620000349162000249565b6200003f3362000051565b6200004a81620000a1565b5062000359565b600080546001600160a01b038381166001600160a01b0319831681178455604051919092169283917f8be0079c531659141344cd1fd0a4f28419497f9722a3daafe3b4186f6b6457e09190a35050565b60005b8151811015620000f057620000db828281518110620000c757620000c76200031b565b6020026020010151620000f460201b60201c565b80620000e78162000331565b915050620000a4565b5050565b620000fe620001bd565b61ffff811660009081526004602052604090205460ff1615620001685760405162461bcd60e51b815260206004820152601a60248201527f636f756e74727920616c7265616479207265737472696374656400000000000060448201526064015b60405180910390fd5b61ffff8116600081815260046020908152604091829020805460ff1916600117905590519182527f686ddf4acaa296f02dade9efd41d8a09a2eba14d730f9117404e6ffe6b96a018910160405180910390a150565b6000546001600160a01b03163314620002195760405162461bcd60e51b815260206004820181905260248201527f4f776e61626c653a2063616c6c6572206973206e6f7420746865206f776e657260448201526064016200015f565b565b634e487b7160e01b600052604160045260246000fd5b805161ffff811681146200024457600080fd5b919050565b600060208083850312156200025d57600080fd5b82516001600160401b03808211156200027557600080fd5b818501915085601f8301126200028a57600080fd5b8151818111156200029f576200029f6200021b565b8060051b604051601f19603f83011681018181108582111715620002c757620002c76200021b565b604052918252848201925083810185019188831115620002e657600080fd5b938501935b828510156200030f57620002ff8562000231565b84529385019392850192620002eb565b98975050505050505050565b634e487b7160e01b600052603260045260246000fd5b6000600182016200035257634e487b7160e01b600052601160045260246000fd5b5060010190565b61113280620003696000396000f3fe608060405234801561001057600080fd5b506004361061014d5760003560e01c80638d2ea772116100c3578063bdf9a07e1161007c578063bdf9a07e146102b3578063c7a4ecf8146102c6578063cdde2932146102d9578063e46638e6146102ec578063f2fde38b146102ff578063ff3e69541461031257600080fd5b80638d2ea772146101db5780638da5cb5b1461022e57806393e62f071461025357806397a6278e14610266578063993e8b9514610279578063bc4c85521461028c57600080fd5b806340db3b501161011557806340db3b50146101c85780635f8dead3146101db5780636aae7b26146101ed578063715018a61461020057806384e79842146102085780638baf29b41461021b57600080fd5b80630333ce24146101525780631ffbb06414610167578063249c981d1461018f578063346531fa146101a25780633ff5aa02146101b5575b600080fd5b610165610160366004610ecc565b610325565b005b61017a610175366004610efe565b6103ec565b60405190151581526020015b60405180910390f35b61016561019d366004610f31565b6103ff565b61017a6101b0366004610efe565b61043f565b6101656101c3366004610efe565b6104e8565b6101656101d6366004610efe565b6105c6565b6101656101e9366004610ff6565b5050565b6101656101fb366004610ecc565b6106e8565b610165610798565b610165610216366004610efe565b6107ac565b610165610229366004611022565b505050565b6000546001600160a01b03165b6040516001600160a01b039091168152602001610186565b60035461023b906001600160a01b031681565b610165610274366004610efe565b61084c565b61017a610287366004610efe565b6108ec565b61017a61029a366004610ecc565b61ffff1660009081526004602052604090205460ff1690565b6101656102c1366004610f31565b61090c565b61017a6102d4366004611022565b61094c565b6101656102e7366004610efe565b610993565b61017a6102fa366004611022565b610a54565b61016561030d366004610efe565b610a69565b610165610320366004610efe565b610ae2565b61032d610ba7565b61ffff811660009081526004602052604090205460ff16156103965760405162461bcd60e51b815260206004820152601a60248201527f636f756e74727920616c7265616479207265737472696374656400000000000060448201526064015b60405180910390fd5b61ffff8116600081815260046020908152604091829020805460ff1916600117905590519182527f686ddf4acaa296f02dade9efd41d8a09a2eba14d730f9117404e6ffe6b96a01891015b60405180910390a150565b60006103f9600183610c01565b92915050565b60005b81518110156101e95761042d82828151811061042057610420611063565b60200260200101516106e8565b8061043781611079565b915050610402565b6001600160a01b03811660009081526002602052604081205460ff161580156104d357506003546040516307feec1960e21b81526001600160a01b03848116600483015290911690631ffbb06490602401602060405180830381865afa1580156104ad573d6000803e3d6000fd5b505050506040513d601f19601f820116820180604052508101906104d191906110a0565b155b156104e057506000919050565b506001919050565b336104fb6000546001600160a01b031690565b6001600160a01b0316148061052c57506003546001600160a01b031615801561052c5750336001600160a01b038216145b6105785760405162461bcd60e51b815260206004820152601c60248201527f6f6e6c79206f776e6572206f7220746f6b656e2063616e2063616c6c00000000604482015260640161038d565b600380546001600160a01b0319166001600160a01b0383169081179091556040519081527f2de35142b19ed5a07796cf30791959c592018f70b1d2d7c460eef8ffe713692b906020016103e1565b336105d96000546001600160a01b031690565b6001600160a01b031614806105f65750336001600160a01b038216145b6106425760405162461bcd60e51b815260206004820152601c60248201527f6f6e6c79206f776e6572206f7220746f6b656e2063616e2063616c6c00000000604482015260640161038d565b6003546001600160a01b0382811691161461069f5760405162461bcd60e51b815260206004820152601760248201527f5468697320746f6b656e206973206e6f7420626f756e64000000000000000000604482015260640161038d565b600380546001600160a01b03191690556040516001600160a01b03821681527f28a4ca7134a3b3f9aff286e79ad3daadb4a06d1b43d037a3a98bdc074edd9b7a906020016103e1565b6106f0610ba7565b61ffff811660009081526004602052604090205460ff1661074c5760405162461bcd60e51b815260206004820152601660248201527518dbdd5b9d1c9e481b9bdd081c995cdd1c9a58dd195960521b604482015260640161038d565b61ffff8116600081815260046020908152604091829020805460ff1916905590519182527f7dad2e3bc77f5830a7421a19a06cee2e76fcd4bdbe0793f240b3cf094cebcceb91016103e1565b6107a0610ba7565b6107aa6000610c84565b565b6107b4610ba7565b6001600160a01b03811661080a5760405162461bcd60e51b815260206004820152601f60248201527f696e76616c696420617267756d656e74202d207a65726f206164647265737300604482015260640161038d565b610815600182610cd4565b6040516001600160a01b038216907ff68e73cec97f2d70aa641fb26e87a4383686e2efacb648f2165aeb02ac562ec590600090a250565b610854610ba7565b6001600160a01b0381166108aa5760405162461bcd60e51b815260206004820152601f60248201527f696e76616c696420617267756d656e74202d207a65726f206164647265737300604482015260640161038d565b6108b5600182610d50565b6040516001600160a01b038216907fed9c8ad8d5a0a66898ea49d2956929c93ae2e8bd50281b2ed897c5d1a6737e0b90600090a250565b6003546000906001600160a01b038381169116146104e057506000919050565b60005b81518110156101e95761093a82828151811061092d5761092d611063565b6020026020010151610325565b8061094481611079565b91505061090f565b60008061095884610dd2565b90506109778161ffff1660009081526004602052604090205460ff1690565b1561098657600091505061098c565b60019150505b9392505050565b61099b610ba7565b6001600160a01b03811660009081526002602052604090205460ff16610a035760405162461bcd60e51b815260206004820181905260248201527f54686973204167656e74206973206e6f74207265676973746572656420796574604482015260640161038d565b6001600160a01b038116600081815260026020908152604091829020805460ff1916905590519182527f6a659bb87bb23efbdc295f8eed8ae8c4379bfb77660ced2ef0f3d7d26b05c6a691016103e1565b6000610a6184848461094c565b949350505050565b610a71610ba7565b6001600160a01b038116610ad65760405162461bcd60e51b815260206004820152602660248201527f4f776e61626c653a206e6577206f776e657220697320746865207a65726f206160448201526564647265737360d01b606482015260840161038d565b610adf81610c84565b50565b610aea610ba7565b6001600160a01b03811660009081526002602052604090205460ff1615610b535760405162461bcd60e51b815260206004820181905260248201527f54686973204167656e7420697320616c72656164792072656769737465726564604482015260640161038d565b6001600160a01b038116600081815260026020908152604091829020805460ff1916600117905590519182527fd62c45e13ac30396aceb3ad37c89bd1ba9048032fe61679000e92eb93dbfd67d91016103e1565b6000546001600160a01b031633146107aa5760405162461bcd60e51b815260206004820181905260248201527f4f776e61626c653a2063616c6c6572206973206e6f7420746865206f776e6572604482015260640161038d565b60006001600160a01b038216610c645760405162461bcd60e51b815260206004820152602260248201527f526f6c65733a206163636f756e7420697320746865207a65726f206164647265604482015261737360f01b606482015260840161038d565b506001600160a01b03166000908152602091909152604090205460ff1690565b600080546001600160a01b038381166001600160a01b0319831681178455604051919092169283917f8be0079c531659141344cd1fd0a4f28419497f9722a3daafe3b4186f6b6457e09190a35050565b610cde8282610c01565b15610d2b5760405162461bcd60e51b815260206004820152601f60248201527f526f6c65733a206163636f756e7420616c72656164792068617320726f6c6500604482015260640161038d565b6001600160a01b0316600090815260209190915260409020805460ff19166001179055565b610d5a8282610c01565b610db05760405162461bcd60e51b815260206004820152602160248201527f526f6c65733a206163636f756e7420646f6573206e6f74206861766520726f6c6044820152606560f81b606482015260840161038d565b6001600160a01b0316600090815260209190915260409020805460ff19169055565b600354604080516304d3863d60e21b815290516000926001600160a01b03169163134e18f49160048083019260209291908290030181865afa158015610e1c573d6000803e3d6000fd5b505050506040513d601f19601f82011682018060405250810190610e4091906110c2565b604051637e42683b60e01b81526001600160a01b0384811660048301529190911690637e42683b90602401602060405180830381865afa158015610e88573d6000803e3d6000fd5b505050506040513d601f19601f820116820180604052508101906103f991906110df565b61ffff81168114610adf57600080fd5b8035610ec781610eac565b919050565b600060208284031215610ede57600080fd5b813561098c81610eac565b6001600160a01b0381168114610adf57600080fd5b600060208284031215610f1057600080fd5b813561098c81610ee9565b634e487b7160e01b600052604160045260246000fd5b60006020808385031215610f4457600080fd5b823567ffffffffffffffff80821115610f5c57600080fd5b818501915085601f830112610f7057600080fd5b813581811115610f8257610f82610f1b565b8060051b604051601f19603f83011681018181108582111715610fa757610fa7610f1b565b604052918252848201925083810185019188831115610fc557600080fd5b938501935b82851015610fea57610fdb85610ebc565b84529385019392850192610fca565b98975050505050505050565b6000806040838503121561100957600080fd5b823561101481610ee9565b946020939093013593505050565b60008060006060848603121561103757600080fd5b833561104281610ee9565b9250602084013561105281610ee9565b929592945050506040919091013590565b634e487b7160e01b600052603260045260246000fd5b60006001820161109957634e487b7160e01b600052601160045260246000fd5b5060010190565b6000602082840312156110b257600080fd5b8151801515811461098c57600080fd5b6000602082840312156110d457600080fd5b815161098c81610ee9565b6000602082840312156110f157600080fd5b815161098c81610eac56fea2646970667358221220e36bf96854b62461cdd321cccdcf48c871d0d20545de3326c814713c594765c764736f6c63430008130033",
  "linkReferences": {},
  "deployedLinkReferences": {}
}