{
  "_format": "hh-sol-artifact-1",
  "contractName": "FederalPublicTitlePermissioned",
  "sourceName": "contracts/branded-token/FederalPublicTitlePermissioned.sol",
  "abi": [
    {
      "inputs": [
        {
          "internalType": "string",
          "name": "_name",
          "type": "string"
        },
        {
          "internalType": "string",
          "name": "_symbol",
          "type": "string"
        },
        {
          "internalType": "uint8",
          "name": "_decimals",
          "type": "uint8"
        },
        {
          "internalType": "uint256",
          "name": "startTimestamp",
          "type": "uint256"
        },
        {
          "internalType": "uint256",
          "name": "durationDays",
          "type": "uint256"
        },
        {
          "internalType": "contract IERC20",
          "name": "asset_",
          "type": "address"
        },
        {
          "internalType": "uint64",
          "name": "yield_",
          "type": "uint64"
        },
        {
          "internalType": "uint256",
          "name": "maxAssets_",
          "type": "uint256"
        },
        {
          "internalType": "address",
          "name": "_identityRegistry",
          "type": "address"
        },
        {
          "internalType": "address",
          "name": "_compliance",
          "type": "address"
        },
        {
          "internalType": "address",
          "name": "_onchainId",
          "type": "address"
        }
      ],
      "stateMutability": "nonpayable",
      "type": "constructor"
    },
    {
      "inputs": [
        {
          "internalType": "address",
          "name": "receiver",
          "type": "address"
        },
        {
          "internalType": "uint256",
          "name": "assets",
          "type": "uint256"
        },
        {
          "internalType": "uint256",
          "name": "max",
          "type": "uint256"
        }
      ],
      "name": "ERC4626ExceededMaxDeposit",
      "type": "error"
    },
    {
      "inputs": [
        {
          "internalType": "address",
          "name": "receiver",
          "type": "address"
        },
        {
          "internalType": "uint256",
          "name": "shares",
          "type": "uint256"
        },
        {
          "internalType": "uint256",
          "name": "max",
          "type": "uint256"
        }
      ],
      "name": "ERC4626ExceededMaxMint",
      "type": "error"
    },
    {
      "inputs": [
        {
          "internalType": "address",
          "name": "owner",
          "type": "address"
        },
        {
          "internalType": "uint256",
          "name": "shares",
          "type": "uint256"
        },
        {
          "internalType": "uint256",
          "name": "max",
          "type": "uint256"
        }
      ],
      "name": "ERC4626ExceededMaxRedeem",
      "type": "error"
    },
    {
      "inputs": [
        {
          "internalType": "address",
          "name": "owner",
          "type": "address"
        },
        {
          "internalType": "uint256",
          "name": "assets",
          "type": "uint256"
        },
        {
          "internalType": "uint256",
          "name": "max",
          "type": "uint256"
        }
      ],
      "name": "ERC4626ExceededMaxWithdraw",
      "type": "error"
    },
    {
      "inputs": [
        {
          "internalType": "uint256",
          "name": "x",
          "type": "uint256"
        },
        {
          "internalType": "uint256",
          "name": "y",
          "type": "uint256"
        }
      ],
      "name": "PRBMath_MulDiv18_Overflow",
      "type": "error"
    },
    {
      "inputs": [
        {
          "internalType": "uint256",
          "name": "x",
          "type": "uint256"
        },
        {
          "internalType": "uint256",
          "name": "y",
          "type": "uint256"
        },
        {
          "internalType": "uint256",
          "name": "denominator",
          "type": "uint256"
        }
      ],
      "name": "PRBMath_MulDiv_Overflow",
      "type": "error"
    },
    {
      "inputs": [
        {
          "internalType": "UD60x18",
          "name": "x",
          "type": "uint256"
        }
      ],
      "name": "PRBMath_UD60x18_Exp2_InputTooBig",
      "type": "error"
    },
    {
      "inputs": [
        {
          "internalType": "UD60x18",
          "name": "x",
          "type": "uint256"
        }
      ],
      "name": "PRBMath_UD60x18_Log_InputTooSmall",
      "type": "error"
    },
    {
      "anonymous": false,
      "inputs": [
        {
          "indexed": true,
          "internalType": "address",
          "name": "_userAddress",
          "type": "address"
        },
        {
          "indexed": true,
          "internalType": "bool",
          "name": "_isFrozen",
          "type": "bool"
        },
        {
          "indexed": true,
          "internalType": "address",
          "name": "_owner",
          "type": "address"
        }
      ],
      "name": "AddressFrozen",
      "type": "event"
    },
    {
      "anonymous": false,
      "inputs": [
        {
          "indexed": true,
          "internalType": "address",
          "name": "_agent",
          "type": "address"
        }
      ],
      "name": "AgentAdded",
      "type": "event"
    },
    {
      "anonymous": false,
      "inputs": [
        {
          "indexed": true,
          "internalType": "address",
          "name": "_agent",
          "type": "address"
        }
      ],
      "name": "AgentRemoved",
      "type": "event"
    },
    {
      "anonymous": false,
      "inputs": [
        {
          "indexed": true,
          "internalType": "address",
          "name": "owner",
          "type": "address"
        },
        {
          "indexed": true,
          "internalType": "address",
          "name": "spender",
          "type": "address"
        },
        {
          "indexed": false,
          "internalType": "uint256",
          "name": "value",
          "type": "uint256"
        }
      ],
      "name": "Approval",
      "type": "event"
    },
    {
      "anonymous": false,
      "inputs": [
        {
          "indexed": true,
          "internalType": "address",
          "name": "_compliance",
          "type": "address"
        }
      ],
      "name": "ComplianceAdded",
      "type": "event"
    },
    {
      "anonymous": false,
      "inputs": [
        {
          "indexed": true,
          "internalType": "address",
          "name": "sender",
          "type": "address"
        },
        {
          "indexed": true,
          "internalType": "address",
          "name": "owner",
          "type": "address"
        },
        {
          "indexed": false,
          "internalType": "uint256",
          "name": "assets",
          "type": "uint256"
        },
        {
          "indexed": false,
          "internalType": "uint256",
          "name": "shares",
          "type": "uint256"
        }
      ],
      "name": "Deposit",
      "type": "event"
    },
    {
      "anonymous": false,
      "inputs": [
        {
          "indexed": true,
          "internalType": "address",
          "name": "_identityRegistry",
          "type": "address"
        }
      ],
      "name": "IdentityRegistryAdded",
      "type": "event"
    },
    {
      "anonymous": false,
      "inputs": [
        {
          "indexed": true,
          "internalType": "address",
          "name": "previousOwner",
          "type": "address"
        },
        {
          "indexed": true,
          "internalType": "address",
          "name": "newOwner",
          "type": "address"
        }
      ],
      "name": "OwnershipTransferred",
      "type": "event"
    },
    {
      "anonymous": false,
      "inputs": [
        {
          "indexed": false,
          "internalType": "address",
          "name": "account",
          "type": "address"
        }
      ],
      "name": "Paused",
      "type": "event"
    },
    {
      "anonymous": false,
      "inputs": [
        {
          "indexed": true,
          "internalType": "address",
          "name": "_lostWallet",
          "type": "address"
        },
        {
          "indexed": true,
          "internalType": "address",
          "name": "_newWallet",
          "type": "address"
        },
        {
          "indexed": true,
          "internalType": "address",
          "name": "_investorOnchainID",
          "type": "address"
        }
      ],
      "name": "RecoverySuccess",
      "type": "event"
    },
    {
      "anonymous": false,
      "inputs": [
        {
          "indexed": true,
          "internalType": "address",
          "name": "_userAddress",
          "type": "address"
        },
        {
          "indexed": false,
          "internalType": "uint256",
          "name": "_amount",
          "type": "uint256"
        }
      ],
      "name": "TokensFrozen",
      "type": "event"
    },
    {
      "anonymous": false,
      "inputs": [
        {
          "indexed": true,
          "internalType": "address",
          "name": "_userAddress",
          "type": "address"
        },
        {
          "indexed": false,
          "internalType": "uint256",
          "name": "_amount",
          "type": "uint256"
        }
      ],
      "name": "TokensUnfrozen",
      "type": "event"
    },
    {
      "anonymous": false,
      "inputs": [
        {
          "indexed": true,
          "internalType": "address",
          "name": "from",
          "type": "address"
        },
        {
          "indexed": true,
          "internalType": "address",
          "name": "to",
          "type": "address"
        },
        {
          "indexed": false,
          "internalType": "uint256",
          "name": "value",
          "type": "uint256"
        }
      ],
      "name": "Transfer",
      "type": "event"
    },
    {
      "anonymous": false,
      "inputs": [
        {
          "indexed": false,
          "internalType": "address",
          "name": "account",
          "type": "address"
        }
      ],
      "name": "Unpaused",
      "type": "event"
    },
    {
      "anonymous": false,
      "inputs": [
        {
          "indexed": true,
          "internalType": "string",
          "name": "_newName",
          "type": "string"
        },
        {
          "indexed": true,
          "internalType": "string",
          "name": "_newSymbol",
          "type": "string"
        },
        {
          "indexed": false,
          "internalType": "uint8",
          "name": "_newDecimals",
          "type": "uint8"
        },
        {
          "indexed": false,
          "internalType": "string",
          "name": "_newVersion",
          "type": "string"
        },
        {
          "indexed": true,
          "internalType": "address",
          "name": "_newOnchainID",
          "type": "address"
        }
      ],
      "name": "UpdatedTokenInformation",
      "type": "event"
    },
    {
      "anonymous": false,
      "inputs": [
        {
          "indexed": true,
          "internalType": "address",
          "name": "sender",
          "type": "address"
        },
        {
          "indexed": true,
          "internalType": "address",
          "name": "receiver",
          "type": "address"
        },
        {
          "indexed": true,
          "internalType": "address",
          "name": "owner",
          "type": "address"
        },
        {
          "indexed": false,
          "internalType": "uint256",
          "name": "assets",
          "type": "uint256"
        },
        {
          "indexed": false,
          "internalType": "uint256",
          "name": "shares",
          "type": "uint256"
        }
      ],
      "name": "Withdraw",
      "type": "event"
    },
    {
      "inputs": [],
      "name": "IR_TAX_FEE",
      "outputs": [
        {
          "internalType": "uint256",
          "name": "",
          "type": "uint256"
        }
      ],
      "stateMutability": "view",
      "type": "function"
    },
    {
      "inputs": [],
      "name": "PLATFORM_FEE",
      "outputs": [
        {
          "internalType": "uint256",
          "name": "",
          "type": "uint256"
        }
      ],
      "stateMutability": "view",
      "type": "function"
    },
    {
      "inputs": [
        {
          "internalType": "address",
          "name": "_agent",
          "type": "address"
        }
      ],
      "name": "addAgent",
      "outputs": [],
      "stateMutability": "nonpayable",
      "type": "function"
    },
    {
      "inputs": [
        {
          "internalType": "address",
          "name": "owner",
          "type": "address"
        },
        {
          "internalType": "address",
          "name": "spender",
          "type": "address"
        }
      ],
      "name": "allowance",
      "outputs": [
        {
          "internalType": "uint256",
          "name": "",
          "type": "uint256"
        }
      ],
      "stateMutability": "view",
      "type": "function"
    },
    {
      "inputs": [
        {
          "internalType": "address",
          "name": "spender",
          "type": "address"
        },
        {
          "internalType": "uint256",
          "name": "amount",
          "type": "uint256"
        }
      ],
      "name": "approve",
      "outputs": [
        {
          "internalType": "bool",
          "name": "",
          "type": "bool"
        }
      ],
      "stateMutability": "nonpayable",
      "type": "function"
    },
    {
      "inputs": [],
      "name": "asset",
      "outputs": [
        {
          "internalType": "address",
          "name": "",
          "type": "address"
        }
      ],
      "stateMutability": "view",
      "type": "function"
    },
    {
      "inputs": [
        {
          "internalType": "address",
          "name": "account",
          "type": "address"
        }
      ],
      "name": "balanceOf",
      "outputs": [
        {
          "internalType": "uint256",
          "name": "",
          "type": "uint256"
        }
      ],
      "stateMutability": "view",
      "type": "function"
    },
    {
      "inputs": [
        {
          "internalType": "address",
          "name": "_userAddress",
          "type": "address"
        },
        {
          "internalType": "uint256",
          "name": "_amount",
          "type": "uint256"
        }
      ],
      "name": "burn",
      "outputs": [],
      "stateMutability": "nonpayable",
      "type": "function"
    },
    {
      "inputs": [],
      "name": "compliance",
      "outputs": [
        {
          "internalType": "contract IModularCompliance",
          "name": "",
          "type": "address"
        }
      ],
      "stateMutability": "view",
      "type": "function"
    },
    {
      "inputs": [
        {
          "internalType": "uint256",
          "name": "shares",
          "type": "uint256"
        },
        {
          "internalType": "address",
          "name": "receiver",
          "type": "address"
        },
        {
          "internalType": "uint256",
          "name": "timestamp",
          "type": "uint256"
        }
      ],
      "name": "convertToAssets",
      "outputs": [
        {
          "internalType": "uint256",
          "name": "",
          "type": "uint256"
        }
      ],
      "stateMutability": "view",
      "type": "function"
    },
    {
      "inputs": [
        {
          "internalType": "uint256",
          "name": "assets",
          "type": "uint256"
        },
        {
          "internalType": "uint256",
          "name": "timestamp",
          "type": "uint256"
        }
      ],
      "name": "convertToShares",
      "outputs": [
        {
          "internalType": "uint256",
          "name": "",
          "type": "uint256"
        }
      ],
      "stateMutability": "view",
      "type": "function"
    },
    {
      "inputs": [],
      "name": "decimals",
      "outputs": [
        {
          "internalType": "uint8",
          "name": "",
          "type": "uint8"
        }
      ],
      "stateMutability": "view",
      "type": "function"
    },
    {
      "inputs": [
        {
          "internalType": "address",
          "name": "spender",
          "type": "address"
        },
        {
          "internalType": "uint256",
          "name": "subtractedValue",
          "type": "uint256"
        }
      ],
      "name": "decreaseAllowance",
      "outputs": [
        {
          "internalType": "bool",
          "name": "",
          "type": "bool"
        }
      ],
      "stateMutability": "nonpayable",
      "type": "function"
    },
    {
      "inputs": [
        {
          "internalType": "uint256",
          "name": "assets",
          "type": "uint256"
        },
        {
          "internalType": "address",
          "name": "receiver",
          "type": "address"
        },
        {
          "internalType": "uint256",
          "name": "timestamp",
          "type": "uint256"
        }
      ],
      "name": "deposit",
      "outputs": [
        {
          "internalType": "uint256",
          "name": "",
          "type": "uint256"
        }
      ],
      "stateMutability": "nonpayable",
      "type": "function"
    },
    {
      "inputs": [],
      "name": "duration",
      "outputs": [
        {
          "internalType": "uint256",
          "name": "",
          "type": "uint256"
        }
      ],
      "stateMutability": "view",
      "type": "function"
    },
    {
      "inputs": [
        {
          "internalType": "address",
          "name": "_from",
          "type": "address"
        },
        {
          "internalType": "address",
          "name": "_to",
          "type": "address"
        },
        {
          "internalType": "uint256",
          "name": "_amount",
          "type": "uint256"
        }
      ],
      "name": "forcedTransfer",
      "outputs": [
        {
          "internalType": "bool",
          "name": "",
          "type": "bool"
        }
      ],
      "stateMutability": "nonpayable",
      "type": "function"
    },
    {
      "inputs": [
        {
          "internalType": "address",
          "name": "_userAddress",
          "type": "address"
        },
        {
          "internalType": "uint256",
          "name": "_amount",
          "type": "uint256"
        }
      ],
      "name": "freezePartialTokens",
      "outputs": [],
      "stateMutability": "nonpayable",
      "type": "function"
    },
    {
      "inputs": [
        {
          "internalType": "address",
          "name": "_userAddress",
          "type": "address"
        }
      ],
      "name": "getFrozenTokens",
      "outputs": [
        {
          "internalType": "uint256",
          "name": "",
          "type": "uint256"
        }
      ],
      "stateMutability": "view",
      "type": "function"
    },
    {
      "inputs": [
        {
          "internalType": "uint256",
          "name": "currentTimestamp",
          "type": "uint256"
        }
      ],
      "name": "getPrice",
      "outputs": [
        {
          "internalType": "uint256",
          "name": "result",
          "type": "uint256"
        }
      ],
      "stateMutability": "view",
      "type": "function"
    },
    {
      "inputs": [
        {
          "internalType": "address",
          "name": "receiver",
          "type": "address"
        }
      ],
      "name": "getReceiverInfo",
      "outputs": [
        {
          "internalType": "uint256",
          "name": "shares",
          "type": "uint256"
        },
        {
          "internalType": "uint256",
          "name": "totalInvested",
          "type": "uint256"
        },
        {
          "internalType": "uint256",
          "name": "totalPlatformFee",
          "type": "uint256"
        },
        {
          "internalType": "uint256",
          "name": "currentValue",
          "type": "uint256"
        },
        {
          "internalType": "uint256",
          "name": "currentNetValue",
          "type": "uint256"
        },
        {
          "internalType": "uint256",
          "name": "start_",
          "type": "uint256"
        },
        {
          "internalType": "uint256",
          "name": "duration_",
          "type": "uint256"
        }
      ],
      "stateMutability": "view",
      "type": "function"
    },
    {
      "inputs": [
        {
          "internalType": "address",
          "name": "receiver",
          "type": "address"
        },
        {
          "internalType": "uint256",
          "name": "timestamp",
          "type": "uint256"
        }
      ],
      "name": "getReceiverInfoTimestamp",
      "outputs": [
        {
          "internalType": "uint256",
          "name": "shares",
          "type": "uint256"
        },
        {
          "internalType": "uint256",
          "name": "totalInvested",
          "type": "uint256"
        },
        {
          "internalType": "uint256",
          "name": "totalPlatformFee",
          "type": "uint256"
        },
        {
          "internalType": "uint256",
          "name": "currentValue",
          "type": "uint256"
        },
        {
          "internalType": "uint256",
          "name": "currentNetValue",
          "type": "uint256"
        },
        {
          "internalType": "uint256",
          "name": "start_",
          "type": "uint256"
        },
        {
          "internalType": "uint256",
          "name": "duration_",
          "type": "uint256"
        }
      ],
      "stateMutability": "view",
      "type": "function"
    },
    {
      "inputs": [],
      "name": "holders",
      "outputs": [
        {
          "internalType": "address[]",
          "name": "",
          "type": "address[]"
        }
      ],
      "stateMutability": "view",
      "type": "function"
    },
    {
      "inputs": [],
      "name": "identityRegistry",
      "outputs": [
        {
          "internalType": "contract IIdentityRegistry",
          "name": "",
          "type": "address"
        }
      ],
      "stateMutability": "view",
      "type": "function"
    },
    {
      "inputs": [
        {
          "internalType": "address",
          "name": "spender",
          "type": "address"
        },
        {
          "internalType": "uint256",
          "name": "addedValue",
          "type": "uint256"
        }
      ],
      "name": "increaseAllowance",
      "outputs": [
        {
          "internalType": "bool",
          "name": "",
          "type": "bool"
        }
      ],
      "stateMutability": "nonpayable",
      "type": "function"
    },
    {
      "inputs": [
        {
          "internalType": "uint256",
          "name": "increase",
          "type": "uint256"
        }
      ],
      "name": "increaseMaxAssets",
      "outputs": [
        {
          "internalType": "uint256",
          "name": "",
          "type": "uint256"
        }
      ],
      "stateMutability": "nonpayable",
      "type": "function"
    },
    {
      "inputs": [
        {
          "internalType": "address",
          "name": "_agent",
          "type": "address"
        }
      ],
      "name": "isAgent",
      "outputs": [
        {
          "internalType": "bool",
          "name": "",
          "type": "bool"
        }
      ],
      "stateMutability": "view",
      "type": "function"
    },
    {
      "inputs": [
        {
          "internalType": "address",
          "name": "_userAddress",
          "type": "address"
        }
      ],
      "name": "isFrozen",
      "outputs": [
        {
          "internalType": "bool",
          "name": "",
          "type": "bool"
        }
      ],
      "stateMutability": "view",
      "type": "function"
    },
    {
      "inputs": [],
      "name": "maxAssets",
      "outputs": [
        {
          "internalType": "uint256",
          "name": "",
          "type": "uint256"
        }
      ],
      "stateMutability": "view",
      "type": "function"
    },
    {
      "inputs": [
        {
          "internalType": "address",
          "name": "",
          "type": "address"
        }
      ],
      "name": "maxDeposit",
      "outputs": [
        {
          "internalType": "uint256",
          "name": "",
          "type": "uint256"
        }
      ],
      "stateMutability": "view",
      "type": "function"
    },
    {
      "inputs": [
        {
          "internalType": "address",
          "name": "owner",
          "type": "address"
        }
      ],
      "name": "maxRedeem",
      "outputs": [
        {
          "internalType": "uint256",
          "name": "",
          "type": "uint256"
        }
      ],
      "stateMutability": "view",
      "type": "function"
    },
    {
      "inputs": [
        {
          "internalType": "address",
          "name": "owner",
          "type": "address"
        },
        {
          "internalType": "address",
          "name": "receiver",
          "type": "address"
        },
        {
          "internalType": "uint256",
          "name": "timestamp",
          "type": "uint256"
        }
      ],
      "name": "maxWithdraw",
      "outputs": [
        {
          "internalType": "uint256",
          "name": "",
          "type": "uint256"
        }
      ],
      "stateMutability": "view",
      "type": "function"
    },
    {
      "inputs": [
        {
          "internalType": "address",
          "name": "_to",
          "type": "address"
        },
        {
          "internalType": "uint256",
          "name": "_amount",
          "type": "uint256"
        }
      ],
      "name": "mint",
      "outputs": [],
      "stateMutability": "nonpayable",
      "type": "function"
    },
    {
      "inputs": [],
      "name": "name",
      "outputs": [
        {
          "internalType": "string",
          "name": "",
          "type": "string"
        }
      ],
      "stateMutability": "view",
      "type": "function"
    },
    {
      "inputs": [],
      "name": "nominalValue",
      "outputs": [
        {
          "internalType": "UD60x18",
          "name": "",
          "type": "uint256"
        }
      ],
      "stateMutability": "view",
      "type": "function"
    },
    {
      "inputs": [],
      "name": "onchainID",
      "outputs": [
        {
          "internalType": "address",
          "name": "",
          "type": "address"
        }
      ],
      "stateMutability": "view",
      "type": "function"
    },
    {
      "inputs": [],
      "name": "owner",
      "outputs": [
        {
          "internalType": "address",
          "name": "",
          "type": "address"
        }
      ],
      "stateMutability": "view",
      "type": "function"
    },
    {
      "inputs": [],
      "name": "paused",
      "outputs": [
        {
          "internalType": "bool",
          "name": "",
          "type": "bool"
        }
      ],
      "stateMutability": "view",
      "type": "function"
    },
    {
      "inputs": [
        {
          "internalType": "uint256",
          "name": "assets",
          "type": "uint256"
        },
        {
          "internalType": "uint256",
          "name": "timestamp",
          "type": "uint256"
        }
      ],
      "name": "previewDeposit",
      "outputs": [
        {
          "internalType": "uint256",
          "name": "",
          "type": "uint256"
        }
      ],
      "stateMutability": "view",
      "type": "function"
    },
    {
      "inputs": [
        {
          "internalType": "uint256",
          "name": "shares",
          "type": "uint256"
        },
        {
          "internalType": "address",
          "name": "receiver",
          "type": "address"
        },
        {
          "internalType": "uint256",
          "name": "timestamp",
          "type": "uint256"
        }
      ],
      "name": "previewRedeem",
      "outputs": [
        {
          "internalType": "uint256",
          "name": "",
          "type": "uint256"
        }
      ],
      "stateMutability": "view",
      "type": "function"
    },
    {
      "inputs": [
        {
          "internalType": "address",
          "name": "_lostWallet",
          "type": "address"
        },
        {
          "internalType": "address",
          "name": "_newWallet",
          "type": "address"
        },
        {
          "internalType": "address",
          "name": "_investorOnchainID",
          "type": "address"
        }
      ],
      "name": "recoveryAddress",
      "outputs": [
        {
          "internalType": "bool",
          "name": "",
          "type": "bool"
        }
      ],
      "stateMutability": "nonpayable",
      "type": "function"
    },
    {
      "inputs": [],
      "name": "redeemAll",
      "outputs": [],
      "stateMutability": "nonpayable",
      "type": "function"
    },
    {
      "inputs": [
        {
          "internalType": "address",
          "name": "_agent",
          "type": "address"
        }
      ],
      "name": "removeAgent",
      "outputs": [],
      "stateMutability": "nonpayable",
      "type": "function"
    },
    {
      "inputs": [],
      "name": "renounceOwnership",
      "outputs": [],
      "stateMutability": "nonpayable",
      "type": "function"
    },
    {
      "inputs": [
        {
          "internalType": "address",
          "name": "_userAddress",
          "type": "address"
        },
        {
          "internalType": "bool",
          "name": "_freeze",
          "type": "bool"
        }
      ],
      "name": "setAddressFrozen",
      "outputs": [],
      "stateMutability": "nonpayable",
      "type": "function"
    },
    {
      "inputs": [
        {
          "internalType": "address",
          "name": "_compliance",
          "type": "address"
        }
      ],
      "name": "setCompliance",
      "outputs": [],
      "stateMutability": "nonpayable",
      "type": "function"
    },
    {
      "inputs": [
        {
          "internalType": "address",
          "name": "_identityRegistry",
          "type": "address"
        }
      ],
      "name": "setIdentityRegistry",
      "outputs": [],
      "stateMutability": "nonpayable",
      "type": "function"
    },
    {
      "inputs": [
        {
          "internalType": "address",
          "name": "_onchainID",
          "type": "address"
        }
      ],
      "name": "setOnchainID",
      "outputs": [],
      "stateMutability": "nonpayable",
      "type": "function"
    },
    {
      "inputs": [],
      "name": "start",
      "outputs": [
        {
          "internalType": "uint256",
          "name": "",
          "type": "uint256"
        }
      ],
      "stateMutability": "view",
      "type": "function"
    },
    {
      "inputs": [],
      "name": "symbol",
      "outputs": [
        {
          "internalType": "string",
          "name": "",
          "type": "string"
        }
      ],
      "stateMutability": "view",
      "type": "function"
    },
    {
      "inputs": [],
      "name": "totalAssets",
      "outputs": [
        {
          "internalType": "uint256",
          "name": "",
          "type": "uint256"
        }
      ],
      "stateMutability": "view",
      "type": "function"
    },
    {
      "inputs": [],
      "name": "totalSupply",
      "outputs": [
        {
          "internalType": "uint256",
          "name": "",
          "type": "uint256"
        }
      ],
      "stateMutability": "view",
      "type": "function"
    },
    {
      "inputs": [
        {
          "internalType": "address",
          "name": "to",
          "type": "address"
        },
        {
          "internalType": "uint256",
          "name": "amount",
          "type": "uint256"
        }
      ],
      "name": "transfer",
      "outputs": [
        {
          "internalType": "bool",
          "name": "",
          "type": "bool"
        }
      ],
      "stateMutability": "nonpayable",
      "type": "function"
    },
    {
      "inputs": [
        {
          "internalType": "address",
          "name": "from",
          "type": "address"
        },
        {
          "internalType": "address",
          "name": "to",
          "type": "address"
        },
        {
          "internalType": "uint256",
          "name": "amount",
          "type": "uint256"
        }
      ],
      "name": "transferFrom",
      "outputs": [
        {
          "internalType": "bool",
          "name": "",
          "type": "bool"
        }
      ],
      "stateMutability": "nonpayable",
      "type": "function"
    },
    {
      "inputs": [
        {
          "internalType": "address",
          "name": "newOwner",
          "type": "address"
        }
      ],
      "name": "transferOwnership",
      "outputs": [],
      "stateMutability": "nonpayable",
      "type": "function"
    },
    {
      "inputs": [
        {
          "internalType": "address",
          "name": "_userAddress",
          "type": "address"
        },
        {
          "internalType": "uint256",
          "name": "_amount",
          "type": "uint256"
        }
      ],
      "name": "unfreezePartialTokens",
      "outputs": [],
      "stateMutability": "nonpayable",
      "type": "function"
    },
    {
      "inputs": [],
      "name": "version",
      "outputs": [
        {
          "internalType": "string",
          "name": "",
          "type": "string"
        }
      ],
      "stateMutability": "pure",
      "type": "function"
    },
    {
      "inputs": [
        {
          "internalType": "address",
          "name": "destination",
          "type": "address"
        },
        {
          "internalType": "uint256",
          "name": "amount",
          "type": "uint256"
        }
      ],
      "name": "withdrawAssets",
      "outputs": [],
      "stateMutability": "nonpayable",
      "type": "function"
    },
    {
      "inputs": [],
      "name": "yield",
      "outputs": [
        {
          "internalType": "uint64",
          "name": "",
          "type": "uint64"
        }
      ],
      "stateMutability": "view",
      "type": "function"
    }
  ],
  "bytecode": "0x61010060405261016d6042556200002a604254670de0b6b3a7640000620000279190620006f2565b90565b604355670de0b6b3a7640000604455683635c9adc5dea0000060455564e8d4a510006047556108ca604855600060495562000074604854655af3107a4000620000279190620006f2565b604a5562000091604954655af3107a4000620000279190620006f2565b604b55348015620000a157600080fd5b506040516200500d3803806200500d833981016040819052620000c49162000820565b82828c8c8c8583836003620000da8382620009af565b506004620000e98282620009af565b50506005805460ff191690555062000101336200024b565b600780546001600160a01b0319166001600160a01b0383161790556200012786620002a5565b6200013285620002f9565b6007546001600160a01b0316620001486200041a565b60405162000157919062000a7b565b6040519081900390206200016a620004b4565b60405162000179919062000a7b565b60405180910390207f6a1105ac8148a3c319adbc369f9072573e8a11d3a3d195e067e7c40767ec54d18560405180604001604052806005815260200164342e302e3160d81b815250604051620001d192919062000a99565b60405180910390a45050506001600160a01b03891660805250505060a088905260c08790526001600160401b03851660e081905262000227906200021b906402540be40062000ad8565b6001600160401b031690565b60465560418490556200023a33620004c5565b505050505050505050505062000b06565b600580546001600160a01b03838116610100818102610100600160a81b031985161790945560405193909204169182907f8be0079c531659141344cd1fd0a4f28419497f9722a3daafe3b4186f6b6457e090600090a35050565b620002af6200056f565b600a80546001600160a01b0319166001600160a01b0383169081179091556040517fd2be862d755bca7e0d39772b2cab3a5578da9c285f69199f4c063c2294a7f36c90600090a250565b620003036200056f565b600b546001600160a01b0316156200037557600b5460405163040db3b560e41b81523060048201526001600160a01b03909116906340db3b5090602401600060405180830381600087803b1580156200035b57600080fd5b505af115801562000370573d6000803e3d6000fd5b505050505b600b80546001600160a01b0319166001600160a01b038316908117909155604051631ffad50160e11b8152306004820152633ff5aa0290602401600060405180830381600087803b158015620003ca57600080fd5b505af1158015620003df573d6000803e3d6000fd5b50506040516001600160a01b03841692507f7f3a888862559648ec01d97deb7b5012bff86dc91e654a1de397170db40e35b69150600090a250565b6060600480546200042b9062000920565b80601f0160208091040260200160405190810160405280929190818152602001828054620004599062000920565b8015620004aa5780601f106200047e57610100808354040283529160200191620004aa565b820191906000526020600020905b8154815290600101906020018083116200048c57829003601f168201915b5050505050905090565b6060600380546200042b9062000920565b620004cf6200056f565b6001600160a01b0381166200052b5760405162461bcd60e51b815260206004820152601f60248201527f696e76616c696420617267756d656e74202d207a65726f20616464726573730060448201526064015b60405180910390fd5b62000538600682620005d3565b6040516001600160a01b038216907ff68e73cec97f2d70aa641fb26e87a4383686e2efacb648f2165aeb02ac562ec590600090a250565b6005546001600160a01b03610100909104163314620005d15760405162461bcd60e51b815260206004820181905260248201527f4f776e61626c653a2063616c6c6572206973206e6f7420746865206f776e6572604482015260640162000522565b565b620005df828262000653565b156200062e5760405162461bcd60e51b815260206004820152601f60248201527f526f6c65733a206163636f756e7420616c72656164792068617320726f6c6500604482015260640162000522565b6001600160a01b0316600090815260209190915260409020805460ff19166001179055565b60006001600160a01b038216620006b85760405162461bcd60e51b815260206004820152602260248201527f526f6c65733a206163636f756e7420697320746865207a65726f206164647265604482015261737360f01b606482015260840162000522565b506001600160a01b03811660009081526020839052604090205460ff165b92915050565b634e487b7160e01b600052601160045260246000fd5b8082028115828204841417620006d657620006d6620006dc565b634e487b7160e01b600052604160045260246000fd5b60005b838110156200073f57818101518382015260200162000725565b50506000910152565b600082601f8301126200075a57600080fd5b81516001600160401b03808211156200077757620007776200070c565b604051601f8301601f19908116603f01168101908282118183101715620007a257620007a26200070c565b81604052838152866020858801011115620007bc57600080fd5b620007cf84602083016020890162000722565b9695505050505050565b805160ff81168114620007eb57600080fd5b919050565b80516001600160a01b0381168114620007eb57600080fd5b80516001600160401b0381168114620007eb57600080fd5b60008060008060008060008060008060006101608c8e0312156200084357600080fd5b8b516001600160401b038111156200085a57600080fd5b620008688e828f0162000748565b60208e0151909c5090506001600160401b038111156200088757600080fd5b620008958e828f0162000748565b9a5050620008a660408d01620007d9565b985060608c0151975060808c01519650620008c460a08d01620007f0565b9550620008d460c08d0162000808565b945060e08c01519350620008ec6101008d01620007f0565b9250620008fd6101208d01620007f0565b91506200090e6101408d01620007f0565b90509295989b509295989b9093969950565b600181811c908216806200093557607f821691505b6020821081036200095657634e487b7160e01b600052602260045260246000fd5b50919050565b601f821115620009aa57600081815260208120601f850160051c81016020861015620009855750805b601f850160051c820191505b81811015620009a65782815560010162000991565b5050505b505050565b81516001600160401b03811115620009cb57620009cb6200070c565b620009e381620009dc845462000920565b846200095c565b602080601f83116001811462000a1b576000841562000a025750858301515b600019600386901b1c1916600185901b178555620009a6565b600085815260208120601f198616915b8281101562000a4c5788860151825594840194600190910190840162000a2b565b508582101562000a6b5787850151600019600388901b60f8161c191681555b5050505050600190811b01905550565b6000825162000a8f81846020870162000722565b9190910192915050565b60ff83168152604060208201526000825180604084015262000ac381606085016020870162000722565b601f01601f1916919091016060019392505050565b6001600160401b0381811683821602808216919082811462000afe5762000afe620006dc565b505092915050565b60805160a05160c05160e05161447262000b9b60003960006104cd0152600081816103f701528181610e4201528181612b0701528181612b330152612da001526000818161076f01528181610e1f015281816120b301528181612adc0152818161302d01526130a201526000818161051901528181611bce015281816129db01528181612a180152612e0c01526144726000f3fe608060405234801561001057600080fd5b506004361061038e5760003560e01c80638188f71c116101de578063b53a0e011161010f578063db2088f4116100ad578063e75722301161007c578063e75722301461081e578063efb65e8914610831578063f2fde38b14610844578063f89817891461085757600080fd5b8063db2088f4146107cc578063dd62ed3e146107df578063dd80687314610734578063e5839836146107f257600080fd5b8063be9a6555116100e9578063be9a65551461076d578063c69c09cf14610793578063cbf3f861146107a6578063d905777e146107b957600080fd5b8063b53a0e0114610734578063baadf18b14610747578063bc157ac11461075a57600080fd5b80639bb048951161017c578063a046765411610156578063a0467654146106f4578063a457c2d7146106fd578063a9059cbb14610710578063aba637051461072357600080fd5b80639bb04895146106c55780639dc29fac146106ce5780639fc1d0e7146106e157600080fd5b80639285948a116101b85780639285948a1461068f57806394b2294b146106a257806395d89b41146106aa57806397a6278e146106b257600080fd5b80638188f71c1461065157806384e79842146106665780638da5cb5b1461067957600080fd5b8063313ce567116102c35780634a753dde116102615780636290865d116102305780636290865d1461061257806370a0823114610623578063715018a6146106365780637a7af70d1461063e57600080fd5b80634a753dde1461058b57806354fd4d50146105d357806356433724146105f45780635c975abb1461060757600080fd5b8063395093511161029d578063395093511461053d5780633d1ddc5b14610550578063402d267d1461056357806340c10f191461057857600080fd5b8063313ce567146104ff57806334fbc9a11461050e57806338d52e0f1461051757600080fd5b8063158b1a57116103305780631ffbb0641161030a5780631ffbb0641461049957806323b872dd146104ac57806328593984146104bf5780632f4350c2146104f757600080fd5b8063158b1a571461045557806318160ddd1461047e5780631fe56f7d1461048657600080fd5b8063095ea7b31161036c578063095ea7b3146103d25780630fb5a6b4146103f5578063125c4a331461041b578063134e18f41461043057600080fd5b806301e1d1141461039357806306fdde03146103aa57806307cda1db146103bf575b600080fd5b6040545b6040519081526020015b60405180910390f35b6103b261086a565b6040516103a1919061404a565b6103976103cd36600461405d565b6108fc565b6103e56103e036600461408d565b61094e565b60405190151581526020016103a1565b7f0000000000000000000000000000000000000000000000000000000000000000610397565b61042e61042936600461408d565b610968565b005b600a546001600160a01b03165b6040516001600160a01b0390911681526020016103a1565b6103976104633660046140b7565b6001600160a01b031660009081526009602052604090205490565b600254610397565b61042e61049436600461408d565b610a8e565b6103e56104a73660046140b7565b610bb7565b6103e56104ba3660046140d2565b610bc4565b60405167ffffffffffffffff7f00000000000000000000000000000000000000000000000000000000000000001681526020016103a1565b61042e610c00565b604051600681526020016103a1565b61039760495481565b7f000000000000000000000000000000000000000000000000000000000000000061043d565b6103e561054b36600461408d565b610c9b565b61042e61055e3660046140b7565b610cbd565b6103976105713660046140b7565b5060415490565b61042e61058636600461408d565b610d79565b61059e61059936600461408d565b610dac565b604080519788526020880196909652948601939093526060850191909152608084015260a083015260c082015260e0016103a1565b604080518082019091526005815264342e302e3160d81b60208201526103b2565b6103976106023660046140d2565b610e6f565b60055460ff166103e5565b600b546001600160a01b031661043d565b6103976106313660046140b7565b610e9f565b61042e610eba565b61039761064c36600461410e565b610ece565b610659610ef0565b6040516103a19190614130565b61042e6106743660046140b7565b610f51565b60055461010090046001600160a01b031661043d565b6103e561069d36600461417d565b610ff1565b604154610397565b6103b2611355565b61042e6106c03660046140b7565b611364565b61039760455481565b61042e6106dc36600461408d565b611404565b6103e56106ef3660046140d2565b6115b8565b61039760485481565b6103e561070b36600461408d565b611820565b6103e561071e36600461408d565b6118a6565b6007546001600160a01b031661043d565b6103976107423660046141c0565b6118d7565b61059e6107553660046140b7565b6118ff565b6103976107683660046141c0565b61192b565b7f0000000000000000000000000000000000000000000000000000000000000000610397565b61042e6107a13660046141f3565b611a81565b61042e6107b43660046140b7565b611afb565b6103976107c73660046140b7565b611b4d565b6103976107da36600461410e565b611b58565b6103976107ed36600461422a565b611b66565b6103e56108003660046140b7565b6001600160a01b031660009081526008602052604090205460ff1690565b61039761082c36600461405d565b611b91565b61042e61083f36600461408d565b611ba4565b61042e6108523660046140b7565b611bf4565b61042e6108653660046140b7565b611c6a565b6060600380546108799061425d565b80601f01602080910402602001604051908101604052809291908181526020018280546108a59061425d565b80156108f25780601f106108c7576101008083540402835291602001916108f2565b820191906000526020600020905b8154815290600101906020018083116108d557829003601f168201915b5050505050905090565b600061090733610bb7565b61092c5760405162461bcd60e51b815260040161092390614297565b60405180910390fd5b816041600082825461093e91906142fb565b909155505060415490505b919050565b60003361095c818585611d84565b60019150505b92915050565b61097133610bb7565b61098d5760405162461bcd60e51b815260040161092390614297565b600061099883610e9f565b6001600160a01b0384166000908152600960205260409020549091506109bf9083906142fb565b811015610a0e5760405162461bcd60e51b815260206004820181905260248201527f416d6f756e74206578636565647320617661696c61626c652062616c616e63656044820152606401610923565b6001600160a01b038316600090815260096020526040902054610a329083906142fb565b6001600160a01b038416600081815260096020526040908190209290925590517fa065e63c631c86f1b9f66a4a2f63f2093bf1c2168d23290259dbd969e0222a4590610a819085815260200190565b60405180910390a2505050565b610a9733610bb7565b610ab35760405162461bcd60e51b815260040161092390614297565b6001600160a01b038216600090815260096020526040902054811115610b385760405162461bcd60e51b815260206004820152603460248201527f416d6f756e742073686f756c64206265206c657373207468616e206f7220657160448201527375616c20746f2066726f7a656e20746f6b656e7360601b6064820152608401610923565b6001600160a01b038216600090815260096020526040902054610b5c90829061430e565b6001600160a01b038316600081815260096020526040908190209290925590517f9bed35cb62ad0dba04f9d5bfee4b5bc91443e77da8a65c4c84834c51bb08b0d690610bab9084815260200190565b60405180910390a25050565b6000610962600683611ea9565b6000610bcf33610bb7565b610beb5760405162461bcd60e51b815260040161092390614297565b610bf6848484611f2c565b90505b9392505050565b610c0933610bb7565b610c255760405162461bcd60e51b815260040161092390614297565b60005b603d54811015610c98576000603d8281548110610c4757610c47614321565b60009182526020822001546001600160a01b03169150610c6682610e9f565b90508015610c8357610c81818384610c7c6120a3565b6120dc565b505b50508080610c9090614337565b915050610c28565b50565b60003361095c818585610cae8383611b66565b610cb891906142fb565b611d84565b610cc561214a565b600780546001600160a01b0319166001600160a01b038316908117909155610ceb611355565b604051610cf89190614350565b6040518091039020610d0861086a565b604051610d159190614350565b60405180910390207f6a1105ac8148a3c319adbc369f9072573e8a11d3a3d195e067e7c40767ec54d1610d46600690565b6040805180820182526005815264342e302e3160d81b60208201529051610d6e92919061436c565b60405180910390a450565b610d8233610bb7565b610d9e5760405162461bcd60e51b815260040161092390614297565b610da882826121aa565b5050565b6000806000806000806000610dc089610e9f565b6001600160a01b038a166000908152603e6020908152604080832054603f9092529091205491985096509450610e02610df88a610e9f565b878a60008061239a565b9350610e1b610e108a610e9f565b878a6001600061239a565b92507f000000000000000000000000000000000000000000000000000000000000000091507f0000000000000000000000000000000000000000000000000000000000000000905092959891949750929550565b6000610bf6610e7d85610e9f565b6001600160a01b0385166000908152603e60205260408120549085908061239a565b6001600160a01b031660009081526020819052604090205490565b610ec261214a565b610ecc60006123f2565b565b600080610eda8461244c565b9050610ee881846000612480565b949350505050565b6060603d8054806020026020016040519081016040528092919081815260200182805480156108f257602002820191906000526020600020905b81546001600160a01b03168152600190910190602001808311610f2a575050505050905090565b610f5961214a565b6001600160a01b038116610faf5760405162461bcd60e51b815260206004820152601f60248201527f696e76616c696420617267756d656e74202d207a65726f2061646472657373006044820152606401610923565b610fba60068261248c565b6040516001600160a01b038216907ff68e73cec97f2d70aa641fb26e87a4383686e2efacb648f2165aeb02ac562ec590600090a250565b6000610ffc33610bb7565b6110185760405162461bcd60e51b815260040161092390614297565b61102184610e9f565b6000036110675760405162461bcd60e51b81526020600482015260146024820152733737903a37b5b2b739903a37903932b1b7bb32b960611b6044820152606401610923565b604080516001600160a01b038516602082015283916000910160408051808303601f1901815290829052805160209091012063d202158d60e01b8252600482018190526001602483015291506001600160a01b0383169063d202158d90604401602060405180830381865afa1580156110e4573d6000803e3d6000fd5b505050506040513d601f19601f820116820180604052508101906111089190614388565b1561131557600061111887610e9f565b6001600160a01b038881166000818152600960205260409081902054600a549151637e42683b60e01b815260048101939093529394509091169063454a03e090899087908490637e42683b90602401602060405180830381865afa158015611184573d6000803e3d6000fd5b505050506040513d601f19601f820116820180604052508101906111a891906143a5565b6040516001600160e01b031960e086901b1681526001600160a01b03938416600482015292909116602483015261ffff166044820152606401600060405180830381600087803b1580156111fb57600080fd5b505af115801561120f573d6000803e3d6000fd5b5050505061121e8888846115b8565b50801561122f5761122f8782610968565b6001600160a01b03881660009081526008602052604090205460ff16151560010361125f5761125f876001611a81565b600a5460405163a8d29d1d60e01b81526001600160a01b038a811660048301529091169063a8d29d1d90602401600060405180830381600087803b1580156112a657600080fd5b505af11580156112ba573d6000803e3d6000fd5b50505050856001600160a01b0316876001600160a01b0316896001600160a01b03167ff0c9129a94f30f1caaceb63e44b9811d0a3edf1d6c23757f346093af5553fed060405160405180910390a46001945050505050610bf9565b60405162461bcd60e51b81526020600482015260156024820152745265636f76657279206e6f7420706f737369626c6560581b6044820152606401610923565b6060600480546108799061425d565b61136c61214a565b6001600160a01b0381166113c25760405162461bcd60e51b815260206004820152601f60248201527f696e76616c696420617267756d656e74202d207a65726f2061646472657373006044820152606401610923565b6113cd600682612508565b6040516001600160a01b038216907fed9c8ad8d5a0a66898ea49d2956929c93ae2e8bd50281b2ed897c5d1a6737e0b90600090a250565b61140d33610bb7565b6114295760405162461bcd60e51b815260040161092390614297565b8061143383610e9f565b10156114815760405162461bcd60e51b815260206004820152601d60248201527f63616e6e6f74206275726e206d6f7265207468616e2062616c616e63650000006044820152606401610923565b6001600160a01b0382166000908152600960205260408120546114a384610e9f565b6114ad919061430e565b9050808211156115435760006114c3828461430e565b6001600160a01b0385166000908152600960205260409020549091506114ea90829061430e565b6001600160a01b038516600081815260096020526040908190209290925590517f9bed35cb62ad0dba04f9d5bfee4b5bc91443e77da8a65c4c84834c51bb08b0d6906115399084815260200190565b60405180910390a2505b61154d838361258a565b600b5460405163469753b960e11b81526001600160a01b0385811660048301526024820185905290911690638d2ea77290604401600060405180830381600087803b15801561159b57600080fd5b505af11580156115af573d6000803e3d6000fd5b50505050505050565b60006115c333610bb7565b6115df5760405162461bcd60e51b815260040161092390614297565b816115e985610e9f565b10156116305760405162461bcd60e51b815260206004820152601660248201527573656e6465722062616c616e636520746f6f206c6f7760501b6044820152606401610923565b6001600160a01b03841660009081526009602052604081205461165286610e9f565b61165c919061430e565b9050808311156116f2576000611672828561430e565b6001600160a01b03871660009081526009602052604090205490915061169990829061430e565b6001600160a01b038716600081815260096020526040908190209290925590517f9bed35cb62ad0dba04f9d5bfee4b5bc91443e77da8a65c4c84834c51bb08b0d6906116e89084815260200190565b60405180910390a2505b600a5460405163b9209e3360e01b81526001600160a01b0386811660048301529091169063b9209e3390602401602060405180830381865afa15801561173c573d6000803e3d6000fd5b505050506040513d601f19601f820116820180604052508101906117609190614388565b156117e0576117708585856126b9565b600b546040516322ebca6d60e21b81526001600160a01b0390911690638baf29b4906117a4908890889088906004016143c9565b600060405180830381600087803b1580156117be57600080fd5b505af11580156117d2573d6000803e3d6000fd5b505050506001915050610bf9565b60405162461bcd60e51b81526020600482015260156024820152745472616e73666572206e6f7420706f737369626c6560581b6044820152606401610923565b6000338161182e8286611b66565b90508381101561188e5760405162461bcd60e51b815260206004820152602560248201527f45524332303a2064656372656173656420616c6c6f77616e63652062656c6f77604482015264207a65726f60d81b6064820152608401610923565b61189b8286868403611d84565b506001949350505050565b60006118b133610bb7565b6118cd5760405162461bcd60e51b815260040161092390614297565b610bf98383612860565b6001600160a01b0382166000908152603e6020526040812054610bf69085908460018561239a565b60008060008060008060006119148842610dac565b959e949d50929b5090995097509550909350915050565b60008061193760415490565b9050808561194460405490565b61194e91906142fb565b111561198657604051633c8097d960e11b81526001600160a01b03851660048201526024810186905260448101829052606401610923565b60006119928685610ece565b90506119a0338688846129d6565b603d805460018101825560009182527fece66cfdbd22e3f37d348a3d8e19074452862cd65fd4b9a11f0336d1ac6d1dc30180546001600160a01b0319166001600160a01b0388161790556119f38761244c565b6001600160a01b0387166000908152603e6020526040812080549293508392909190611a209084906142fb565b925050819055508060406000828254611a3991906142fb565b90915550611a499050818861430e565b6001600160a01b0387166000908152603f602052604081208054909190611a719084906142fb565b9091555091979650505050505050565b611a8a33610bb7565b611aa65760405162461bcd60e51b815260040161092390614297565b6001600160a01b038216600081815260086020526040808220805460ff19168515159081179091559051339391927f7fa523c84ab8d7fc5b72f08b9e46dbbf10c39e119a075b3e317002d14bc9f43691a45050565b611b0361214a565b600a80546001600160a01b0319166001600160a01b0383169081179091556040517fd2be862d755bca7e0d39772b2cab3a5578da9c285f69199f4c063c2294a7f36c90600090a250565b600061096282610e9f565b6000610bf983836000612480565b6001600160a01b03918216600090815260016020908152604080832093909416825291909152205490565b6000610962611b9f83612ad4565b612bd6565b611bad33610bb7565b611bc95760405162461bcd60e51b815260040161092390614297565b610da87f00000000000000000000000000000000000000000000000000000000000000008383612bec565b611bfc61214a565b6001600160a01b038116611c615760405162461bcd60e51b815260206004820152602660248201527f4f776e61626c653a206e6577206f776e657220697320746865207a65726f206160448201526564647265737360d01b6064820152608401610923565b610c98816123f2565b611c7261214a565b600b546001600160a01b031615611ce157600b5460405163040db3b560e41b81523060048201526001600160a01b03909116906340db3b5090602401600060405180830381600087803b158015611cc857600080fd5b505af1158015611cdc573d6000803e3d6000fd5b505050505b600b80546001600160a01b0319166001600160a01b038316908117909155604051631ffad50160e11b8152306004820152633ff5aa0290602401600060405180830381600087803b158015611d3557600080fd5b505af1158015611d49573d6000803e3d6000fd5b50506040516001600160a01b03841692507f7f3a888862559648ec01d97deb7b5012bff86dc91e654a1de397170db40e35b69150600090a250565b6001600160a01b038316611de65760405162461bcd60e51b8152602060048201526024808201527f45524332303a20617070726f76652066726f6d20746865207a65726f206164646044820152637265737360e01b6064820152608401610923565b6001600160a01b038216611e475760405162461bcd60e51b815260206004820152602260248201527f45524332303a20617070726f766520746f20746865207a65726f206164647265604482015261737360f01b6064820152608401610923565b6001600160a01b0383811660008181526001602090815260408083209487168084529482529182902085905590518481527f8c5be1e5ebec7d5bd14f71427d1e84f3dd0314c0f7b2291e5b200ac8c7c3b92591015b60405180910390a3505050565b60006001600160a01b038216611f0c5760405162461bcd60e51b815260206004820152602260248201527f526f6c65733a206163636f756e7420697320746865207a65726f206164647265604482015261737360f01b6064820152608401610923565b506001600160a01b03166000908152602091909152604090205460ff1690565b6000611f36612c4f565b6001600160a01b03831660009081526008602052604090205460ff16158015611f6f57503360009081526008602052604090205460ff16155b611fae5760405162461bcd60e51b815260206004820152601060248201526f3bb0b63632ba1034b990333937bd32b760811b6044820152606401610923565b3360008181526009602052604090205490611fc890610e9f565b611fd2919061430e565b8211156120185760405162461bcd60e51b8152602060048201526014602482015273496e73756666696369656e742042616c616e636560601b6044820152606401610923565b612023848484612c95565b156117e057612033848484612d80565b50600b546040516322ebca6d60e21b81526001600160a01b0390911690638baf29b490612068908790879087906004016143c9565b600060405180830381600087803b15801561208257600080fd5b505af1158015612096573d6000803e3d6000fd5b5050505060019050610bf9565b60006120ad612d99565b6120d7907f00000000000000000000000000000000000000000000000000000000000000006142fb565b905090565b6000806120e884611b4d565b90508086111561212457604051632e52afbb60e21b81526001600160a01b03851660048201526024810187905260448101829052606401610923565b60006121318787866118d7565b9050612140338787848b612ddc565b9695505050505050565b6005546001600160a01b03610100909104163314610ecc5760405162461bcd60e51b815260206004820181905260248201527f4f776e61626c653a2063616c6c6572206973206e6f7420746865206f776e65726044820152606401610923565b600a5460405163b9209e3360e01b81526001600160a01b0384811660048301529091169063b9209e3390602401602060405180830381865afa1580156121f4573d6000803e3d6000fd5b505050506040513d601f19601f820116820180604052508101906122189190614388565b6122645760405162461bcd60e51b815260206004820152601960248201527f4964656e74697479206973206e6f742076657269666965642e000000000000006044820152606401610923565b600b546040516372331c7360e11b81526001600160a01b039091169063e46638e69061229990600090869086906004016143c9565b602060405180830381865afa1580156122b6573d6000803e3d6000fd5b505050506040513d601f19601f820116820180604052508101906122da9190614388565b6123265760405162461bcd60e51b815260206004820152601760248201527f436f6d706c69616e6365206e6f7420666f6c6c6f7765640000000000000000006044820152606401610923565b6123308282612ee1565b600b54604051635f8dead360e01b81526001600160a01b0384811660048301526024820184905290911690635f8dead390604401600060405180830381600087803b15801561237e57600080fd5b505af1158015612392573d6000803e3d6000fd5b505050505050565b6000806123b86123a986612ad4565b6123b289612fa0565b90612fb3565b905060006123c582612bd6565b905084156123e0576123d78782612fc2565b925050506123e9565b91506123e99050565b95945050505050565b600580546001600160a01b03838116610100818102610100600160a81b031985161790945560405193909204169182907f8be0079c531659141344cd1fd0a4f28419497f9722a3daafe3b4186f6b6457e090600090a35050565b60008061245883612fa0565b90506000610ee8611b9f612479604b5460445461301a90919063ffffffff16565b8490612fb3565b6000610bf68484613029565b6124968282611ea9565b156124e35760405162461bcd60e51b815260206004820152601f60248201527f526f6c65733a206163636f756e7420616c72656164792068617320726f6c65006044820152606401610923565b6001600160a01b0316600090815260209190915260409020805460ff19166001179055565b6125128282611ea9565b6125685760405162461bcd60e51b815260206004820152602160248201527f526f6c65733a206163636f756e7420646f6573206e6f74206861766520726f6c6044820152606560f81b6064820152608401610923565b6001600160a01b0316600090815260209190915260409020805460ff19169055565b6001600160a01b0382166125ea5760405162461bcd60e51b815260206004820152602160248201527f45524332303a206275726e2066726f6d20746865207a65726f206164647265736044820152607360f81b6064820152608401610923565b6001600160a01b0382166000908152602081905260409020548181101561265e5760405162461bcd60e51b815260206004820152602260248201527f45524332303a206275726e20616d6f756e7420657863656564732062616c616e604482015261636560f01b6064820152608401610923565b6001600160a01b0383166000818152602081815260408083208686039055600280548790039055518581529192917fddf252ad1be2c89b69c2b068fc378daa952ba7f163c4a11628f55a4df523b3ef9101611e9c565b505050565b6001600160a01b03831661271d5760405162461bcd60e51b815260206004820152602560248201527f45524332303a207472616e736665722066726f6d20746865207a65726f206164604482015264647265737360d81b6064820152608401610923565b6001600160a01b03821661277f5760405162461bcd60e51b815260206004820152602360248201527f45524332303a207472616e7366657220746f20746865207a65726f206164647260448201526265737360e81b6064820152608401610923565b6001600160a01b038316600090815260208190526040902054818110156127f75760405162461bcd60e51b815260206004820152602660248201527f45524332303a207472616e7366657220616d6f756e7420657863656564732062604482015265616c616e636560d01b6064820152608401610923565b6001600160a01b03848116600081815260208181526040808320878703905593871680835291849020805487019055925185815290927fddf252ad1be2c89b69c2b068fc378daa952ba7f163c4a11628f55a4df523b3ef91015b60405180910390a35b50505050565b600061286a612c4f565b6001600160a01b03831660009081526008602052604090205460ff161580156128a357503360009081526008602052604090205460ff16155b6128e25760405162461bcd60e51b815260206004820152601060248201526f3bb0b63632ba1034b990333937bd32b760811b6044820152606401610923565b33600081815260096020526040902054906128fc90610e9f565b612906919061430e565b82111561294c5760405162461bcd60e51b8152602060048201526014602482015273496e73756666696369656e742042616c616e636560601b6044820152606401610923565b612957338484612c95565b156117e0576129673384846126b9565b600b546040516322ebca6d60e21b81526001600160a01b0390911690638baf29b49061299b903390879087906004016143c9565b600060405180830381600087803b1580156129b557600080fd5b505af11580156129c9573d6000803e3d6000fd5b5050505060019050610962565b612a027f0000000000000000000000000000000000000000000000000000000000000000853085613145565b604051630852cd8d60e31b8152600481018390527f00000000000000000000000000000000000000000000000000000000000000006001600160a01b0316906342966c6890602401600060405180830381600087803b158015612a6457600080fd5b505af1158015612a78573d6000803e3d6000fd5b50505050612a8683826121aa565b826001600160a01b0316846001600160a01b03167fdcbc1c05240f31ff3ad067ef1ee35ce4997762752e3a095284754544f4c709d78484604051612851929190918252602082015260400190565b600080612b017f000000000000000000000000000000000000000000000000000000000000000084613166565b905060007f0000000000000000000000000000000000000000000000000000000000000000821015612b5a57612b57827f000000000000000000000000000000000000000000000000000000000000000061430e565b90505b6000612b74612b7183670de0b6b3a76400006143ed565b90565b604654909150670de0b6b3a764000090600090612b92908390613195565b90506000612bab604354856131a490919063ffffffff16565b90506000612bb983836131bc565b604554909150612bc990826131a4565b9998505050505050505050565b6000604754612be28390565b610962919061441a565b6040516001600160a01b0383166024820152604481018290526126b490849063a9059cbb60e01b906064015b60408051601f198184030181529190526020810180516001600160e01b03166001600160e01b0319909316929092179091526132c9565b60055460ff1615610ecc5760405162461bcd60e51b815260206004820152601060248201526f14185d5cd8589b194e881c185d5cd95960821b6044820152606401610923565b600a5460405163b9209e3360e01b81526001600160a01b038481166004830152600092169063b9209e3390602401602060405180830381865afa158015612ce0573d6000803e3d6000fd5b505050506040513d601f19601f82011682018060405250810190612d049190614388565b8015610bf65750600b546040516372331c7360e11b81526001600160a01b039091169063e46638e690612d3f908790879087906004016143c9565b602060405180830381865afa158015612d5c573d6000803e3d6000fd5b505050506040513d601f19601f82011682018060405250810190610bf69190614388565b600033612d8e85828561339e565b61189b8585856126b9565b6000612dc67f0000000000000000000000000000000000000000000000000000000000000000603c6143ed565b612dd190603c6143ed565b6120d79060186143ed565b612de6838261258a565b60405163a9059cbb60e01b81526001600160a01b038581166004830152602482018490527f0000000000000000000000000000000000000000000000000000000000000000169063a9059cbb906044016020604051808303816000875af1158015612e55573d6000803e3d6000fd5b505050506040513d601f19601f82011682018060405250810190612e799190614388565b50826001600160a01b0316846001600160a01b0316866001600160a01b03167ffbde797d201c681b91056529119e0b02407c7bb96a4a2c75c01fc9667232c8db8585604051612ed2929190918252602082015260400190565b60405180910390a45050505050565b6001600160a01b038216612f375760405162461bcd60e51b815260206004820152601f60248201527f45524332303a206d696e7420746f20746865207a65726f2061646472657373006044820152606401610923565b8060026000828254612f4991906142fb565b90915550506001600160a01b038216600081815260208181526040808320805486019055518481527fddf252ad1be2c89b69c2b068fc378daa952ba7f163c4a11628f55a4df523b3ef910160405180910390a35050565b600061096260475483612b7191906143ed565b6000610bf9612b718484613412565b600080612fcf848461430e565b90506000612fdc82612fa0565b90506000612fe985612fa0565b9050600061300f611b9f613008604a5486612fb390919063ffffffff16565b849061301a565b979650505050505050565b6000610bf9612b71838561430e565b60007f00000000000000000000000000000000000000000000000000000000000000008210156130945760405162461bcd60e51b8152602060048201526016602482015275151a5b595cdd185b5c081899599bdc99481cdd185c9d60521b6044820152606401610923565b61309c612d99565b6130c6907f00000000000000000000000000000000000000000000000000000000000000006142fb565b82111561310b5760405162461bcd60e51b8152602060048201526013602482015272151a5b595cdd185b5c0818599d195c88195b99606a1b6044820152606401610923565b60006131168461244c565b9050600061312382612fa0565b9050600061313a61313386612ad4565b83906131a4565b905061214081612bd6565b61285a846323b872dd60e01b858585604051602401612c18939291906143c9565b60006018603c80613177868661430e565b613181919061441a565b61318b919061441a565b610bf9919061441a565b6000610bf9612b7183856142fb565b6000610bf9612b7184670de0b6b3a7640000856134c8565b600082828183036131e75780156131d45760006131de565b670de0b6b3a76400005b92505050610962565b670de0b6b3a7640000820361320857670de0b6b3a764000092505050610962565b8060000361322257670de0b6b3a764000092505050610962565b670de0b6b3a7640000810361323b578492505050610962565b670de0b6b3a764000082111561326c5761326561326061325a8761359c565b86612fb3565b6136cc565b92506132c1565b600061328a612b71846ec097ce7bc90715b34b9f100000000061441a565b905060006132a361326061329d8461359c565b88612fb3565b905061300f612b71826ec097ce7bc90715b34b9f100000000061441a565b505092915050565b600061331e826040518060400160405280602081526020017f5361666545524332303a206c6f772d6c6576656c2063616c6c206661696c6564815250856001600160a01b03166137229092919063ffffffff16565b905080516000148061333f57508080602001905181019061333f9190614388565b6126b45760405162461bcd60e51b815260206004820152602a60248201527f5361666545524332303a204552433230206f7065726174696f6e20646964206e6044820152691bdd081cdd58d8d9595960b21b6064820152608401610923565b60006133aa8484611b66565b9050600019811461285a57818110156134055760405162461bcd60e51b815260206004820152601d60248201527f45524332303a20696e73756666696369656e7420616c6c6f77616e63650000006044820152606401610923565b61285a8484848403611d84565b60008080600019848609848602925082811083820303915050806000036134465750670de0b6b3a764000090049050610962565b670de0b6b3a7640000811061347857604051635173648d60e01b81526004810186905260248101859052604401610923565b6000670de0b6b3a764000085870962040000818503049310909103600160ee1b02919091177faccb18165bd6fe31ae1cf318dc5b51eee0e1ba569b88cd74c1773b91fac106690291505092915050565b6000808060001985870985870292508281108382030391505080600003613502578382816134f8576134f8614404565b0492505050610bf9565b83811061353357604051630c740aef60e31b8152600481018790526024810186905260448101859052606401610923565b60008486880960026001871981018816978890046003810283188082028403028082028403028082028403028082028403028082028403029081029092039091026000889003889004909101858311909403939093029303949094049190911702949350505050565b600081670de0b6b3a76400008110156135cb5760405163036d32ef60e41b815260048101849052602401610923565b6000613657670de0b6b3a7640000830460016fffffffffffffffffffffffffffffffff821160071b91821c67ffffffffffffffff811160061b90811c63ffffffff811160051b90811c61ffff811160041b90811c60ff8111600390811b91821c600f811160021b90811c918211871b91821c969096119490961792909217171791909117919091171790565b9050670de0b6b3a7640000810282821c670de0b6b3a763ffff19810161367d5781612140565b671bc16d674ec800006706f05b59d3b200005b80156136c057670de0b6b3a76400008380020492508183106136b8579283019260019290921c915b60011c613690565b50919695505050505050565b600081680a688906bd8affffff8111156136fc5760405163b3b6ba1f60e01b815260048101849052602401610923565b6000613714670de0b6b3a7640000604084901b61441a565b9050610ee8612b7182613731565b6060610bf68484600085613e91565b600160bf1b67ff0000000000000082161561383e576780000000000000008216156137655768016a09e667f3bcc9090260401c5b674000000000000000821615613784576801306fe0a31b7152df0260401c5b6720000000000000008216156137a3576801172b83c7d517adce0260401c5b6710000000000000008216156137c25768010b5586cf9890f62a0260401c5b6708000000000000008216156137e1576801059b0d31585743ae0260401c5b67040000000000000082161561380057680102c9a3e778060ee70260401c5b67020000000000000082161561381f5768010163da9fb33356d80260401c5b67010000000000000082161561383e57680100b1afa5abcbed610260401c5b66ff00000000000082161561393d57668000000000000082161561386b5768010058c86da1c09ea20260401c5b6640000000000000821615613889576801002c605e2e8cec500260401c5b66200000000000008216156138a757680100162f3904051fa10260401c5b66100000000000008216156138c5576801000b175effdc76ba0260401c5b66080000000000008216156138e357680100058ba01fb9f96d0260401c5b66040000000000008216156139015768010002c5cc37da94920260401c5b660200000000000082161561391f576801000162e525ee05470260401c5b660100000000000082161561393d5768010000b17255775c040260401c5b65ff0000000000821615613a335765800000000000821615613968576801000058b91b5bc9ae0260401c5b6540000000000082161561398557680100002c5c89d5ec6d0260401c5b652000000000008216156139a25768010000162e43f4f8310260401c5b651000000000008216156139bf57680100000b1721bcfc9a0260401c5b650800000000008216156139dc5768010000058b90cf1e6e0260401c5b650400000000008216156139f9576801000002c5c863b73f0260401c5b65020000000000821615613a1657680100000162e430e5a20260401c5b65010000000000821615613a33576801000000b1721835510260401c5b64ff00000000821615613b2057648000000000821615613a5c57680100000058b90c0b490260401c5b644000000000821615613a785768010000002c5c8601cc0260401c5b642000000000821615613a94576801000000162e42fff00260401c5b641000000000821615613ab05768010000000b17217fbb0260401c5b640800000000821615613acc576801000000058b90bfce0260401c5b640400000000821615613ae857680100000002c5c85fe30260401c5b640200000000821615613b045768010000000162e42ff10260401c5b640100000000821615613b2057680100000000b17217f80260401c5b63ff000000821615613c04576380000000821615613b475768010000000058b90bfc0260401c5b6340000000821615613b62576801000000002c5c85fe0260401c5b6320000000821615613b7d57680100000000162e42ff0260401c5b6310000000821615613b98576801000000000b17217f0260401c5b6308000000821615613bb357680100000000058b90c00260401c5b6304000000821615613bce5768010000000002c5c8600260401c5b6302000000821615613be9576801000000000162e4300260401c5b6301000000821615613c045768010000000000b172180260401c5b62ff0000821615613cdf5762800000821615613c29576801000000000058b90c0260401c5b62400000821615613c4357680100000000002c5c860260401c5b62200000821615613c5d5768010000000000162e430260401c5b62100000821615613c7757680100000000000b17210260401c5b62080000821615613c915768010000000000058b910260401c5b62040000821615613cab576801000000000002c5c80260401c5b62020000821615613cc557680100000000000162e40260401c5b62010000821615613cdf576801000000000000b1720260401c5b61ff00821615613db157618000821615613d0257680100000000000058b90260401c5b614000821615613d1b5768010000000000002c5d0260401c5b612000821615613d34576801000000000000162e0260401c5b611000821615613d4d5768010000000000000b170260401c5b610800821615613d66576801000000000000058c0260401c5b610400821615613d7f57680100000000000002c60260401c5b610200821615613d9857680100000000000001630260401c5b610100821615613db157680100000000000000b10260401c5b60ff821615613e7a576080821615613dd257680100000000000000590260401c5b6040821615613dea576801000000000000002c0260401c5b6020821615613e0257680100000000000000160260401c5b6010821615613e1a576801000000000000000b0260401c5b6008821615613e3257680100000000000000060260401c5b6004821615613e4a57680100000000000000030260401c5b6002821615613e6257680100000000000000010260401c5b6001821615613e7a57680100000000000000010260401c5b670de0b6b3a76400000260409190911c60bf031c90565b606082471015613ef25760405162461bcd60e51b815260206004820152602660248201527f416464726573733a20696e73756666696369656e742062616c616e636520666f6044820152651c8818d85b1b60d21b6064820152608401610923565b600080866001600160a01b03168587604051613f0e9190614350565b60006040518083038185875af1925050503d8060008114613f4b576040519150601f19603f3d011682016040523d82523d6000602084013e613f50565b606091505b509150915061300f8783838760608315613fcb578251600003613fc4576001600160a01b0385163b613fc45760405162461bcd60e51b815260206004820152601d60248201527f416464726573733a2063616c6c20746f206e6f6e2d636f6e74726163740000006044820152606401610923565b5081610ee8565b610ee88383815115613fe05781518083602001fd5b8060405162461bcd60e51b8152600401610923919061404a565b60005b83811015614015578181015183820152602001613ffd565b50506000910152565b60008151808452614036816020860160208601613ffa565b601f01601f19169290920160200192915050565b602081526000610bf9602083018461401e565b60006020828403121561406f57600080fd5b5035919050565b80356001600160a01b038116811461094957600080fd5b600080604083850312156140a057600080fd5b6140a983614076565b946020939093013593505050565b6000602082840312156140c957600080fd5b610bf982614076565b6000806000606084860312156140e757600080fd5b6140f084614076565b92506140fe60208501614076565b9150604084013590509250925092565b6000806040838503121561412157600080fd5b50508035926020909101359150565b6020808252825182820181905260009190848201906040850190845b818110156141715783516001600160a01b03168352928401929184019160010161414c565b50909695505050505050565b60008060006060848603121561419257600080fd5b61419b84614076565b92506141a960208501614076565b91506141b760408501614076565b90509250925092565b6000806000606084860312156141d557600080fd5b833592506140fe60208501614076565b8015158114610c9857600080fd5b6000806040838503121561420657600080fd5b61420f83614076565b9150602083013561421f816141e5565b809150509250929050565b6000806040838503121561423d57600080fd5b61424683614076565b915061425460208401614076565b90509250929050565b600181811c9082168061427157607f821691505b60208210810361429157634e487b7160e01b600052602260045260246000fd5b50919050565b6020808252602e908201527f4167656e74526f6c653a2063616c6c657220646f6573206e6f7420686176652060408201526d746865204167656e7420726f6c6560901b606082015260800190565b634e487b7160e01b600052601160045260246000fd5b80820180821115610962576109626142e5565b81810381811115610962576109626142e5565b634e487b7160e01b600052603260045260246000fd5b600060018201614349576143496142e5565b5060010190565b60008251614362818460208701613ffa565b9190910192915050565b60ff83168152604060208201526000610bf6604083018461401e565b60006020828403121561439a57600080fd5b8151610bf9816141e5565b6000602082840312156143b757600080fd5b815161ffff81168114610bf957600080fd5b6001600160a01b039384168152919092166020820152604081019190915260600190565b8082028115828204841417610962576109626142e5565b634e487b7160e01b600052601260045260246000fd5b60008261443757634e487b7160e01b600052601260045260246000fd5b50049056fea2646970667358221220436ffc6782ab58af94fa563016e21b0a3c2ac158c3b7be15c3885077e7e75b3f64736f6c63430008130033",
  "linkReferences": {},
  "deployedLinkReferences": {}
}