{
  "_format": "hh-sol-artifact-1",
  "contractName": "FederalPublicTitlePermissioned",
  "sourceName": "contracts/branded-token/FederalPublicTitlePermissioned.sol",
  "abi": [
    {
      "inputs": [
        {
          "internalType": "string",
          "name": "_name",
          "type": "string"
        },
        {
          "internalType": "string",
          "name": "_symbol",
          "type": "string"
        },
        {
          "internalType": "uint8",
          "name": "_decimals",
          "type": "uint8"
        },
        {
          "internalType": "uint256",
          "name": "startTimestamp",
          "type": "uint256"
        },
        {
          "internalType": "uint256",
          "name": "durationDays",
          "type": "uint256"
        },
        {
          "internalType": "contract IERC20",
          "name": "asset_",
          "type": "address"
        },
        {
          "internalType": "uint64",
          "name": "yield_",
          "type": "uint64"
        },
        {
          "internalType": "uint256",
          "name": "maxAssets_",
          "type": "uint256"
        },
        {
          "internalType": "address",
          "name": "_identityRegistry",
          "type": "address"
        },
        {
          "internalType": "address",
          "name": "_compliance",
          "type": "address"
        },
        {
          "internalType": "address",
          "name": "_onchainId",
          "type": "address"
        }
      ],
      "stateMutability": "nonpayable",
      "type": "constructor"
    },
    {
      "inputs": [
        {
          "internalType": "address",
          "name": "receiver",
          "type": "address"
        },
        {
          "internalType": "uint256",
          "name": "assets",
          "type": "uint256"
        },
        {
          "internalType": "uint256",
          "name": "max",
          "type": "uint256"
        }
      ],
      "name": "ERC4626ExceededMaxDeposit",
      "type": "error"
    },
    {
      "inputs": [
        {
          "internalType": "address",
          "name": "receiver",
          "type": "address"
        },
        {
          "internalType": "uint256",
          "name": "shares",
          "type": "uint256"
        },
        {
          "internalType": "uint256",
          "name": "max",
          "type": "uint256"
        }
      ],
      "name": "ERC4626ExceededMaxMint",
      "type": "error"
    },
    {
      "inputs": [
        {
          "internalType": "address",
          "name": "owner",
          "type": "address"
        },
        {
          "internalType": "uint256",
          "name": "shares",
          "type": "uint256"
        },
        {
          "internalType": "uint256",
          "name": "max",
          "type": "uint256"
        }
      ],
      "name": "ERC4626ExceededMaxRedeem",
      "type": "error"
    },
    {
      "inputs": [
        {
          "internalType": "address",
          "name": "owner",
          "type": "address"
        },
        {
          "internalType": "uint256",
          "name": "assets",
          "type": "uint256"
        },
        {
          "internalType": "uint256",
          "name": "max",
          "type": "uint256"
        }
      ],
      "name": "ERC4626ExceededMaxWithdraw",
      "type": "error"
    },
    {
      "inputs": [
        {
          "internalType": "uint256",
          "name": "x",
          "type": "uint256"
        },
        {
          "internalType": "uint256",
          "name": "y",
          "type": "uint256"
        }
      ],
      "name": "PRBMath_MulDiv18_Overflow",
      "type": "error"
    },
    {
      "inputs": [
        {
          "internalType": "uint256",
          "name": "x",
          "type": "uint256"
        },
        {
          "internalType": "uint256",
          "name": "y",
          "type": "uint256"
        },
        {
          "internalType": "uint256",
          "name": "denominator",
          "type": "uint256"
        }
      ],
      "name": "PRBMath_MulDiv_Overflow",
      "type": "error"
    },
    {
      "inputs": [
        {
          "internalType": "UD60x18",
          "name": "x",
          "type": "uint256"
        }
      ],
      "name": "PRBMath_UD60x18_Exp2_InputTooBig",
      "type": "error"
    },
    {
      "inputs": [
        {
          "internalType": "UD60x18",
          "name": "x",
          "type": "uint256"
        }
      ],
      "name": "PRBMath_UD60x18_Log_InputTooSmall",
      "type": "error"
    },
    {
      "anonymous": false,
      "inputs": [
        {
          "indexed": true,
          "internalType": "address",
          "name": "_userAddress",
          "type": "address"
        },
        {
          "indexed": true,
          "internalType": "bool",
          "name": "_isFrozen",
          "type": "bool"
        },
        {
          "indexed": true,
          "internalType": "address",
          "name": "_owner",
          "type": "address"
        }
      ],
      "name": "AddressFrozen",
      "type": "event"
    },
    {
      "anonymous": false,
      "inputs": [
        {
          "indexed": true,
          "internalType": "address",
          "name": "_agent",
          "type": "address"
        }
      ],
      "name": "AgentAdded",
      "type": "event"
    },
    {
      "anonymous": false,
      "inputs": [
        {
          "indexed": true,
          "internalType": "address",
          "name": "_agent",
          "type": "address"
        }
      ],
      "name": "AgentRemoved",
      "type": "event"
    },
    {
      "anonymous": false,
      "inputs": [
        {
          "indexed": true,
          "internalType": "address",
          "name": "owner",
          "type": "address"
        },
        {
          "indexed": true,
          "internalType": "address",
          "name": "spender",
          "type": "address"
        },
        {
          "indexed": false,
          "internalType": "uint256",
          "name": "value",
          "type": "uint256"
        }
      ],
      "name": "Approval",
      "type": "event"
    },
    {
      "anonymous": false,
      "inputs": [
        {
          "indexed": true,
          "internalType": "address",
          "name": "_compliance",
          "type": "address"
        }
      ],
      "name": "ComplianceAdded",
      "type": "event"
    },
    {
      "anonymous": false,
      "inputs": [
        {
          "indexed": true,
          "internalType": "address",
          "name": "sender",
          "type": "address"
        },
        {
          "indexed": true,
          "internalType": "address",
          "name": "owner",
          "type": "address"
        },
        {
          "indexed": false,
          "internalType": "uint256",
          "name": "assets",
          "type": "uint256"
        },
        {
          "indexed": false,
          "internalType": "uint256",
          "name": "shares",
          "type": "uint256"
        }
      ],
      "name": "Deposit",
      "type": "event"
    },
    {
      "anonymous": false,
      "inputs": [
        {
          "indexed": true,
          "internalType": "address",
          "name": "_identityRegistry",
          "type": "address"
        }
      ],
      "name": "IdentityRegistryAdded",
      "type": "event"
    },
    {
      "anonymous": false,
      "inputs": [
        {
          "indexed": true,
          "internalType": "address",
          "name": "previousOwner",
          "type": "address"
        },
        {
          "indexed": true,
          "internalType": "address",
          "name": "newOwner",
          "type": "address"
        }
      ],
      "name": "OwnershipTransferred",
      "type": "event"
    },
    {
      "anonymous": false,
      "inputs": [
        {
          "indexed": false,
          "internalType": "address",
          "name": "account",
          "type": "address"
        }
      ],
      "name": "Paused",
      "type": "event"
    },
    {
      "anonymous": false,
      "inputs": [
        {
          "indexed": true,
          "internalType": "address",
          "name": "_lostWallet",
          "type": "address"
        },
        {
          "indexed": true,
          "internalType": "address",
          "name": "_newWallet",
          "type": "address"
        },
        {
          "indexed": true,
          "internalType": "address",
          "name": "_investorOnchainID",
          "type": "address"
        }
      ],
      "name": "RecoverySuccess",
      "type": "event"
    },
    {
      "anonymous": false,
      "inputs": [
        {
          "indexed": true,
          "internalType": "address",
          "name": "_userAddress",
          "type": "address"
        },
        {
          "indexed": false,
          "internalType": "uint256",
          "name": "_amount",
          "type": "uint256"
        }
      ],
      "name": "TokensFrozen",
      "type": "event"
    },
    {
      "anonymous": false,
      "inputs": [
        {
          "indexed": true,
          "internalType": "address",
          "name": "_userAddress",
          "type": "address"
        },
        {
          "indexed": false,
          "internalType": "uint256",
          "name": "_amount",
          "type": "uint256"
        }
      ],
      "name": "TokensUnfrozen",
      "type": "event"
    },
    {
      "anonymous": false,
      "inputs": [
        {
          "indexed": true,
          "internalType": "address",
          "name": "from",
          "type": "address"
        },
        {
          "indexed": true,
          "internalType": "address",
          "name": "to",
          "type": "address"
        },
        {
          "indexed": false,
          "internalType": "uint256",
          "name": "value",
          "type": "uint256"
        }
      ],
      "name": "Transfer",
      "type": "event"
    },
    {
      "anonymous": false,
      "inputs": [
        {
          "indexed": false,
          "internalType": "address",
          "name": "account",
          "type": "address"
        }
      ],
      "name": "Unpaused",
      "type": "event"
    },
    {
      "anonymous": false,
      "inputs": [
        {
          "indexed": true,
          "internalType": "string",
          "name": "_newName",
          "type": "string"
        },
        {
          "indexed": true,
          "internalType": "string",
          "name": "_newSymbol",
          "type": "string"
        },
        {
          "indexed": false,
          "internalType": "uint8",
          "name": "_newDecimals",
          "type": "uint8"
        },
        {
          "indexed": false,
          "internalType": "string",
          "name": "_newVersion",
          "type": "string"
        },
        {
          "indexed": true,
          "internalType": "address",
          "name": "_newOnchainID",
          "type": "address"
        }
      ],
      "name": "UpdatedTokenInformation",
      "type": "event"
    },
    {
      "anonymous": false,
      "inputs": [
        {
          "indexed": true,
          "internalType": "address",
          "name": "sender",
          "type": "address"
        },
        {
          "indexed": true,
          "internalType": "address",
          "name": "receiver",
          "type": "address"
        },
        {
          "indexed": true,
          "internalType": "address",
          "name": "owner",
          "type": "address"
        },
        {
          "indexed": false,
          "internalType": "uint256",
          "name": "assets",
          "type": "uint256"
        },
        {
          "indexed": false,
          "internalType": "uint256",
          "name": "shares",
          "type": "uint256"
        }
      ],
      "name": "Withdraw",
      "type": "event"
    },
    {
      "inputs": [],
      "name": "IR_TAX_FEE",
      "outputs": [
        {
          "internalType": "uint256",
          "name": "",
          "type": "uint256"
        }
      ],
      "stateMutability": "view",
      "type": "function"
    },
    {
      "inputs": [],
      "name": "PLATFORM_FEE",
      "outputs": [
        {
          "internalType": "uint256",
          "name": "",
          "type": "uint256"
        }
      ],
      "stateMutability": "view",
      "type": "function"
    },
    {
      "inputs": [
        {
          "internalType": "address",
          "name": "_agent",
          "type": "address"
        }
      ],
      "name": "addAgent",
      "outputs": [],
      "stateMutability": "nonpayable",
      "type": "function"
    },
    {
      "inputs": [
        {
          "internalType": "address",
          "name": "owner",
          "type": "address"
        },
        {
          "internalType": "address",
          "name": "spender",
          "type": "address"
        }
      ],
      "name": "allowance",
      "outputs": [
        {
          "internalType": "uint256",
          "name": "",
          "type": "uint256"
        }
      ],
      "stateMutability": "view",
      "type": "function"
    },
    {
      "inputs": [
        {
          "internalType": "address",
          "name": "spender",
          "type": "address"
        },
        {
          "internalType": "uint256",
          "name": "amount",
          "type": "uint256"
        }
      ],
      "name": "approve",
      "outputs": [
        {
          "internalType": "bool",
          "name": "",
          "type": "bool"
        }
      ],
      "stateMutability": "nonpayable",
      "type": "function"
    },
    {
      "inputs": [],
      "name": "asset",
      "outputs": [
        {
          "internalType": "address",
          "name": "",
          "type": "address"
        }
      ],
      "stateMutability": "view",
      "type": "function"
    },
    {
      "inputs": [
        {
          "internalType": "address",
          "name": "account",
          "type": "address"
        }
      ],
      "name": "balanceOf",
      "outputs": [
        {
          "internalType": "uint256",
          "name": "",
          "type": "uint256"
        }
      ],
      "stateMutability": "view",
      "type": "function"
    },
    {
      "inputs": [
        {
          "internalType": "address",
          "name": "_userAddress",
          "type": "address"
        },
        {
          "internalType": "uint256",
          "name": "_amount",
          "type": "uint256"
        }
      ],
      "name": "burn",
      "outputs": [],
      "stateMutability": "nonpayable",
      "type": "function"
    },
    {
      "inputs": [],
      "name": "compliance",
      "outputs": [
        {
          "internalType": "contract IModularCompliance",
          "name": "",
          "type": "address"
        }
      ],
      "stateMutability": "view",
      "type": "function"
    },
    {
      "inputs": [
        {
          "internalType": "uint256",
          "name": "shares",
          "type": "uint256"
        },
        {
          "internalType": "address",
          "name": "receiver",
          "type": "address"
        },
        {
          "internalType": "uint256",
          "name": "timestamp",
          "type": "uint256"
        }
      ],
      "name": "convertToAssets",
      "outputs": [
        {
          "internalType": "uint256",
          "name": "",
          "type": "uint256"
        }
      ],
      "stateMutability": "view",
      "type": "function"
    },
    {
      "inputs": [
        {
          "internalType": "uint256",
          "name": "assets",
          "type": "uint256"
        },
        {
          "internalType": "uint256",
          "name": "timestamp",
          "type": "uint256"
        }
      ],
      "name": "convertToShares",
      "outputs": [
        {
          "internalType": "uint256",
          "name": "",
          "type": "uint256"
        }
      ],
      "stateMutability": "view",
      "type": "function"
    },
    {
      "inputs": [],
      "name": "decimals",
      "outputs": [
        {
          "internalType": "uint8",
          "name": "",
          "type": "uint8"
        }
      ],
      "stateMutability": "view",
      "type": "function"
    },
    {
      "inputs": [
        {
          "internalType": "address",
          "name": "spender",
          "type": "address"
        },
        {
          "internalType": "uint256",
          "name": "subtractedValue",
          "type": "uint256"
        }
      ],
      "name": "decreaseAllowance",
      "outputs": [
        {
          "internalType": "bool",
          "name": "",
          "type": "bool"
        }
      ],
      "stateMutability": "nonpayable",
      "type": "function"
    },
    {
      "inputs": [
        {
          "internalType": "uint256",
          "name": "assets",
          "type": "uint256"
        },
        {
          "internalType": "address",
          "name": "receiver",
          "type": "address"
        },
        {
          "internalType": "uint256",
          "name": "timestamp",
          "type": "uint256"
        }
      ],
      "name": "deposit",
      "outputs": [
        {
          "internalType": "uint256",
          "name": "",
          "type": "uint256"
        }
      ],
      "stateMutability": "nonpayable",
      "type": "function"
    },
    {
      "inputs": [],
      "name": "duration",
      "outputs": [
        {
          "internalType": "uint256",
          "name": "",
          "type": "uint256"
        }
      ],
      "stateMutability": "view",
      "type": "function"
    },
    {
      "inputs": [
        {
          "internalType": "address",
          "name": "_from",
          "type": "address"
        },
        {
          "internalType": "address",
          "name": "_to",
          "type": "address"
        },
        {
          "internalType": "uint256",
          "name": "_amount",
          "type": "uint256"
        }
      ],
      "name": "forcedTransfer",
      "outputs": [
        {
          "internalType": "bool",
          "name": "",
          "type": "bool"
        }
      ],
      "stateMutability": "nonpayable",
      "type": "function"
    },
    {
      "inputs": [
        {
          "internalType": "address",
          "name": "_userAddress",
          "type": "address"
        },
        {
          "internalType": "uint256",
          "name": "_amount",
          "type": "uint256"
        }
      ],
      "name": "freezePartialTokens",
      "outputs": [],
      "stateMutability": "nonpayable",
      "type": "function"
    },
    {
      "inputs": [
        {
          "internalType": "address",
          "name": "_userAddress",
          "type": "address"
        }
      ],
      "name": "getFrozenTokens",
      "outputs": [
        {
          "internalType": "uint256",
          "name": "",
          "type": "uint256"
        }
      ],
      "stateMutability": "view",
      "type": "function"
    },
    {
      "inputs": [
        {
          "internalType": "uint256",
          "name": "currentTimestamp",
          "type": "uint256"
        }
      ],
      "name": "getPrice",
      "outputs": [
        {
          "internalType": "uint256",
          "name": "result",
          "type": "uint256"
        }
      ],
      "stateMutability": "view",
      "type": "function"
    },
    {
      "inputs": [
        {
          "internalType": "address",
          "name": "receiver",
          "type": "address"
        }
      ],
      "name": "getReceiverInfo",
      "outputs": [
        {
          "internalType": "uint256",
          "name": "shares",
          "type": "uint256"
        },
        {
          "internalType": "uint256",
          "name": "totalInvested",
          "type": "uint256"
        },
        {
          "internalType": "uint256",
          "name": "totalPlatformFee",
          "type": "uint256"
        },
        {
          "internalType": "uint256",
          "name": "currentValue",
          "type": "uint256"
        },
        {
          "internalType": "uint256",
          "name": "currentNetValue",
          "type": "uint256"
        },
        {
          "internalType": "uint256",
          "name": "start_",
          "type": "uint256"
        },
        {
          "internalType": "uint256",
          "name": "duration_",
          "type": "uint256"
        }
      ],
      "stateMutability": "view",
      "type": "function"
    },
    {
      "inputs": [
        {
          "internalType": "address",
          "name": "receiver",
          "type": "address"
        },
        {
          "internalType": "uint256",
          "name": "timestamp",
          "type": "uint256"
        }
      ],
      "name": "getReceiverInfoTimestamp",
      "outputs": [
        {
          "internalType": "uint256",
          "name": "shares",
          "type": "uint256"
        },
        {
          "internalType": "uint256",
          "name": "totalInvested",
          "type": "uint256"
        },
        {
          "internalType": "uint256",
          "name": "totalPlatformFee",
          "type": "uint256"
        },
        {
          "internalType": "uint256",
          "name": "currentValue",
          "type": "uint256"
        },
        {
          "internalType": "uint256",
          "name": "currentNetValue",
          "type": "uint256"
        },
        {
          "internalType": "uint256",
          "name": "start_",
          "type": "uint256"
        },
        {
          "internalType": "uint256",
          "name": "duration_",
          "type": "uint256"
        }
      ],
      "stateMutability": "view",
      "type": "function"
    },
    {
      "inputs": [],
      "name": "holders",
      "outputs": [
        {
          "internalType": "address[]",
          "name": "",
          "type": "address[]"
        }
      ],
      "stateMutability": "view",
      "type": "function"
    },
    {
      "inputs": [],
      "name": "identityRegistry",
      "outputs": [
        {
          "internalType": "contract IIdentityRegistry",
          "name": "",
          "type": "address"
        }
      ],
      "stateMutability": "view",
      "type": "function"
    },
    {
      "inputs": [
        {
          "internalType": "address",
          "name": "spender",
          "type": "address"
        },
        {
          "internalType": "uint256",
          "name": "addedValue",
          "type": "uint256"
        }
      ],
      "name": "increaseAllowance",
      "outputs": [
        {
          "internalType": "bool",
          "name": "",
          "type": "bool"
        }
      ],
      "stateMutability": "nonpayable",
      "type": "function"
    },
    {
      "inputs": [
        {
          "internalType": "uint256",
          "name": "increase",
          "type": "uint256"
        }
      ],
      "name": "increaseMaxAssets",
      "outputs": [
        {
          "internalType": "uint256",
          "name": "",
          "type": "uint256"
        }
      ],
      "stateMutability": "nonpayable",
      "type": "function"
    },
    {
      "inputs": [
        {
          "internalType": "address",
          "name": "_agent",
          "type": "address"
        }
      ],
      "name": "isAgent",
      "outputs": [
        {
          "internalType": "bool",
          "name": "",
          "type": "bool"
        }
      ],
      "stateMutability": "view",
      "type": "function"
    },
    {
      "inputs": [
        {
          "internalType": "address",
          "name": "_userAddress",
          "type": "address"
        }
      ],
      "name": "isFrozen",
      "outputs": [
        {
          "internalType": "bool",
          "name": "",
          "type": "bool"
        }
      ],
      "stateMutability": "view",
      "type": "function"
    },
    {
      "inputs": [],
      "name": "maxAssets",
      "outputs": [
        {
          "internalType": "uint256",
          "name": "",
          "type": "uint256"
        }
      ],
      "stateMutability": "view",
      "type": "function"
    },
    {
      "inputs": [
        {
          "internalType": "address",
          "name": "",
          "type": "address"
        }
      ],
      "name": "maxDeposit",
      "outputs": [
        {
          "internalType": "uint256",
          "name": "",
          "type": "uint256"
        }
      ],
      "stateMutability": "view",
      "type": "function"
    },
    {
      "inputs": [
        {
          "internalType": "address",
          "name": "owner",
          "type": "address"
        }
      ],
      "name": "maxRedeem",
      "outputs": [
        {
          "internalType": "uint256",
          "name": "",
          "type": "uint256"
        }
      ],
      "stateMutability": "view",
      "type": "function"
    },
    {
      "inputs": [
        {
          "internalType": "address",
          "name": "owner",
          "type": "address"
        },
        {
          "internalType": "address",
          "name": "receiver",
          "type": "address"
        },
        {
          "internalType": "uint256",
          "name": "timestamp",
          "type": "uint256"
        }
      ],
      "name": "maxWithdraw",
      "outputs": [
        {
          "internalType": "uint256",
          "name": "",
          "type": "uint256"
        }
      ],
      "stateMutability": "view",
      "type": "function"
    },
    {
      "inputs": [
        {
          "internalType": "address",
          "name": "_to",
          "type": "address"
        },
        {
          "internalType": "uint256",
          "name": "_amount",
          "type": "uint256"
        }
      ],
      "name": "mint",
      "outputs": [],
      "stateMutability": "nonpayable",
      "type": "function"
    },
    {
      "inputs": [],
      "name": "name",
      "outputs": [
        {
          "internalType": "string",
          "name": "",
          "type": "string"
        }
      ],
      "stateMutability": "view",
      "type": "function"
    },
    {
      "inputs": [],
      "name": "nominalValue",
      "outputs": [
        {
          "internalType": "UD60x18",
          "name": "",
          "type": "uint256"
        }
      ],
      "stateMutability": "view",
      "type": "function"
    },
    {
      "inputs": [],
      "name": "onchainID",
      "outputs": [
        {
          "internalType": "address",
          "name": "",
          "type": "address"
        }
      ],
      "stateMutability": "view",
      "type": "function"
    },
    {
      "inputs": [],
      "name": "owner",
      "outputs": [
        {
          "internalType": "address",
          "name": "",
          "type": "address"
        }
      ],
      "stateMutability": "view",
      "type": "function"
    },
    {
      "inputs": [],
      "name": "paused",
      "outputs": [
        {
          "internalType": "bool",
          "name": "",
          "type": "bool"
        }
      ],
      "stateMutability": "view",
      "type": "function"
    },
    {
      "inputs": [
        {
          "internalType": "uint256",
          "name": "assets",
          "type": "uint256"
        },
        {
          "internalType": "uint256",
          "name": "timestamp",
          "type": "uint256"
        }
      ],
      "name": "previewDeposit",
      "outputs": [
        {
          "internalType": "uint256",
          "name": "",
          "type": "uint256"
        }
      ],
      "stateMutability": "view",
      "type": "function"
    },
    {
      "inputs": [
        {
          "internalType": "uint256",
          "name": "shares",
          "type": "uint256"
        },
        {
          "internalType": "address",
          "name": "receiver",
          "type": "address"
        },
        {
          "internalType": "uint256",
          "name": "timestamp",
          "type": "uint256"
        }
      ],
      "name": "previewRedeem",
      "outputs": [
        {
          "internalType": "uint256",
          "name": "",
          "type": "uint256"
        }
      ],
      "stateMutability": "view",
      "type": "function"
    },
    {
      "inputs": [
        {
          "internalType": "address",
          "name": "_lostWallet",
          "type": "address"
        },
        {
          "internalType": "address",
          "name": "_newWallet",
          "type": "address"
        },
        {
          "internalType": "address",
          "name": "_investorOnchainID",
          "type": "address"
        }
      ],
      "name": "recoveryAddress",
      "outputs": [
        {
          "internalType": "bool",
          "name": "",
          "type": "bool"
        }
      ],
      "stateMutability": "nonpayable",
      "type": "function"
    },
    {
      "inputs": [],
      "name": "redeemAll",
      "outputs": [],
      "stateMutability": "nonpayable",
      "type": "function"
    },
    {
      "inputs": [
        {
          "internalType": "address",
          "name": "_agent",
          "type": "address"
        }
      ],
      "name": "removeAgent",
      "outputs": [],
      "stateMutability": "nonpayable",
      "type": "function"
    },
    {
      "inputs": [],
      "name": "renounceOwnership",
      "outputs": [],
      "stateMutability": "nonpayable",
      "type": "function"
    },
    {
      "inputs": [
        {
          "internalType": "address",
          "name": "_userAddress",
          "type": "address"
        },
        {
          "internalType": "bool",
          "name": "_freeze",
          "type": "bool"
        }
      ],
      "name": "setAddressFrozen",
      "outputs": [],
      "stateMutability": "nonpayable",
      "type": "function"
    },
    {
      "inputs": [
        {
          "internalType": "address",
          "name": "_compliance",
          "type": "address"
        }
      ],
      "name": "setCompliance",
      "outputs": [],
      "stateMutability": "nonpayable",
      "type": "function"
    },
    {
      "inputs": [
        {
          "internalType": "address",
          "name": "_identityRegistry",
          "type": "address"
        }
      ],
      "name": "setIdentityRegistry",
      "outputs": [],
      "stateMutability": "nonpayable",
      "type": "function"
    },
    {
      "inputs": [
        {
          "internalType": "address",
          "name": "_onchainID",
          "type": "address"
        }
      ],
      "name": "setOnchainID",
      "outputs": [],
      "stateMutability": "nonpayable",
      "type": "function"
    },
    {
      "inputs": [
        {
          "internalType": "uint64",
          "name": "yield_",
          "type": "uint64"
        }
      ],
      "name": "setYield",
      "outputs": [],
      "stateMutability": "nonpayable",
      "type": "function"
    },
    {
      "inputs": [],
      "name": "start",
      "outputs": [
        {
          "internalType": "uint256",
          "name": "",
          "type": "uint256"
        }
      ],
      "stateMutability": "view",
      "type": "function"
    },
    {
      "inputs": [],
      "name": "symbol",
      "outputs": [
        {
          "internalType": "string",
          "name": "",
          "type": "string"
        }
      ],
      "stateMutability": "view",
      "type": "function"
    },
    {
      "inputs": [],
      "name": "totalAssets",
      "outputs": [
        {
          "internalType": "uint256",
          "name": "",
          "type": "uint256"
        }
      ],
      "stateMutability": "view",
      "type": "function"
    },
    {
      "inputs": [],
      "name": "totalSupply",
      "outputs": [
        {
          "internalType": "uint256",
          "name": "",
          "type": "uint256"
        }
      ],
      "stateMutability": "view",
      "type": "function"
    },
    {
      "inputs": [
        {
          "internalType": "address",
          "name": "to",
          "type": "address"
        },
        {
          "internalType": "uint256",
          "name": "amount",
          "type": "uint256"
        }
      ],
      "name": "transfer",
      "outputs": [
        {
          "internalType": "bool",
          "name": "",
          "type": "bool"
        }
      ],
      "stateMutability": "nonpayable",
      "type": "function"
    },
    {
      "inputs": [
        {
          "internalType": "address",
          "name": "from",
          "type": "address"
        },
        {
          "internalType": "address",
          "name": "to",
          "type": "address"
        },
        {
          "internalType": "uint256",
          "name": "amount",
          "type": "uint256"
        }
      ],
      "name": "transferFrom",
      "outputs": [
        {
          "internalType": "bool",
          "name": "",
          "type": "bool"
        }
      ],
      "stateMutability": "nonpayable",
      "type": "function"
    },
    {
      "inputs": [
        {
          "internalType": "address",
          "name": "newOwner",
          "type": "address"
        }
      ],
      "name": "transferOwnership",
      "outputs": [],
      "stateMutability": "nonpayable",
      "type": "function"
    },
    {
      "inputs": [
        {
          "internalType": "address",
          "name": "_userAddress",
          "type": "address"
        },
        {
          "internalType": "uint256",
          "name": "_amount",
          "type": "uint256"
        }
      ],
      "name": "unfreezePartialTokens",
      "outputs": [],
      "stateMutability": "nonpayable",
      "type": "function"
    },
    {
      "inputs": [],
      "name": "version",
      "outputs": [
        {
          "internalType": "string",
          "name": "",
          "type": "string"
        }
      ],
      "stateMutability": "pure",
      "type": "function"
    },
    {
      "inputs": [
        {
          "internalType": "address",
          "name": "destination",
          "type": "address"
        },
        {
          "internalType": "uint256",
          "name": "amount",
          "type": "uint256"
        }
      ],
      "name": "withdrawAssets",
      "outputs": [],
      "stateMutability": "nonpayable",
      "type": "function"
    },
    {
      "inputs": [],
      "name": "yield",
      "outputs": [
        {
          "internalType": "uint64",
          "name": "",
          "type": "uint64"
        }
      ],
      "stateMutability": "view",
      "type": "function"
    }
  ],
  "bytecode": "0x60e060405261016d60435562000029604354670de0b6b3a764000062000026919062000700565b90565b604455670de0b6b3a7640000604555683635c9adc5dea0000060465564e8d4a510006048556108ca6049556000604a5562000073604954655af3107a400062000026919062000700565b604b5562000090604a54655af3107a400062000026919062000700565b604c55348015620000a057600080fd5b50604051620050b0380380620050b0833981016040819052620000c3916200082e565b82828c8c8c8583836003620000d98382620009bd565b506004620000e88282620009bd565b50506005805460ff1916905550620001003362000259565b600780546001600160a01b0319166001600160a01b0383161790556200012686620002b3565b620001318562000307565b6007546001600160a01b03166200014762000428565b60405162000156919062000a89565b60405190819003902062000169620004c2565b60405162000178919062000a89565b60405180910390207f6a1105ac8148a3c319adbc369f9072573e8a11d3a3d195e067e7c40767ec54d18560405180604001604052806005815260200164342e302e3160d81b815250604051620001d092919062000aa7565b60405180910390a4505050506001600160a01b038816608052505060a088905260c0879052604080546001600160401b0319166001600160401b038716908117909155620002359062000229906402540be40062000ae6565b6001600160401b031690565b60475560428490556200024833620004d3565b505050505050505050505062000b14565b600580546001600160a01b03838116610100818102610100600160a81b031985161790945560405193909204169182907f8be0079c531659141344cd1fd0a4f28419497f9722a3daafe3b4186f6b6457e090600090a35050565b620002bd6200057d565b600a80546001600160a01b0319166001600160a01b0383169081179091556040517fd2be862d755bca7e0d39772b2cab3a5578da9c285f69199f4c063c2294a7f36c90600090a250565b620003116200057d565b600b546001600160a01b0316156200038357600b5460405163040db3b560e41b81523060048201526001600160a01b03909116906340db3b5090602401600060405180830381600087803b1580156200036957600080fd5b505af11580156200037e573d6000803e3d6000fd5b505050505b600b80546001600160a01b0319166001600160a01b038316908117909155604051631ffad50160e11b8152306004820152633ff5aa0290602401600060405180830381600087803b158015620003d857600080fd5b505af1158015620003ed573d6000803e3d6000fd5b50506040516001600160a01b03841692507f7f3a888862559648ec01d97deb7b5012bff86dc91e654a1de397170db40e35b69150600090a250565b60606004805462000439906200092e565b80601f016020809104026020016040519081016040528092919081815260200182805462000467906200092e565b8015620004b85780601f106200048c57610100808354040283529160200191620004b8565b820191906000526020600020905b8154815290600101906020018083116200049a57829003601f168201915b5050505050905090565b60606003805462000439906200092e565b620004dd6200057d565b6001600160a01b038116620005395760405162461bcd60e51b815260206004820152601f60248201527f696e76616c696420617267756d656e74202d207a65726f20616464726573730060448201526064015b60405180910390fd5b62000546600682620005e1565b6040516001600160a01b038216907ff68e73cec97f2d70aa641fb26e87a4383686e2efacb648f2165aeb02ac562ec590600090a250565b6005546001600160a01b03610100909104163314620005df5760405162461bcd60e51b815260206004820181905260248201527f4f776e61626c653a2063616c6c6572206973206e6f7420746865206f776e6572604482015260640162000530565b565b620005ed828262000661565b156200063c5760405162461bcd60e51b815260206004820152601f60248201527f526f6c65733a206163636f756e7420616c72656164792068617320726f6c6500604482015260640162000530565b6001600160a01b0316600090815260209190915260409020805460ff19166001179055565b60006001600160a01b038216620006c65760405162461bcd60e51b815260206004820152602260248201527f526f6c65733a206163636f756e7420697320746865207a65726f206164647265604482015261737360f01b606482015260840162000530565b506001600160a01b03811660009081526020839052604090205460ff165b92915050565b634e487b7160e01b600052601160045260246000fd5b8082028115828204841417620006e457620006e4620006ea565b634e487b7160e01b600052604160045260246000fd5b60005b838110156200074d57818101518382015260200162000733565b50506000910152565b600082601f8301126200076857600080fd5b81516001600160401b03808211156200078557620007856200071a565b604051601f8301601f19908116603f01168101908282118183101715620007b057620007b06200071a565b81604052838152866020858801011115620007ca57600080fd5b620007dd84602083016020890162000730565b9695505050505050565b805160ff81168114620007f957600080fd5b919050565b80516001600160a01b0381168114620007f957600080fd5b80516001600160401b0381168114620007f957600080fd5b60008060008060008060008060008060006101608c8e0312156200085157600080fd5b8b516001600160401b038111156200086857600080fd5b620008768e828f0162000756565b60208e0151909c5090506001600160401b038111156200089557600080fd5b620008a38e828f0162000756565b9a5050620008b460408d01620007e7565b985060608c0151975060808c01519650620008d260a08d01620007fe565b9550620008e260c08d0162000816565b945060e08c01519350620008fa6101008d01620007fe565b92506200090b6101208d01620007fe565b91506200091c6101408d01620007fe565b90509295989b509295989b9093969950565b600181811c908216806200094357607f821691505b6020821081036200096457634e487b7160e01b600052602260045260246000fd5b50919050565b601f821115620009b857600081815260208120601f850160051c81016020861015620009935750805b601f850160051c820191505b81811015620009b4578281556001016200099f565b5050505b505050565b81516001600160401b03811115620009d957620009d96200071a565b620009f181620009ea84546200092e565b846200096a565b602080601f83116001811462000a29576000841562000a105750858301515b600019600386901b1c1916600185901b178555620009b4565b600085815260208120601f198616915b8281101562000a5a5788860151825594840194600190910190840162000a39565b508582101562000a795787850151600019600388901b60f8161c191681555b5050505050600190811b01905550565b6000825162000a9d81846020870162000730565b9190910192915050565b60ff83168152604060208201526000825180604084015262000ad181606085016020870162000730565b601f01601f1916919091016060019392505050565b6001600160401b0381811683821602808216919082811462000b0c5762000b0c620006ea565b505092915050565b60805160a05160c05161451862000b986000396000818161040201528181610eb401528181612b5f01528181612b8b0152612df801526000818161077101528181610e910152818161218b01528181612b340152818161308501526130fa01526000818161050801528181611be701528181612aad0152612e6401526145186000f3fe608060405234801561001057600080fd5b50600436106103995760003560e01c80637a7af70d116101e9578063b53a0e011161010f578063db2088f4116100ad578063e75722301161007c578063e757223014610820578063efb65e8914610833578063f2fde38b14610846578063f89817891461085957600080fd5b8063db2088f4146107ce578063dd62ed3e146107e1578063dd80687314610736578063e5839836146107f457600080fd5b8063be9a6555116100e9578063be9a65551461076f578063c69c09cf14610795578063cbf3f861146107a8578063d905777e146107bb57600080fd5b8063b53a0e0114610736578063baadf18b14610749578063bc157ac11461075c57600080fd5b806397a6278e11610187578063a046765411610156578063a0467654146106f6578063a457c2d7146106ff578063a9059cbb14610712578063aba637051461072557600080fd5b806397a6278e146106b45780639bb04895146106c75780639dc29fac146106d05780639fc1d0e7146106e357600080fd5b80638da5cb5b116101c35780638da5cb5b1461067b5780639285948a1461069157806394b2294b146106a457806395d89b41146106ac57600080fd5b80637a7af70d146106405780638188f71c1461065357806384e798421461066857600080fd5b8063313ce567116102ce578063457d40ac1161026c5780635c975abb1161023b5780635c975abb146106095780636290865d1461061457806370a0823114610625578063715018a61461063857600080fd5b8063457d40ac1461057a5780634a753dde1461058d57806354fd4d50146105d557806356433724146105f657600080fd5b806339509351116102a8578063395093511461052c5780633d1ddc5b1461053f578063402d267d1461055257806340c10f191461056757600080fd5b8063313ce567146104ee57806334fbc9a1146104fd57806338d52e0f1461050657600080fd5b8063158b1a571161033b5780631ffbb064116103155780631ffbb064146104a457806323b872dd146104b757806328593984146104ca5780632f4350c2146104e657600080fd5b8063158b1a571461046057806318160ddd146104895780631fe56f7d1461049157600080fd5b8063095ea7b311610377578063095ea7b3146103dd5780630fb5a6b414610400578063125c4a3314610426578063134e18f41461043b57600080fd5b806301e1d1141461039e57806306fdde03146103b557806307cda1db146103ca575b600080fd5b6041545b6040519081526020015b60405180910390f35b6103bd61086c565b6040516103ac91906140a2565b6103a26103d83660046140b5565b6108fe565b6103f06103eb3660046140e5565b610950565b60405190151581526020016103ac565b7f00000000000000000000000000000000000000000000000000000000000000006103a2565b6104396104343660046140e5565b61096a565b005b600a546001600160a01b03165b6040516001600160a01b0390911681526020016103ac565b6103a261046e36600461410f565b6001600160a01b031660009081526009602052604090205490565b6002546103a2565b61043961049f3660046140e5565b610a90565b6103f06104b236600461410f565b610bb9565b6103f06104c536600461412a565b610bc6565b60408054905167ffffffffffffffff90911681526020016103ac565b610439610be9565b604051600681526020016103ac565b6103a2604a5481565b7f0000000000000000000000000000000000000000000000000000000000000000610448565b6103f061053a3660046140e5565b610cad565b61043961054d36600461410f565b610ccf565b6103a261056036600461410f565b5060425490565b6104396105753660046140e5565b610d8b565b610439610588366004614166565b610dbe565b6105a061059b3660046140e5565b610e29565b604080519788526020880196909652948601939093526060850191909152608084015260a083015260c082015260e0016103ac565b604080518082019091526005815264342e302e3160d81b60208201526103bd565b6103a261060436600461412a565b610ee1565b60055460ff166103f0565b600b546001600160a01b0316610448565b6103a261063336600461410f565b610f11565b610439610f2c565b6103a261064e366004614190565b610f40565b61065b610f62565b6040516103ac91906141b2565b61043961067636600461410f565b610fc3565b60055461010090046001600160a01b0316610448565b6103f061069f3660046141ff565b611063565b6042546103a2565b6103bd6113c7565b6104396106c236600461410f565b6113d6565b6103a260465481565b6104396106de3660046140e5565b611476565b6103f06106f136600461412a565b61162a565b6103a260495481565b6103f061070d3660046140e5565b611892565b6103f06107203660046140e5565b611918565b6007546001600160a01b0316610448565b6103a2610744366004614242565b611930565b6105a061075736600461410f565b611957565b6103a261076a366004614242565b611983565b7f00000000000000000000000000000000000000000000000000000000000000006103a2565b6104396107a3366004614275565b611a9a565b6104396107b636600461410f565b611b14565b6103a26107c936600461410f565b611b66565b6103a26107dc366004614190565b611b71565b6103a26107ef3660046142ac565b611b7f565b6103f061080236600461410f565b6001600160a01b031660009081526008602052604090205460ff1690565b6103a261082e3660046140b5565b611baa565b6104396108413660046140e5565b611bbd565b61043961085436600461410f565b611c0d565b61043961086736600461410f565b611c83565b60606003805461087b906142df565b80601f01602080910402602001604051908101604052809291908181526020018280546108a7906142df565b80156108f45780601f106108c9576101008083540402835291602001916108f4565b820191906000526020600020905b8154815290600101906020018083116108d757829003601f168201915b5050505050905090565b600061090933610bb9565b61092e5760405162461bcd60e51b815260040161092590614319565b60405180910390fd5b8160426000828254610940919061437d565b909155505060425490505b919050565b60003361095e818585611d9d565b60019150505b92915050565b61097333610bb9565b61098f5760405162461bcd60e51b815260040161092590614319565b600061099a83610f11565b6001600160a01b0384166000908152600960205260409020549091506109c190839061437d565b811015610a105760405162461bcd60e51b815260206004820181905260248201527f416d6f756e74206578636565647320617661696c61626c652062616c616e63656044820152606401610925565b6001600160a01b038316600090815260096020526040902054610a3490839061437d565b6001600160a01b038416600081815260096020526040908190209290925590517fa065e63c631c86f1b9f66a4a2f63f2093bf1c2168d23290259dbd969e0222a4590610a839085815260200190565b60405180910390a2505050565b610a9933610bb9565b610ab55760405162461bcd60e51b815260040161092590614319565b6001600160a01b038216600090815260096020526040902054811115610b3a5760405162461bcd60e51b815260206004820152603460248201527f416d6f756e742073686f756c64206265206c657373207468616e206f7220657160448201527375616c20746f2066726f7a656e20746f6b656e7360601b6064820152608401610925565b6001600160a01b038216600090815260096020526040902054610b5e908290614390565b6001600160a01b038316600081815260096020526040908190209290925590517f9bed35cb62ad0dba04f9d5bfee4b5bc91443e77da8a65c4c84834c51bb08b0d690610bad9084815260200190565b60405180910390a25050565b6000610964600683611ec2565b600080610bd4858585611f45565b9050610bdf846120cd565b90505b9392505050565b610bf233610bb9565b610c0e5760405162461bcd60e51b815260040161092590614319565b60005b603d54811015610caa576000603d8281548110610c3057610c306143a3565b6000918252602090912001546001600160a01b03169050610c69816001600160a01b031660009081526008602052604090205460ff1690565b610c97576000610c7882610f11565b90508015610c9557610c93818384610c8e61217b565b6121b4565b505b505b5080610ca2816143b9565b915050610c11565b50565b60003361095e818585610cc08383611b7f565b610cca919061437d565b611d9d565b610cd7612222565b600780546001600160a01b0319166001600160a01b038316908117909155610cfd6113c7565b604051610d0a91906143d2565b6040518091039020610d1a61086c565b604051610d2791906143d2565b60405180910390207f6a1105ac8148a3c319adbc369f9072573e8a11d3a3d195e067e7c40767ec54d1610d58600690565b6040805180820182526005815264342e302e3160d81b60208201529051610d809291906143ee565b60405180910390a450565b610d9433610bb9565b610db05760405162461bcd60e51b815260040161092590614319565b610dba8282612282565b5050565b610dc733610bb9565b610de35760405162461bcd60e51b815260040161092590614319565b6040805467ffffffffffffffff191667ffffffffffffffff8316908117909155610e2390610e16906402540be40061440a565b67ffffffffffffffff1690565b60475550565b6000806000806000806000610e3d89610f11565b6001600160a01b038a166000908152603e6020908152604080832054603f9092529091205491985096509450610e7f610e758a610f11565b878a600080612472565b9350610e8d610e758a610f11565b92507f000000000000000000000000000000000000000000000000000000000000000091507f0000000000000000000000000000000000000000000000000000000000000000905092959891949750929550565b6000610bdf610eef85610f11565b6001600160a01b0385166000908152603e602052604081205490859080612472565b6001600160a01b031660009081526020819052604090205490565b610f34612222565b610f3e60006124c4565b565b600080610f4c8461251e565b9050610f5a81846000612552565b949350505050565b6060603d8054806020026020016040519081016040528092919081815260200182805480156108f457602002820191906000526020600020905b81546001600160a01b03168152600190910190602001808311610f9c575050505050905090565b610fcb612222565b6001600160a01b0381166110215760405162461bcd60e51b815260206004820152601f60248201527f696e76616c696420617267756d656e74202d207a65726f2061646472657373006044820152606401610925565b61102c60068261255e565b6040516001600160a01b038216907ff68e73cec97f2d70aa641fb26e87a4383686e2efacb648f2165aeb02ac562ec590600090a250565b600061106e33610bb9565b61108a5760405162461bcd60e51b815260040161092590614319565b61109384610f11565b6000036110d95760405162461bcd60e51b81526020600482015260146024820152733737903a37b5b2b739903a37903932b1b7bb32b960611b6044820152606401610925565b604080516001600160a01b038516602082015283916000910160408051808303601f1901815290829052805160209091012063d202158d60e01b8252600482018190526001602483015291506001600160a01b0383169063d202158d90604401602060405180830381865afa158015611156573d6000803e3d6000fd5b505050506040513d601f19601f8201168201806040525081019061117a919061442e565b1561138757600061118a87610f11565b6001600160a01b038881166000818152600960205260409081902054600a549151637e42683b60e01b815260048101939093529394509091169063454a03e090899087908490637e42683b90602401602060405180830381865afa1580156111f6573d6000803e3d6000fd5b505050506040513d601f19601f8201168201806040525081019061121a919061444b565b6040516001600160e01b031960e086901b1681526001600160a01b03938416600482015292909116602483015261ffff166044820152606401600060405180830381600087803b15801561126d57600080fd5b505af1158015611281573d6000803e3d6000fd5b5050505061129088888461162a565b5080156112a1576112a1878261096a565b6001600160a01b03881660009081526008602052604090205460ff1615156001036112d1576112d1876001611a9a565b600a5460405163a8d29d1d60e01b81526001600160a01b038a811660048301529091169063a8d29d1d90602401600060405180830381600087803b15801561131857600080fd5b505af115801561132c573d6000803e3d6000fd5b50505050856001600160a01b0316876001600160a01b0316896001600160a01b03167ff0c9129a94f30f1caaceb63e44b9811d0a3edf1d6c23757f346093af5553fed060405160405180910390a46001945050505050610be2565b60405162461bcd60e51b81526020600482015260156024820152745265636f76657279206e6f7420706f737369626c6560581b6044820152606401610925565b60606004805461087b906142df565b6113de612222565b6001600160a01b0381166114345760405162461bcd60e51b815260206004820152601f60248201527f696e76616c696420617267756d656e74202d207a65726f2061646472657373006044820152606401610925565b61143f6006826125da565b6040516001600160a01b038216907fed9c8ad8d5a0a66898ea49d2956929c93ae2e8bd50281b2ed897c5d1a6737e0b90600090a250565b61147f33610bb9565b61149b5760405162461bcd60e51b815260040161092590614319565b806114a583610f11565b10156114f35760405162461bcd60e51b815260206004820152601d60248201527f63616e6e6f74206275726e206d6f7265207468616e2062616c616e63650000006044820152606401610925565b6001600160a01b03821660009081526009602052604081205461151584610f11565b61151f9190614390565b9050808211156115b55760006115358284614390565b6001600160a01b03851660009081526009602052604090205490915061155c908290614390565b6001600160a01b038516600081815260096020526040908190209290925590517f9bed35cb62ad0dba04f9d5bfee4b5bc91443e77da8a65c4c84834c51bb08b0d6906115ab9084815260200190565b60405180910390a2505b6115bf838361265c565b600b5460405163469753b960e11b81526001600160a01b0385811660048301526024820185905290911690638d2ea77290604401600060405180830381600087803b15801561160d57600080fd5b505af1158015611621573d6000803e3d6000fd5b50505050505050565b600061163533610bb9565b6116515760405162461bcd60e51b815260040161092590614319565b8161165b85610f11565b10156116a25760405162461bcd60e51b815260206004820152601660248201527573656e6465722062616c616e636520746f6f206c6f7760501b6044820152606401610925565b6001600160a01b0384166000908152600960205260408120546116c486610f11565b6116ce9190614390565b9050808311156117645760006116e48285614390565b6001600160a01b03871660009081526009602052604090205490915061170b908290614390565b6001600160a01b038716600081815260096020526040908190209290925590517f9bed35cb62ad0dba04f9d5bfee4b5bc91443e77da8a65c4c84834c51bb08b0d69061175a9084815260200190565b60405180910390a2505b600a5460405163b9209e3360e01b81526001600160a01b0386811660048301529091169063b9209e3390602401602060405180830381865afa1580156117ae573d6000803e3d6000fd5b505050506040513d601f19601f820116820180604052508101906117d2919061442e565b15611852576117e285858561278b565b600b546040516322ebca6d60e21b81526001600160a01b0390911690638baf29b4906118169088908890889060040161446f565b600060405180830381600087803b15801561183057600080fd5b505af1158015611844573d6000803e3d6000fd5b505050506001915050610be2565b60405162461bcd60e51b81526020600482015260156024820152745472616e73666572206e6f7420706f737369626c6560581b6044820152606401610925565b600033816118a08286611b7f565b9050838110156119005760405162461bcd60e51b815260206004820152602560248201527f45524332303a2064656372656173656420616c6c6f77616e63652062656c6f77604482015264207a65726f60d81b6064820152608401610925565b61190d8286868403611d9d565b506001949350505050565b6000806119258484612932565b9050610be2846120cd565b6001600160a01b0382166000908152603e6020526040812054610bdf908590848480612472565b600080600080600080600061196c8842610e29565b959e949d50929b5090995097509550909350915050565b60008061198f60425490565b9050808561199c60415490565b6119a6919061437d565b11156119de57604051633c8097d960e11b81526001600160a01b03851660048201526024810186905260448101829052606401610925565b60006119ea8685610f40565b90506119f833868884612aa8565b611a01856120cd565b6000611a0c8761251e565b6001600160a01b0387166000908152603e6020526040812080549293508392909190611a3990849061437d565b925050819055508060416000828254611a52919061437d565b90915550611a6290508188614390565b6001600160a01b0387166000908152603f602052604081208054909190611a8a90849061437d565b9091555091979650505050505050565b611aa333610bb9565b611abf5760405162461bcd60e51b815260040161092590614319565b6001600160a01b038216600081815260086020526040808220805460ff19168515159081179091559051339391927f7fa523c84ab8d7fc5b72f08b9e46dbbf10c39e119a075b3e317002d14bc9f43691a45050565b611b1c612222565b600a80546001600160a01b0319166001600160a01b0383169081179091556040517fd2be862d755bca7e0d39772b2cab3a5578da9c285f69199f4c063c2294a7f36c90600090a250565b600061096482610f11565b6000610be283836000612552565b6001600160a01b03918216600090815260016020908152604080832093909416825291909152205490565b6000610964611bb883612b2c565b612c2e565b611bc633610bb9565b611be25760405162461bcd60e51b815260040161092590614319565b610dba7f00000000000000000000000000000000000000000000000000000000000000008383612c44565b611c15612222565b6001600160a01b038116611c7a5760405162461bcd60e51b815260206004820152602660248201527f4f776e61626c653a206e6577206f776e657220697320746865207a65726f206160448201526564647265737360d01b6064820152608401610925565b610caa816124c4565b611c8b612222565b600b546001600160a01b031615611cfa57600b5460405163040db3b560e41b81523060048201526001600160a01b03909116906340db3b5090602401600060405180830381600087803b158015611ce157600080fd5b505af1158015611cf5573d6000803e3d6000fd5b505050505b600b80546001600160a01b0319166001600160a01b038316908117909155604051631ffad50160e11b8152306004820152633ff5aa0290602401600060405180830381600087803b158015611d4e57600080fd5b505af1158015611d62573d6000803e3d6000fd5b50506040516001600160a01b03841692507f7f3a888862559648ec01d97deb7b5012bff86dc91e654a1de397170db40e35b69150600090a250565b6001600160a01b038316611dff5760405162461bcd60e51b8152602060048201526024808201527f45524332303a20617070726f76652066726f6d20746865207a65726f206164646044820152637265737360e01b6064820152608401610925565b6001600160a01b038216611e605760405162461bcd60e51b815260206004820152602260248201527f45524332303a20617070726f766520746f20746865207a65726f206164647265604482015261737360f01b6064820152608401610925565b6001600160a01b0383811660008181526001602090815260408083209487168084529482529182902085905590518481527f8c5be1e5ebec7d5bd14f71427d1e84f3dd0314c0f7b2291e5b200ac8c7c3b92591015b60405180910390a3505050565b60006001600160a01b038216611f255760405162461bcd60e51b815260206004820152602260248201527f526f6c65733a206163636f756e7420697320746865207a65726f206164647265604482015261737360f01b6064820152608401610925565b506001600160a01b03166000908152602091909152604090205460ff1690565b6000611f4f612ca7565b6001600160a01b03831660009081526008602052604090205460ff16158015611f9157506001600160a01b03841660009081526008602052604090205460ff16155b611fd05760405162461bcd60e51b815260206004820152601060248201526f3bb0b63632ba1034b990333937bd32b760811b6044820152606401610925565b6001600160a01b038416600090815260096020526040902054611ff285610f11565b611ffc9190614390565b8211156120425760405162461bcd60e51b8152602060048201526014602482015273496e73756666696369656e742042616c616e636560601b6044820152606401610925565b61204d848484612ced565b156118525761205d848484612dd8565b50600b546040516322ebca6d60e21b81526001600160a01b0390911690638baf29b4906120929087908790879060040161446f565b600060405180830381600087803b1580156120ac57600080fd5b505af11580156120c0573d6000803e3d6000fd5b5050505060019050610be2565b60005b603d54811015612128576000603d82815481106120ef576120ef6143a3565b6000918252602090912001546001600160a01b0390811691508316810361211557505050565b5080612120816143b9565b9150506120d0565b50603d80546001810182556000919091527fece66cfdbd22e3f37d348a3d8e19074452862cd65fd4b9a11f0336d1ac6d1dc30180546001600160a01b0319166001600160a01b0392909216919091179055565b6000612185612df1565b6121af907f000000000000000000000000000000000000000000000000000000000000000061437d565b905090565b6000806121c084611b66565b9050808611156121fc57604051632e52afbb60e21b81526001600160a01b03851660048201526024810187905260448101829052606401610925565b6000612209878786611930565b9050612218338787848b612e34565b9695505050505050565b6005546001600160a01b03610100909104163314610f3e5760405162461bcd60e51b815260206004820181905260248201527f4f776e61626c653a2063616c6c6572206973206e6f7420746865206f776e65726044820152606401610925565b600a5460405163b9209e3360e01b81526001600160a01b0384811660048301529091169063b9209e3390602401602060405180830381865afa1580156122cc573d6000803e3d6000fd5b505050506040513d601f19601f820116820180604052508101906122f0919061442e565b61233c5760405162461bcd60e51b815260206004820152601960248201527f4964656e74697479206973206e6f742076657269666965642e000000000000006044820152606401610925565b600b546040516372331c7360e11b81526001600160a01b039091169063e46638e690612371906000908690869060040161446f565b602060405180830381865afa15801561238e573d6000803e3d6000fd5b505050506040513d601f19601f820116820180604052508101906123b2919061442e565b6123fe5760405162461bcd60e51b815260206004820152601760248201527f436f6d706c69616e6365206e6f7420666f6c6c6f7765640000000000000000006044820152606401610925565b6124088282612f39565b600b54604051635f8dead360e01b81526001600160a01b0384811660048301526024820184905290911690635f8dead390604401600060405180830381600087803b15801561245657600080fd5b505af115801561246a573d6000803e3d6000fd5b505050505050565b60008061248a60465461248489612ff8565b9061300b565b9050600061249782612c2e565b905084156124b2576124a9878261301a565b925050506124bb565b91506124bb9050565b95945050505050565b600580546001600160a01b03838116610100818102610100600160a81b031985161790945560405193909204169182907f8be0079c531659141344cd1fd0a4f28419497f9722a3daafe3b4186f6b6457e090600090a35050565b60008061252a83612ff8565b90506000610f5a611bb861254b604c5460455461307290919063ffffffff16565b849061300b565b6000610bdf8484613081565b6125688282611ec2565b156125b55760405162461bcd60e51b815260206004820152601f60248201527f526f6c65733a206163636f756e7420616c72656164792068617320726f6c65006044820152606401610925565b6001600160a01b0316600090815260209190915260409020805460ff19166001179055565b6125e48282611ec2565b61263a5760405162461bcd60e51b815260206004820152602160248201527f526f6c65733a206163636f756e7420646f6573206e6f74206861766520726f6c6044820152606560f81b6064820152608401610925565b6001600160a01b0316600090815260209190915260409020805460ff19169055565b6001600160a01b0382166126bc5760405162461bcd60e51b815260206004820152602160248201527f45524332303a206275726e2066726f6d20746865207a65726f206164647265736044820152607360f81b6064820152608401610925565b6001600160a01b038216600090815260208190526040902054818110156127305760405162461bcd60e51b815260206004820152602260248201527f45524332303a206275726e20616d6f756e7420657863656564732062616c616e604482015261636560f01b6064820152608401610925565b6001600160a01b0383166000818152602081815260408083208686039055600280548790039055518581529192917fddf252ad1be2c89b69c2b068fc378daa952ba7f163c4a11628f55a4df523b3ef9101611eb5565b505050565b6001600160a01b0383166127ef5760405162461bcd60e51b815260206004820152602560248201527f45524332303a207472616e736665722066726f6d20746865207a65726f206164604482015264647265737360d81b6064820152608401610925565b6001600160a01b0382166128515760405162461bcd60e51b815260206004820152602360248201527f45524332303a207472616e7366657220746f20746865207a65726f206164647260448201526265737360e81b6064820152608401610925565b6001600160a01b038316600090815260208190526040902054818110156128c95760405162461bcd60e51b815260206004820152602660248201527f45524332303a207472616e7366657220616d6f756e7420657863656564732062604482015265616c616e636560d01b6064820152608401610925565b6001600160a01b03848116600081815260208181526040808320878703905593871680835291849020805487019055925185815290927fddf252ad1be2c89b69c2b068fc378daa952ba7f163c4a11628f55a4df523b3ef91015b60405180910390a35b50505050565b600061293c612ca7565b6001600160a01b03831660009081526008602052604090205460ff1615801561297557503360009081526008602052604090205460ff16155b6129b45760405162461bcd60e51b815260206004820152601060248201526f3bb0b63632ba1034b990333937bd32b760811b6044820152606401610925565b33600081815260096020526040902054906129ce90610f11565b6129d89190614390565b821115612a1e5760405162461bcd60e51b8152602060048201526014602482015273496e73756666696369656e742042616c616e636560601b6044820152606401610925565b612a29338484612ced565b1561185257612a3933848461278b565b600b546040516322ebca6d60e21b81526001600160a01b0390911690638baf29b490612a6d9033908790879060040161446f565b600060405180830381600087803b158015612a8757600080fd5b505af1158015612a9b573d6000803e3d6000fd5b5050505060019050610964565b612ad47f000000000000000000000000000000000000000000000000000000000000000085308561319d565b612ade8382612282565b826001600160a01b0316846001600160a01b03167fdcbc1c05240f31ff3ad067ef1ee35ce4997762752e3a095284754544f4c709d78484604051612923929190918252602082015260400190565b600080612b597f0000000000000000000000000000000000000000000000000000000000000000846131be565b905060007f0000000000000000000000000000000000000000000000000000000000000000821015612bb257612baf827f0000000000000000000000000000000000000000000000000000000000000000614390565b90505b6000612bcc612bc983670de0b6b3a7640000614493565b90565b604754909150670de0b6b3a764000090600090612bea9083906131ed565b90506000612c03604454856131fc90919063ffffffff16565b90506000612c118383613214565b604654909150612c2190826131fc565b9998505050505050505050565b6000604854612c3a8390565b61096491906144c0565b6040516001600160a01b03831660248201526044810182905261278690849063a9059cbb60e01b906064015b60408051601f198184030181529190526020810180516001600160e01b03166001600160e01b031990931692909217909152613321565b60055460ff1615610f3e5760405162461bcd60e51b815260206004820152601060248201526f14185d5cd8589b194e881c185d5cd95960821b6044820152606401610925565b600a5460405163b9209e3360e01b81526001600160a01b038481166004830152600092169063b9209e3390602401602060405180830381865afa158015612d38573d6000803e3d6000fd5b505050506040513d601f19601f82011682018060405250810190612d5c919061442e565b8015610bdf5750600b546040516372331c7360e11b81526001600160a01b039091169063e46638e690612d979087908790879060040161446f565b602060405180830381865afa158015612db4573d6000803e3d6000fd5b505050506040513d601f19601f82011682018060405250810190610bdf919061442e565b600033612de68582856133f6565b61190d85858561278b565b6000612e1e7f0000000000000000000000000000000000000000000000000000000000000000603c614493565b612e2990603c614493565b6121af906018614493565b612e3e838261265c565b60405163a9059cbb60e01b81526001600160a01b038581166004830152602482018490527f0000000000000000000000000000000000000000000000000000000000000000169063a9059cbb906044016020604051808303816000875af1158015612ead573d6000803e3d6000fd5b505050506040513d601f19601f82011682018060405250810190612ed1919061442e565b50826001600160a01b0316846001600160a01b0316866001600160a01b03167ffbde797d201c681b91056529119e0b02407c7bb96a4a2c75c01fc9667232c8db8585604051612f2a929190918252602082015260400190565b60405180910390a45050505050565b6001600160a01b038216612f8f5760405162461bcd60e51b815260206004820152601f60248201527f45524332303a206d696e7420746f20746865207a65726f2061646472657373006044820152606401610925565b8060026000828254612fa1919061437d565b90915550506001600160a01b038216600081815260208181526040808320805486019055518481527fddf252ad1be2c89b69c2b068fc378daa952ba7f163c4a11628f55a4df523b3ef910160405180910390a35050565b600061096460485483612bc99190614493565b6000610be2612bc9848461346a565b6000806130278484614390565b9050600061303482612ff8565b9050600061304185612ff8565b90506000613067611bb8613060604b548661300b90919063ffffffff16565b8490613072565b979650505050505050565b6000610be2612bc98385614390565b60007f00000000000000000000000000000000000000000000000000000000000000008210156130ec5760405162461bcd60e51b8152602060048201526016602482015275151a5b595cdd185b5c081899599bdc99481cdd185c9d60521b6044820152606401610925565b6130f4612df1565b61311e907f000000000000000000000000000000000000000000000000000000000000000061437d565b8211156131635760405162461bcd60e51b8152602060048201526013602482015272151a5b595cdd185b5c0818599d195c88195b99606a1b6044820152606401610925565b600061316e8461251e565b9050600061317b82612ff8565b9050600061319261318b86612b2c565b83906131fc565b905061221881612c2e565b61292c846323b872dd60e01b858585604051602401612c709392919061446f565b60006018603c806131cf8686614390565b6131d991906144c0565b6131e391906144c0565b610be291906144c0565b6000610be2612bc9838561437d565b6000610be2612bc984670de0b6b3a764000085613520565b6000828281830361323f57801561322c576000613236565b670de0b6b3a76400005b92505050610964565b670de0b6b3a7640000820361326057670de0b6b3a764000092505050610964565b8060000361327a57670de0b6b3a764000092505050610964565b670de0b6b3a76400008103613293578492505050610964565b670de0b6b3a76400008211156132c4576132bd6132b86132b2876135f4565b8661300b565b613724565b9250613319565b60006132e2612bc9846ec097ce7bc90715b34b9f10000000006144c0565b905060006132fb6132b86132f5846135f4565b8861300b565b9050613067612bc9826ec097ce7bc90715b34b9f10000000006144c0565b505092915050565b6000613376826040518060400160405280602081526020017f5361666545524332303a206c6f772d6c6576656c2063616c6c206661696c6564815250856001600160a01b031661377a9092919063ffffffff16565b9050805160001480613397575080806020019051810190613397919061442e565b6127865760405162461bcd60e51b815260206004820152602a60248201527f5361666545524332303a204552433230206f7065726174696f6e20646964206e6044820152691bdd081cdd58d8d9595960b21b6064820152608401610925565b60006134028484611b7f565b9050600019811461292c578181101561345d5760405162461bcd60e51b815260206004820152601d60248201527f45524332303a20696e73756666696369656e7420616c6c6f77616e63650000006044820152606401610925565b61292c8484848403611d9d565b600080806000198486098486029250828110838203039150508060000361349e5750670de0b6b3a764000090049050610964565b670de0b6b3a764000081106134d057604051635173648d60e01b81526004810186905260248101859052604401610925565b6000670de0b6b3a764000085870962040000818503049310909103600160ee1b02919091177faccb18165bd6fe31ae1cf318dc5b51eee0e1ba569b88cd74c1773b91fac106690291505092915050565b600080806000198587098587029250828110838203039150508060000361355a57838281613550576135506144aa565b0492505050610be2565b83811061358b57604051630c740aef60e31b8152600481018790526024810186905260448101859052606401610925565b60008486880960026001871981018816978890046003810283188082028403028082028403028082028403028082028403028082028403029081029092039091026000889003889004909101858311909403939093029303949094049190911702949350505050565b600081670de0b6b3a76400008110156136235760405163036d32ef60e41b815260048101849052602401610925565b60006136af670de0b6b3a7640000830460016fffffffffffffffffffffffffffffffff821160071b91821c67ffffffffffffffff811160061b90811c63ffffffff811160051b90811c61ffff811160041b90811c60ff8111600390811b91821c600f811160021b90811c918211871b91821c969096119490961792909217171791909117919091171790565b9050670de0b6b3a7640000810282821c670de0b6b3a763ffff1981016136d55781612218565b671bc16d674ec800006706f05b59d3b200005b801561371857670de0b6b3a7640000838002049250818310613710579283019260019290921c915b60011c6136e8565b50919695505050505050565b600081680a688906bd8affffff8111156137545760405163b3b6ba1f60e01b815260048101849052602401610925565b600061376c670de0b6b3a7640000604084901b6144c0565b9050610f5a612bc982613789565b6060610bdf8484600085613ee9565b600160bf1b67ff00000000000000821615613896576780000000000000008216156137bd5768016a09e667f3bcc9090260401c5b6740000000000000008216156137dc576801306fe0a31b7152df0260401c5b6720000000000000008216156137fb576801172b83c7d517adce0260401c5b67100000000000000082161561381a5768010b5586cf9890f62a0260401c5b670800000000000000821615613839576801059b0d31585743ae0260401c5b67040000000000000082161561385857680102c9a3e778060ee70260401c5b6702000000000000008216156138775768010163da9fb33356d80260401c5b67010000000000000082161561389657680100b1afa5abcbed610260401c5b66ff0000000000008216156139955766800000000000008216156138c35768010058c86da1c09ea20260401c5b66400000000000008216156138e1576801002c605e2e8cec500260401c5b66200000000000008216156138ff57680100162f3904051fa10260401c5b661000000000000082161561391d576801000b175effdc76ba0260401c5b660800000000000082161561393b57680100058ba01fb9f96d0260401c5b66040000000000008216156139595768010002c5cc37da94920260401c5b6602000000000000821615613977576801000162e525ee05470260401c5b66010000000000008216156139955768010000b17255775c040260401c5b65ff0000000000821615613a8b57658000000000008216156139c0576801000058b91b5bc9ae0260401c5b654000000000008216156139dd57680100002c5c89d5ec6d0260401c5b652000000000008216156139fa5768010000162e43f4f8310260401c5b65100000000000821615613a1757680100000b1721bcfc9a0260401c5b65080000000000821615613a345768010000058b90cf1e6e0260401c5b65040000000000821615613a51576801000002c5c863b73f0260401c5b65020000000000821615613a6e57680100000162e430e5a20260401c5b65010000000000821615613a8b576801000000b1721835510260401c5b64ff00000000821615613b7857648000000000821615613ab457680100000058b90c0b490260401c5b644000000000821615613ad05768010000002c5c8601cc0260401c5b642000000000821615613aec576801000000162e42fff00260401c5b641000000000821615613b085768010000000b17217fbb0260401c5b640800000000821615613b24576801000000058b90bfce0260401c5b640400000000821615613b4057680100000002c5c85fe30260401c5b640200000000821615613b5c5768010000000162e42ff10260401c5b640100000000821615613b7857680100000000b17217f80260401c5b63ff000000821615613c5c576380000000821615613b9f5768010000000058b90bfc0260401c5b6340000000821615613bba576801000000002c5c85fe0260401c5b6320000000821615613bd557680100000000162e42ff0260401c5b6310000000821615613bf0576801000000000b17217f0260401c5b6308000000821615613c0b57680100000000058b90c00260401c5b6304000000821615613c265768010000000002c5c8600260401c5b6302000000821615613c41576801000000000162e4300260401c5b6301000000821615613c5c5768010000000000b172180260401c5b62ff0000821615613d375762800000821615613c81576801000000000058b90c0260401c5b62400000821615613c9b57680100000000002c5c860260401c5b62200000821615613cb55768010000000000162e430260401c5b62100000821615613ccf57680100000000000b17210260401c5b62080000821615613ce95768010000000000058b910260401c5b62040000821615613d03576801000000000002c5c80260401c5b62020000821615613d1d57680100000000000162e40260401c5b62010000821615613d37576801000000000000b1720260401c5b61ff00821615613e0957618000821615613d5a57680100000000000058b90260401c5b614000821615613d735768010000000000002c5d0260401c5b612000821615613d8c576801000000000000162e0260401c5b611000821615613da55768010000000000000b170260401c5b610800821615613dbe576801000000000000058c0260401c5b610400821615613dd757680100000000000002c60260401c5b610200821615613df057680100000000000001630260401c5b610100821615613e0957680100000000000000b10260401c5b60ff821615613ed2576080821615613e2a57680100000000000000590260401c5b6040821615613e42576801000000000000002c0260401c5b6020821615613e5a57680100000000000000160260401c5b6010821615613e72576801000000000000000b0260401c5b6008821615613e8a57680100000000000000060260401c5b6004821615613ea257680100000000000000030260401c5b6002821615613eba57680100000000000000010260401c5b6001821615613ed257680100000000000000010260401c5b670de0b6b3a76400000260409190911c60bf031c90565b606082471015613f4a5760405162461bcd60e51b815260206004820152602660248201527f416464726573733a20696e73756666696369656e742062616c616e636520666f6044820152651c8818d85b1b60d21b6064820152608401610925565b600080866001600160a01b03168587604051613f6691906143d2565b60006040518083038185875af1925050503d8060008114613fa3576040519150601f19603f3d011682016040523d82523d6000602084013e613fa8565b606091505b5091509150613067878383876060831561402357825160000361401c576001600160a01b0385163b61401c5760405162461bcd60e51b815260206004820152601d60248201527f416464726573733a2063616c6c20746f206e6f6e2d636f6e74726163740000006044820152606401610925565b5081610f5a565b610f5a83838151156140385781518083602001fd5b8060405162461bcd60e51b815260040161092591906140a2565b60005b8381101561406d578181015183820152602001614055565b50506000910152565b6000815180845261408e816020860160208601614052565b601f01601f19169290920160200192915050565b602081526000610be26020830184614076565b6000602082840312156140c757600080fd5b5035919050565b80356001600160a01b038116811461094b57600080fd5b600080604083850312156140f857600080fd5b614101836140ce565b946020939093013593505050565b60006020828403121561412157600080fd5b610be2826140ce565b60008060006060848603121561413f57600080fd5b614148846140ce565b9250614156602085016140ce565b9150604084013590509250925092565b60006020828403121561417857600080fd5b813567ffffffffffffffff81168114610be257600080fd5b600080604083850312156141a357600080fd5b50508035926020909101359150565b6020808252825182820181905260009190848201906040850190845b818110156141f35783516001600160a01b0316835292840192918401916001016141ce565b50909695505050505050565b60008060006060848603121561421457600080fd5b61421d846140ce565b925061422b602085016140ce565b9150614239604085016140ce565b90509250925092565b60008060006060848603121561425757600080fd5b83359250614156602085016140ce565b8015158114610caa57600080fd5b6000806040838503121561428857600080fd5b614291836140ce565b915060208301356142a181614267565b809150509250929050565b600080604083850312156142bf57600080fd5b6142c8836140ce565b91506142d6602084016140ce565b90509250929050565b600181811c908216806142f357607f821691505b60208210810361431357634e487b7160e01b600052602260045260246000fd5b50919050565b6020808252602e908201527f4167656e74526f6c653a2063616c6c657220646f6573206e6f7420686176652060408201526d746865204167656e7420726f6c6560901b606082015260800190565b634e487b7160e01b600052601160045260246000fd5b8082018082111561096457610964614367565b8181038181111561096457610964614367565b634e487b7160e01b600052603260045260246000fd5b6000600182016143cb576143cb614367565b5060010190565b600082516143e4818460208701614052565b9190910192915050565b60ff83168152604060208201526000610bdf6040830184614076565b67ffffffffffffffff81811683821602808216919082811461331957613319614367565b60006020828403121561444057600080fd5b8151610be281614267565b60006020828403121561445d57600080fd5b815161ffff81168114610be257600080fd5b6001600160a01b039384168152919092166020820152604081019190915260600190565b808202811582820484141761096457610964614367565b634e487b7160e01b600052601260045260246000fd5b6000826144dd57634e487b7160e01b600052601260045260246000fd5b50049056fea2646970667358221220ac4812caa2eb4f5f8623f14b586c43f56331cd4005089111d6032e0bd6497e0d64736f6c63430008130033",
  "linkReferences": {},
  "deployedLinkReferences": {}
}