{
  "_format": "hh-sol-artifact-1",
  "contractName": "ConditionalTransferModule",
  "sourceName": "contracts/trex/compliance/modular/modules/ConditionalTransferModule.sol",
  "abi": [
    {
      "anonymous": false,
      "inputs": [
        {
          "indexed": false,
          "internalType": "address",
          "name": "_from",
          "type": "address"
        },
        {
          "indexed": false,
          "internalType": "address",
          "name": "_to",
          "type": "address"
        },
        {
          "indexed": false,
          "internalType": "uint256",
          "name": "_amount",
          "type": "uint256"
        },
        {
          "indexed": false,
          "internalType": "address",
          "name": "_token",
          "type": "address"
        }
      ],
      "name": "ApprovalRemoved",
      "type": "event"
    },
    {
      "anonymous": false,
      "inputs": [
        {
          "indexed": true,
          "internalType": "address",
          "name": "_compliance",
          "type": "address"
        }
      ],
      "name": "ComplianceBound",
      "type": "event"
    },
    {
      "anonymous": false,
      "inputs": [
        {
          "indexed": true,
          "internalType": "address",
          "name": "_compliance",
          "type": "address"
        }
      ],
      "name": "ComplianceUnbound",
      "type": "event"
    },
    {
      "anonymous": false,
      "inputs": [
        {
          "indexed": false,
          "internalType": "address",
          "name": "_from",
          "type": "address"
        },
        {
          "indexed": false,
          "internalType": "address",
          "name": "_to",
          "type": "address"
        },
        {
          "indexed": false,
          "internalType": "uint256",
          "name": "_amount",
          "type": "uint256"
        },
        {
          "indexed": false,
          "internalType": "address",
          "name": "_token",
          "type": "address"
        }
      ],
      "name": "TransferApproved",
      "type": "event"
    },
    {
      "inputs": [
        {
          "internalType": "address",
          "name": "_from",
          "type": "address"
        },
        {
          "internalType": "address",
          "name": "_to",
          "type": "address"
        },
        {
          "internalType": "uint256",
          "name": "_amount",
          "type": "uint256"
        }
      ],
      "name": "approveTransfer",
      "outputs": [],
      "stateMutability": "nonpayable",
      "type": "function"
    },
    {
      "inputs": [
        {
          "internalType": "address[]",
          "name": "_from",
          "type": "address[]"
        },
        {
          "internalType": "address[]",
          "name": "_to",
          "type": "address[]"
        },
        {
          "internalType": "uint256[]",
          "name": "_amount",
          "type": "uint256[]"
        }
      ],
      "name": "batchApproveTransfers",
      "outputs": [],
      "stateMutability": "nonpayable",
      "type": "function"
    },
    {
      "inputs": [
        {
          "internalType": "address[]",
          "name": "_from",
          "type": "address[]"
        },
        {
          "internalType": "address[]",
          "name": "_to",
          "type": "address[]"
        },
        {
          "internalType": "uint256[]",
          "name": "_amount",
          "type": "uint256[]"
        }
      ],
      "name": "batchUnApproveTransfers",
      "outputs": [],
      "stateMutability": "nonpayable",
      "type": "function"
    },
    {
      "inputs": [
        {
          "internalType": "address",
          "name": "_compliance",
          "type": "address"
        }
      ],
      "name": "bindCompliance",
      "outputs": [],
      "stateMutability": "nonpayable",
      "type": "function"
    },
    {
      "inputs": [
        {
          "internalType": "address",
          "name": "_from",
          "type": "address"
        },
        {
          "internalType": "address",
          "name": "_to",
          "type": "address"
        },
        {
          "internalType": "uint256",
          "name": "_amount",
          "type": "uint256"
        },
        {
          "internalType": "address",
          "name": "_token",
          "type": "address"
        }
      ],
      "name": "calculateTransferHash",
      "outputs": [
        {
          "internalType": "bytes32",
          "name": "",
          "type": "bytes32"
        }
      ],
      "stateMutability": "pure",
      "type": "function"
    },
    {
      "inputs": [
        {
          "internalType": "address",
          "name": "_compliance",
          "type": "address"
        },
        {
          "internalType": "bytes32",
          "name": "_transferHash",
          "type": "bytes32"
        }
      ],
      "name": "getTransferApprovals",
      "outputs": [
        {
          "internalType": "uint256",
          "name": "",
          "type": "uint256"
        }
      ],
      "stateMutability": "view",
      "type": "function"
    },
    {
      "inputs": [
        {
          "internalType": "address",
          "name": "_compliance",
          "type": "address"
        }
      ],
      "name": "isComplianceBound",
      "outputs": [
        {
          "internalType": "bool",
          "name": "",
          "type": "bool"
        }
      ],
      "stateMutability": "view",
      "type": "function"
    },
    {
      "inputs": [
        {
          "internalType": "address",
          "name": "_compliance",
          "type": "address"
        },
        {
          "internalType": "bytes32",
          "name": "_transferHash",
          "type": "bytes32"
        }
      ],
      "name": "isTransferApproved",
      "outputs": [
        {
          "internalType": "bool",
          "name": "",
          "type": "bool"
        }
      ],
      "stateMutability": "view",
      "type": "function"
    },
    {
      "inputs": [
        {
          "internalType": "address",
          "name": "_from",
          "type": "address"
        },
        {
          "internalType": "uint256",
          "name": "_value",
          "type": "uint256"
        }
      ],
      "name": "moduleBurnAction",
      "outputs": [],
      "stateMutability": "nonpayable",
      "type": "function"
    },
    {
      "inputs": [
        {
          "internalType": "address",
          "name": "_from",
          "type": "address"
        },
        {
          "internalType": "address",
          "name": "_to",
          "type": "address"
        },
        {
          "internalType": "uint256",
          "name": "_value",
          "type": "uint256"
        },
        {
          "internalType": "address",
          "name": "_compliance",
          "type": "address"
        }
      ],
      "name": "moduleCheck",
      "outputs": [
        {
          "internalType": "bool",
          "name": "",
          "type": "bool"
        }
      ],
      "stateMutability": "view",
      "type": "function"
    },
    {
      "inputs": [
        {
          "internalType": "address",
          "name": "_to",
          "type": "address"
        },
        {
          "internalType": "uint256",
          "name": "_value",
          "type": "uint256"
        }
      ],
      "name": "moduleMintAction",
      "outputs": [],
      "stateMutability": "nonpayable",
      "type": "function"
    },
    {
      "inputs": [
        {
          "internalType": "address",
          "name": "_from",
          "type": "address"
        },
        {
          "internalType": "address",
          "name": "_to",
          "type": "address"
        },
        {
          "internalType": "uint256",
          "name": "_value",
          "type": "uint256"
        }
      ],
      "name": "moduleTransferAction",
      "outputs": [],
      "stateMutability": "nonpayable",
      "type": "function"
    },
    {
      "inputs": [
        {
          "internalType": "address",
          "name": "_from",
          "type": "address"
        },
        {
          "internalType": "address",
          "name": "_to",
          "type": "address"
        },
        {
          "internalType": "uint256",
          "name": "_amount",
          "type": "uint256"
        }
      ],
      "name": "unApproveTransfer",
      "outputs": [],
      "stateMutability": "nonpayable",
      "type": "function"
    },
    {
      "inputs": [
        {
          "internalType": "address",
          "name": "_compliance",
          "type": "address"
        }
      ],
      "name": "unbindCompliance",
      "outputs": [],
      "stateMutability": "nonpayable",
      "type": "function"
    }
  ],
  "bytecode": "0x608060405234801561001057600080fd5b50610db7806100206000396000f3fe608060405234801561001057600080fd5b50600436106100ea5760003560e01c80634cf4d2951161008c578063bdf5a41511610066578063bdf5a41514610232578063e2cb5c3414610268578063f104a8c9146101ba578063f3850dbf1461027b57600080fd5b80634cf4d295146101e0578063825808051461020c578063933865191461021f57600080fd5b8063202a6376116100c8578063202a63761461013f5780632cb7e1ec146101a7578063372491a2146101ba5780634a932544146101cd57600080fd5b8063013b7ce4146100ef5780630694a5fb146101175780631c7a17931461012c575b600080fd5b6101026100fd366004610ac6565b61028e565b60405190151581526020015b60405180910390f35b61012a610125366004610b19565b61030f565b005b61012a61013a366004610b3d565b61040e565b61019961014d366004610ac6565b604080516001600160a01b0395861660208083019190915294861681830152606081019390935293166080808301919091528351808303909101815260a0909101909252815191012090565b60405190815260200161010e565b61012a6101b5366004610b3d565b6105c5565b61012a6101c8366004610b7e565b610689565b61012a6101db366004610b19565b6106bc565b6101026101ee366004610b19565b6001600160a01b031660009081526020819052604090205460ff1690565b61012a61021a366004610b3d565b6107ef565b61010261022d366004610b7e565b6108f4565b610199610240366004610b7e565b6001600160a01b03919091166000908152600160209081526040808320938352929052205490565b61012a610276366004610bf6565b61092f565b61012a610289366004610bf6565b6109f3565b6000806102f9868686866001600160a01b0316636a3edf286040518163ffffffff1660e01b8152600401602060405180830381865afa1580156102d5573d6000803e3d6000fd5b505050506040513d601f19601f8201168201806040525081019061014d9190610c90565b905061030583826108f4565b9695505050505050565b3360009081526020819052604090205460ff166103475760405162461bcd60e51b815260040161033e90610cad565b60405180910390fd5b6001600160a01b03811661039d5760405162461bcd60e51b815260206004820152601f60248201527f696e76616c696420617267756d656e74202d207a65726f206164647265737300604482015260640161033e565b336001600160a01b038216146103c55760405162461bcd60e51b815260040161033e90610ce4565b6001600160a01b038116600081815260208190526040808220805460ff19169055517f408b49d9be1c914c52a0227e18a077e5a892dddf32a26cfa94a5d9708fad77189190a250565b3360009081526020819052604090205460ff1661043d5760405162461bcd60e51b815260040161033e90610cad565b6000610483848484336001600160a01b0316636a3edf286040518163ffffffff1660e01b8152600401602060405180830381865afa1580156102d5573d6000803e3d6000fd5b3360009081526001602090815260408083208484529091529020549091506104dc5760405162461bcd60e51b815260206004820152600c60248201526b1b9bdd08185c1c1c9bdd995960a21b604482015260640161033e565b336000908152600160209081526040808320848452909152812080549161050283610d3b565b91905055507f611476e33c1d844d9fa71ba7de6e7130e18b22971d28580fd76321e4af696356848484336001600160a01b0316636a3edf286040518163ffffffff1660e01b8152600401602060405180830381865afa158015610569573d6000803e3d6000fd5b505050506040513d601f19601f8201168201806040525081019061058d9190610c90565b604080516001600160a01b0395861681529385166020850152830191909152909116606082015260800160405180910390a150505050565b3360009081526020819052604090205460ff166105f45760405162461bcd60e51b815260040161033e90610cad565b600061063a848484336001600160a01b0316636a3edf286040518163ffffffff1660e01b8152600401602060405180830381865afa1580156102d5573d6000803e3d6000fd5b3360009081526001602090815260408083208484529091529020549091501561068357336000908152600160209081526040808320848452909152812080549161050283610d3b565b50505050565b3360009081526020819052604090205460ff166106b85760405162461bcd60e51b815260040161033e90610cad565b5050565b6001600160a01b0381166107125760405162461bcd60e51b815260206004820152601f60248201527f696e76616c696420617267756d656e74202d207a65726f206164647265737300604482015260640161033e565b6001600160a01b03811660009081526020819052604090205460ff161561077b5760405162461bcd60e51b815260206004820152601860248201527f636f6d706c69616e636520616c726561647920626f756e640000000000000000604482015260640161033e565b336001600160a01b038216146107a35760405162461bcd60e51b815260040161033e90610ce4565b6001600160a01b038116600081815260208190526040808220805460ff19166001179055517f1f7b76c58fb697eb53c6c7c1becb96911516a136e24d7ced386b2355358b75a39190a250565b3360009081526020819052604090205460ff1661081e5760405162461bcd60e51b815260040161033e90610cad565b6000610864848484336001600160a01b0316636a3edf286040518163ffffffff1660e01b8152600401602060405180830381865afa1580156102d5573d6000803e3d6000fd5b336000908152600160209081526040808320848452909152812080549293509061088d83610d52565b91905055507f776c895685d60b5ac3aa2c3381ed2b021825c000fbb0d8ff1359636700aa1651848484336001600160a01b0316636a3edf286040518163ffffffff1660e01b8152600401602060405180830381865afa158015610569573d6000803e3d6000fd5b6001600160a01b03821660009081526001602090815260408083208484529091528120541561092557506001610929565b5060005b92915050565b3360009081526020819052604090205460ff1661095e5760405162461bcd60e51b815260040161033e90610cad565b60005b858110156109ea576109d887878381811061097e5761097e610d6b565b90506020020160208101906109939190610b19565b8686848181106109a5576109a5610d6b565b90506020020160208101906109ba9190610b19565b8585858181106109cc576109cc610d6b565b9050602002013561040e565b806109e281610d52565b915050610961565b50505050505050565b3360009081526020819052604090205460ff16610a225760405162461bcd60e51b815260040161033e90610cad565b60005b858110156109ea57610a9c878783818110610a4257610a42610d6b565b9050602002016020810190610a579190610b19565b868684818110610a6957610a69610d6b565b9050602002016020810190610a7e9190610b19565b858585818110610a9057610a90610d6b565b905060200201356107ef565b80610aa681610d52565b915050610a25565b6001600160a01b0381168114610ac357600080fd5b50565b60008060008060808587031215610adc57600080fd5b8435610ae781610aae565b93506020850135610af781610aae565b9250604085013591506060850135610b0e81610aae565b939692955090935050565b600060208284031215610b2b57600080fd5b8135610b3681610aae565b9392505050565b600080600060608486031215610b5257600080fd5b8335610b5d81610aae565b92506020840135610b6d81610aae565b929592945050506040919091013590565b60008060408385031215610b9157600080fd5b8235610b9c81610aae565b946020939093013593505050565b60008083601f840112610bbc57600080fd5b50813567ffffffffffffffff811115610bd457600080fd5b6020830191508360208260051b8501011115610bef57600080fd5b9250929050565b60008060008060008060608789031215610c0f57600080fd5b863567ffffffffffffffff80821115610c2757600080fd5b610c338a838b01610baa565b90985096506020890135915080821115610c4c57600080fd5b610c588a838b01610baa565b90965094506040890135915080821115610c7157600080fd5b50610c7e89828a01610baa565b979a9699509497509295939492505050565b600060208284031215610ca257600080fd5b8151610b3681610aae565b6020808252601e908201527f6f6e6c7920626f756e6420636f6d706c69616e63652063616e2063616c6c0000604082015260600190565b60208082526021908201527f6f6e6c7920636f6d706c69616e636520636f6e74726163742063616e2063616c6040820152601b60fa1b606082015260800190565b634e487b7160e01b600052601160045260246000fd5b600081610d4a57610d4a610d25565b506000190190565b600060018201610d6457610d64610d25565b5060010190565b634e487b7160e01b600052603260045260246000fdfea26469706673582212209e7519dd911d31dfe8e384cc53bb6639e55156a70b5b9df1ccedcffeae4ba36364736f6c63430008130033",
  "linkReferences": {},
  "deployedLinkReferences": {}
}