{
  "_format": "hh-sol-artifact-1",
  "contractName": "CountryRestrictModule",
  "sourceName": "contracts/trex/compliance/modular/modules/CountryRestrictModule.sol",
  "abi": [
    {
      "anonymous": false,
      "inputs": [
        {
          "indexed": true,
          "internalType": "address",
          "name": "_compliance",
          "type": "address"
        },
        {
          "indexed": false,
          "internalType": "uint16",
          "name": "_country",
          "type": "uint16"
        }
      ],
      "name": "AddedRestrictedCountry",
      "type": "event"
    },
    {
      "anonymous": false,
      "inputs": [
        {
          "indexed": true,
          "internalType": "address",
          "name": "_compliance",
          "type": "address"
        }
      ],
      "name": "ComplianceBound",
      "type": "event"
    },
    {
      "anonymous": false,
      "inputs": [
        {
          "indexed": true,
          "internalType": "address",
          "name": "_compliance",
          "type": "address"
        }
      ],
      "name": "ComplianceUnbound",
      "type": "event"
    },
    {
      "anonymous": false,
      "inputs": [
        {
          "indexed": true,
          "internalType": "address",
          "name": "_compliance",
          "type": "address"
        },
        {
          "indexed": false,
          "internalType": "uint16",
          "name": "_country",
          "type": "uint16"
        }
      ],
      "name": "RemovedRestrictedCountry",
      "type": "event"
    },
    {
      "inputs": [
        {
          "internalType": "uint16",
          "name": "_country",
          "type": "uint16"
        }
      ],
      "name": "addCountryRestriction",
      "outputs": [],
      "stateMutability": "nonpayable",
      "type": "function"
    },
    {
      "inputs": [
        {
          "internalType": "uint16[]",
          "name": "_countries",
          "type": "uint16[]"
        }
      ],
      "name": "batchRestrictCountries",
      "outputs": [],
      "stateMutability": "nonpayable",
      "type": "function"
    },
    {
      "inputs": [
        {
          "internalType": "uint16[]",
          "name": "_countries",
          "type": "uint16[]"
        }
      ],
      "name": "batchUnrestrictCountries",
      "outputs": [],
      "stateMutability": "nonpayable",
      "type": "function"
    },
    {
      "inputs": [
        {
          "internalType": "address",
          "name": "_compliance",
          "type": "address"
        }
      ],
      "name": "bindCompliance",
      "outputs": [],
      "stateMutability": "nonpayable",
      "type": "function"
    },
    {
      "inputs": [
        {
          "internalType": "address",
          "name": "_compliance",
          "type": "address"
        }
      ],
      "name": "isComplianceBound",
      "outputs": [
        {
          "internalType": "bool",
          "name": "",
          "type": "bool"
        }
      ],
      "stateMutability": "view",
      "type": "function"
    },
    {
      "inputs": [
        {
          "internalType": "address",
          "name": "_compliance",
          "type": "address"
        },
        {
          "internalType": "uint16",
          "name": "_country",
          "type": "uint16"
        }
      ],
      "name": "isCountryRestricted",
      "outputs": [
        {
          "internalType": "bool",
          "name": "",
          "type": "bool"
        }
      ],
      "stateMutability": "view",
      "type": "function"
    },
    {
      "inputs": [
        {
          "internalType": "address",
          "name": "_from",
          "type": "address"
        },
        {
          "internalType": "uint256",
          "name": "_value",
          "type": "uint256"
        }
      ],
      "name": "moduleBurnAction",
      "outputs": [],
      "stateMutability": "nonpayable",
      "type": "function"
    },
    {
      "inputs": [
        {
          "internalType": "address",
          "name": "",
          "type": "address"
        },
        {
          "internalType": "address",
          "name": "_to",
          "type": "address"
        },
        {
          "internalType": "uint256",
          "name": "",
          "type": "uint256"
        },
        {
          "internalType": "address",
          "name": "_compliance",
          "type": "address"
        }
      ],
      "name": "moduleCheck",
      "outputs": [
        {
          "internalType": "bool",
          "name": "",
          "type": "bool"
        }
      ],
      "stateMutability": "view",
      "type": "function"
    },
    {
      "inputs": [
        {
          "internalType": "address",
          "name": "_to",
          "type": "address"
        },
        {
          "internalType": "uint256",
          "name": "_value",
          "type": "uint256"
        }
      ],
      "name": "moduleMintAction",
      "outputs": [],
      "stateMutability": "nonpayable",
      "type": "function"
    },
    {
      "inputs": [
        {
          "internalType": "address",
          "name": "_from",
          "type": "address"
        },
        {
          "internalType": "address",
          "name": "_to",
          "type": "address"
        },
        {
          "internalType": "uint256",
          "name": "_value",
          "type": "uint256"
        }
      ],
      "name": "moduleTransferAction",
      "outputs": [],
      "stateMutability": "nonpayable",
      "type": "function"
    },
    {
      "inputs": [
        {
          "internalType": "uint16",
          "name": "_country",
          "type": "uint16"
        }
      ],
      "name": "removeCountryRestriction",
      "outputs": [],
      "stateMutability": "nonpayable",
      "type": "function"
    },
    {
      "inputs": [
        {
          "internalType": "address",
          "name": "_compliance",
          "type": "address"
        }
      ],
      "name": "unbindCompliance",
      "outputs": [],
      "stateMutability": "nonpayable",
      "type": "function"
    }
  ],
  "bytecode": "0x608060405234801561001057600080fd5b50610efb806100206000396000f3fe608060405234801561001057600080fd5b50600436106100b45760003560e01c8063372491a211610071578063372491a21461016d5780634a932544146101805780634cf4d295146101935780636aae7b26146101bf578063bdf9a07e146101d2578063f104a8c91461016d57600080fd5b8063013b7ce4146100b95780630333ce24146100e05780630694a5fb146100f5578063249c981d146101085780632cb7e1ec1461011b57806330236f4a1461012e575b600080fd5b6100cc6100c7366004610c1e565b6101e5565b604051901515815260200160405180910390f35b6100f36100ee366004610c81565b61023d565b005b6100f3610103366004610c9e565b610345565b6100f3610116366004610cbb565b61043b565b6100f3610129366004610d30565b610643565b6100cc61013c366004610d71565b6001600160a01b038216600090815260016020908152604080832061ffff8516845290915290205460ff1692915050565b6100f361017b366004610daa565b610672565b6100f361018e366004610c9e565b6106a5565b6100cc6101a1366004610c9e565b6001600160a01b031660009081526020819052604090205460ff1690565b6100f36101cd366004610c81565b6107d8565b6100f36101e0366004610cbb565b6108c7565b6000806101f28386610ace565b6001600160a01b038416600090815260016020908152604080832061ffff8516845290915290205490915060ff161561022f576000915050610235565b60019150505b949350505050565b3360009081526020819052604090205460ff166102755760405162461bcd60e51b815260040161026c90610dd6565b60405180910390fd5b33600090815260016020908152604080832061ffff8516845290915290205460ff16156102e45760405162461bcd60e51b815260206004820152601a60248201527f636f756e74727920616c72656164792072657374726963746564000000000000604482015260640161026c565b33600081815260016020818152604080842061ffff871680865290835293819020805460ff191690931790925590519182527f5e0addf626d7d7091ab7aebf34682c3203384648734760b24921e31ddcec0bb591015b60405180910390a250565b3360009081526020819052604090205460ff166103745760405162461bcd60e51b815260040161026c90610dd6565b6001600160a01b0381166103ca5760405162461bcd60e51b815260206004820152601f60248201527f696e76616c696420617267756d656e74202d207a65726f206164647265737300604482015260640161026c565b336001600160a01b038216146103f25760405162461bcd60e51b815260040161026c90610e0d565b6001600160a01b038116600081815260208190526040808220805460ff19169055517f408b49d9be1c914c52a0227e18a077e5a892dddf32a26cfa94a5d9708fad77189190a250565b3360009081526020819052604090205460ff1661046a5760405162461bcd60e51b815260040161026c90610dd6565b60c381106104cf5760405162461bcd60e51b815260206004820152602c60248201527f6d6178696d756d203139352063616e20626520756e726573747269637465642060448201526b0d2dc40dedcca40c4c2e8c6d60a31b606482015260840161026c565b60005b8181101561063e57336000908152600160205260408120908484848181106104fc576104fc610e4e565b90506020020160208101906105119190610c81565b61ffff16815260208101919091526040016000205460ff1615156001146105735760405162461bcd60e51b815260206004820152601660248201527518dbdd5b9d1c9e481b9bdd081c995cdd1c9a58dd195960521b604482015260640161026c565b3360009081526001602052604081208185858581811061059557610595610e4e565b90506020020160208101906105aa9190610c81565b61ffff1681526020810191909152604001600020805460ff1916911515919091179055337ffb8bb575200aa114265a31c7d8ebeb4e395bd3cd9d0914c4bfa2a511d2011a7a84848481811061060157610601610e4e565b90506020020160208101906106169190610c81565b60405161ffff909116815260200160405180910390a28061063681610e64565b9150506104d2565b505050565b3360009081526020819052604090205460ff1661063e5760405162461bcd60e51b815260040161026c90610dd6565b3360009081526020819052604090205460ff166106a15760405162461bcd60e51b815260040161026c90610dd6565b5050565b6001600160a01b0381166106fb5760405162461bcd60e51b815260206004820152601f60248201527f696e76616c696420617267756d656e74202d207a65726f206164647265737300604482015260640161026c565b6001600160a01b03811660009081526020819052604090205460ff16156107645760405162461bcd60e51b815260206004820152601860248201527f636f6d706c69616e636520616c726561647920626f756e640000000000000000604482015260640161026c565b336001600160a01b0382161461078c5760405162461bcd60e51b815260040161026c90610e0d565b6001600160a01b038116600081815260208190526040808220805460ff19166001179055517f1f7b76c58fb697eb53c6c7c1becb96911516a136e24d7ced386b2355358b75a39190a250565b3360009081526020819052604090205460ff166108075760405162461bcd60e51b815260040161026c90610dd6565b33600090815260016020818152604080842061ffff861685529091529091205460ff161515146108725760405162461bcd60e51b815260206004820152601660248201527518dbdd5b9d1c9e481b9bdd081c995cdd1c9a58dd195960521b604482015260640161026c565b33600081815260016020908152604080832061ffff861680855290835292819020805460ff19169055519182527ffb8bb575200aa114265a31c7d8ebeb4e395bd3cd9d0914c4bfa2a511d2011a7a910161033a565b3360009081526020819052604090205460ff166108f65760405162461bcd60e51b815260040161026c90610dd6565b60c381106109595760405162461bcd60e51b815260206004820152602a60248201527f6d6178696d756d203139352063616e206265207265737472696374656420696e604482015269040dedcca40c4c2e8c6d60b31b606482015260840161026c565b60005b8181101561063e573360009081526001602052604081209084848481811061098657610986610e4e565b905060200201602081019061099b9190610c81565b61ffff16815260208101919091526040016000205460ff1615610a005760405162461bcd60e51b815260206004820152601a60248201527f636f756e74727920616c72656164792072657374726963746564000000000000604482015260640161026c565b33600090815260016020819052604082209091858585818110610a2557610a25610e4e565b9050602002016020810190610a3a9190610c81565b61ffff1681526020810191909152604001600020805460ff1916911515919091179055337f5e0addf626d7d7091ab7aebf34682c3203384648734760b24921e31ddcec0bb5848484818110610a9157610a91610e4e565b9050602002016020810190610aa69190610c81565b60405161ffff909116815260200160405180910390a280610ac681610e64565b91505061095c565b6000826001600160a01b0316636a3edf286040518163ffffffff1660e01b8152600401602060405180830381865afa158015610b0e573d6000803e3d6000fd5b505050506040513d601f19601f82011682018060405250810190610b329190610e8b565b6001600160a01b031663134e18f46040518163ffffffff1660e01b8152600401602060405180830381865afa158015610b6f573d6000803e3d6000fd5b505050506040513d601f19601f82011682018060405250810190610b939190610e8b565b604051637e42683b60e01b81526001600160a01b0384811660048301529190911690637e42683b90602401602060405180830381865afa158015610bdb573d6000803e3d6000fd5b505050506040513d601f19601f82011682018060405250810190610bff9190610ea8565b9392505050565b6001600160a01b0381168114610c1b57600080fd5b50565b60008060008060808587031215610c3457600080fd5b8435610c3f81610c06565b93506020850135610c4f81610c06565b9250604085013591506060850135610c6681610c06565b939692955090935050565b61ffff81168114610c1b57600080fd5b600060208284031215610c9357600080fd5b8135610bff81610c71565b600060208284031215610cb057600080fd5b8135610bff81610c06565b60008060208385031215610cce57600080fd5b823567ffffffffffffffff80821115610ce657600080fd5b818501915085601f830112610cfa57600080fd5b813581811115610d0957600080fd5b8660208260051b8501011115610d1e57600080fd5b60209290920196919550909350505050565b600080600060608486031215610d4557600080fd5b8335610d5081610c06565b92506020840135610d6081610c06565b929592945050506040919091013590565b60008060408385031215610d8457600080fd5b8235610d8f81610c06565b91506020830135610d9f81610c71565b809150509250929050565b60008060408385031215610dbd57600080fd5b8235610dc881610c06565b946020939093013593505050565b6020808252601e908201527f6f6e6c7920626f756e6420636f6d706c69616e63652063616e2063616c6c0000604082015260600190565b60208082526021908201527f6f6e6c7920636f6d706c69616e636520636f6e74726163742063616e2063616c6040820152601b60fa1b606082015260800190565b634e487b7160e01b600052603260045260246000fd5b600060018201610e8457634e487b7160e01b600052601160045260246000fd5b5060010190565b600060208284031215610e9d57600080fd5b8151610bff81610c06565b600060208284031215610eba57600080fd5b8151610bff81610c7156fea264697066735822122095247e91cd4f469cf4c9a42bfe54144fd0a82ec2b2b32715148d7adba65f632264736f6c63430008130033",
  "linkReferences": {},
  "deployedLinkReferences": {}
}