{
  "_format": "hh-sol-artifact-1",
  "contractName": "CountryAllowModule",
  "sourceName": "contracts/trex/compliance/modular/modules/CountryAllowModule.sol",
  "abi": [
    {
      "inputs": [
        {
          "internalType": "address",
          "name": "_compliance",
          "type": "address"
        },
        {
          "internalType": "uint16",
          "name": "_country",
          "type": "uint16"
        }
      ],
      "name": "CountryAlreadyAllowed",
      "type": "error"
    },
    {
      "inputs": [
        {
          "internalType": "address",
          "name": "_compliance",
          "type": "address"
        },
        {
          "internalType": "uint16",
          "name": "_country",
          "type": "uint16"
        }
      ],
      "name": "CountryNotAllowed",
      "type": "error"
    },
    {
      "anonymous": false,
      "inputs": [
        {
          "indexed": true,
          "internalType": "address",
          "name": "_compliance",
          "type": "address"
        }
      ],
      "name": "ComplianceBound",
      "type": "event"
    },
    {
      "anonymous": false,
      "inputs": [
        {
          "indexed": true,
          "internalType": "address",
          "name": "_compliance",
          "type": "address"
        }
      ],
      "name": "ComplianceUnbound",
      "type": "event"
    },
    {
      "anonymous": false,
      "inputs": [
        {
          "indexed": false,
          "internalType": "address",
          "name": "_compliance",
          "type": "address"
        },
        {
          "indexed": false,
          "internalType": "uint16",
          "name": "_country",
          "type": "uint16"
        }
      ],
      "name": "CountryAllowed",
      "type": "event"
    },
    {
      "anonymous": false,
      "inputs": [
        {
          "indexed": false,
          "internalType": "address",
          "name": "_compliance",
          "type": "address"
        },
        {
          "indexed": false,
          "internalType": "uint16",
          "name": "_country",
          "type": "uint16"
        }
      ],
      "name": "CountryUnallowed",
      "type": "event"
    },
    {
      "inputs": [
        {
          "internalType": "uint16",
          "name": "_country",
          "type": "uint16"
        }
      ],
      "name": "addAllowedCountry",
      "outputs": [],
      "stateMutability": "nonpayable",
      "type": "function"
    },
    {
      "inputs": [
        {
          "internalType": "uint16[]",
          "name": "_countries",
          "type": "uint16[]"
        }
      ],
      "name": "batchAllowCountries",
      "outputs": [],
      "stateMutability": "nonpayable",
      "type": "function"
    },
    {
      "inputs": [
        {
          "internalType": "uint16[]",
          "name": "_countries",
          "type": "uint16[]"
        }
      ],
      "name": "batchDisallowCountries",
      "outputs": [],
      "stateMutability": "nonpayable",
      "type": "function"
    },
    {
      "inputs": [
        {
          "internalType": "address",
          "name": "_compliance",
          "type": "address"
        }
      ],
      "name": "bindCompliance",
      "outputs": [],
      "stateMutability": "nonpayable",
      "type": "function"
    },
    {
      "inputs": [
        {
          "internalType": "address",
          "name": "_compliance",
          "type": "address"
        }
      ],
      "name": "isComplianceBound",
      "outputs": [
        {
          "internalType": "bool",
          "name": "",
          "type": "bool"
        }
      ],
      "stateMutability": "view",
      "type": "function"
    },
    {
      "inputs": [
        {
          "internalType": "address",
          "name": "_compliance",
          "type": "address"
        },
        {
          "internalType": "uint16",
          "name": "_country",
          "type": "uint16"
        }
      ],
      "name": "isCountryAllowed",
      "outputs": [
        {
          "internalType": "bool",
          "name": "",
          "type": "bool"
        }
      ],
      "stateMutability": "view",
      "type": "function"
    },
    {
      "inputs": [
        {
          "internalType": "address",
          "name": "_from",
          "type": "address"
        },
        {
          "internalType": "uint256",
          "name": "_value",
          "type": "uint256"
        }
      ],
      "name": "moduleBurnAction",
      "outputs": [],
      "stateMutability": "nonpayable",
      "type": "function"
    },
    {
      "inputs": [
        {
          "internalType": "address",
          "name": "",
          "type": "address"
        },
        {
          "internalType": "address",
          "name": "_to",
          "type": "address"
        },
        {
          "internalType": "uint256",
          "name": "",
          "type": "uint256"
        },
        {
          "internalType": "address",
          "name": "_compliance",
          "type": "address"
        }
      ],
      "name": "moduleCheck",
      "outputs": [
        {
          "internalType": "bool",
          "name": "",
          "type": "bool"
        }
      ],
      "stateMutability": "view",
      "type": "function"
    },
    {
      "inputs": [
        {
          "internalType": "address",
          "name": "_to",
          "type": "address"
        },
        {
          "internalType": "uint256",
          "name": "_value",
          "type": "uint256"
        }
      ],
      "name": "moduleMintAction",
      "outputs": [],
      "stateMutability": "nonpayable",
      "type": "function"
    },
    {
      "inputs": [
        {
          "internalType": "address",
          "name": "_from",
          "type": "address"
        },
        {
          "internalType": "address",
          "name": "_to",
          "type": "address"
        },
        {
          "internalType": "uint256",
          "name": "_value",
          "type": "uint256"
        }
      ],
      "name": "moduleTransferAction",
      "outputs": [],
      "stateMutability": "nonpayable",
      "type": "function"
    },
    {
      "inputs": [
        {
          "internalType": "uint16",
          "name": "_country",
          "type": "uint16"
        }
      ],
      "name": "removeAllowedCountry",
      "outputs": [],
      "stateMutability": "nonpayable",
      "type": "function"
    },
    {
      "inputs": [
        {
          "internalType": "address",
          "name": "_compliance",
          "type": "address"
        }
      ],
      "name": "unbindCompliance",
      "outputs": [],
      "stateMutability": "nonpayable",
      "type": "function"
    }
  ],
  "bytecode": "0x608060405234801561001057600080fd5b50610cc1806100206000396000f3fe608060405234801561001057600080fd5b50600436106100b45760003560e01c80634cf4d295116100715780634cf4d2951461016d5780634f44425e14610199578063771c5281146101ac578063817544c3146101bf578063c08e1502146101d2578063f104a8c91461014757600080fd5b8063013b7ce4146100b95780630694a5fb146100e05780630f4f0904146100f55780632cb7e1ec14610134578063372491a2146101475780634a9325441461015a575b600080fd5b6100cc6100c73660046109c7565b6101e5565b604051901515815260200160405180910390f35b6100f36100ee366004610a1a565b61022a565b005b6100cc610103366004610a47565b6001600160a01b038216600090815260016020908152604080832061ffff8516845290915290205460ff1692915050565b6100f3610142366004610a80565b610329565b6100f3610155366004610ac1565b61035d565b6100f3610168366004610a1a565b610390565b6100cc61017b366004610a1a565b6001600160a01b031660009081526020819052604090205460ff1690565b6100f36101a7366004610aed565b6104c3565b6100f36101ba366004610b0a565b61059e565b6100f36101cd366004610aed565b6106a6565b6100f36101e0366004610b0a565b610772565b6000806101f28386610877565b6001600160a01b038416600090815260016020908152604080832061ffff8516845290915290205490915060ff169695505050505050565b3360009081526020819052604090205460ff166102625760405162461bcd60e51b815260040161025990610b7f565b60405180910390fd5b6001600160a01b0381166102b85760405162461bcd60e51b815260206004820152601f60248201527f696e76616c696420617267756d656e74202d207a65726f2061646472657373006044820152606401610259565b336001600160a01b038216146102e05760405162461bcd60e51b815260040161025990610bb6565b6001600160a01b038116600081815260208190526040808220805460ff19169055517f408b49d9be1c914c52a0227e18a077e5a892dddf32a26cfa94a5d9708fad77189190a250565b3360009081526020819052604090205460ff166103585760405162461bcd60e51b815260040161025990610b7f565b505050565b3360009081526020819052604090205460ff1661038c5760405162461bcd60e51b815260040161025990610b7f565b5050565b6001600160a01b0381166103e65760405162461bcd60e51b815260206004820152601f60248201527f696e76616c696420617267756d656e74202d207a65726f2061646472657373006044820152606401610259565b6001600160a01b03811660009081526020819052604090205460ff161561044f5760405162461bcd60e51b815260206004820152601860248201527f636f6d706c69616e636520616c726561647920626f756e6400000000000000006044820152606401610259565b336001600160a01b038216146104775760405162461bcd60e51b815260040161025990610bb6565b6001600160a01b038116600081815260208190526040808220805460ff19166001179055517f1f7b76c58fb697eb53c6c7c1becb96911516a136e24d7ced386b2355358b75a39190a250565b3360009081526020819052604090205460ff166104f25760405162461bcd60e51b815260040161025990610b7f565b33600090815260016020818152604080842061ffff861685529091529091205460ff161515900361053a57338160405163af6d613560e01b8152600401610259929190610bf7565b33600081815260016020818152604080842061ffff8716855290915291829020805460ff19169091179055517f48c279381632bf87fca2680865a7384b6eb20716fd96b882b305a2198930a07491610593918490610bf7565b60405180910390a150565b3360009081526020819052604090205460ff166105cd5760405162461bcd60e51b815260040161025990610b7f565b60005b8181101561035857336000908152600160208190526040822090918585858181106105fd576105fd610c14565b90506020020160208101906106129190610aed565b61ffff1681526020810191909152604001600020805460ff19169115159190911790557f48c279381632bf87fca2680865a7384b6eb20716fd96b882b305a2198930a0743384848481811061066957610669610c14565b905060200201602081019061067e9190610aed565b60405161068c929190610bf7565b60405180910390a18061069e81610c2a565b9150506105d0565b3360009081526020819052604090205460ff166106d55760405162461bcd60e51b815260040161025990610b7f565b33600090815260016020908152604080832061ffff8516845290915281205460ff161515900361071c57338160405163236a687560e11b8152600401610259929190610bf7565b33600081815260016020908152604080832061ffff8616845290915290819020805460ff19169055517f35c7374bcb82f2355cb703c8ab6162f87fe83b99618bdb78c6d19b07ddf060a291610593918490610bf7565b3360009081526020819052604090205460ff166107a15760405162461bcd60e51b815260040161025990610b7f565b60005b8181101561035857336000908152600160205260408120818585858181106107ce576107ce610c14565b90506020020160208101906107e39190610aed565b61ffff1681526020810191909152604001600020805460ff19169115159190911790557f35c7374bcb82f2355cb703c8ab6162f87fe83b99618bdb78c6d19b07ddf060a23384848481811061083a5761083a610c14565b905060200201602081019061084f9190610aed565b60405161085d929190610bf7565b60405180910390a18061086f81610c2a565b9150506107a4565b6000826001600160a01b0316636a3edf286040518163ffffffff1660e01b8152600401602060405180830381865afa1580156108b7573d6000803e3d6000fd5b505050506040513d601f19601f820116820180604052508101906108db9190610c51565b6001600160a01b031663134e18f46040518163ffffffff1660e01b8152600401602060405180830381865afa158015610918573d6000803e3d6000fd5b505050506040513d601f19601f8201168201806040525081019061093c9190610c51565b604051637e42683b60e01b81526001600160a01b0384811660048301529190911690637e42683b90602401602060405180830381865afa158015610984573d6000803e3d6000fd5b505050506040513d601f19601f820116820180604052508101906109a89190610c6e565b9392505050565b6001600160a01b03811681146109c457600080fd5b50565b600080600080608085870312156109dd57600080fd5b84356109e8816109af565b935060208501356109f8816109af565b9250604085013591506060850135610a0f816109af565b939692955090935050565b600060208284031215610a2c57600080fd5b81356109a8816109af565b61ffff811681146109c457600080fd5b60008060408385031215610a5a57600080fd5b8235610a65816109af565b91506020830135610a7581610a37565b809150509250929050565b600080600060608486031215610a9557600080fd5b8335610aa0816109af565b92506020840135610ab0816109af565b929592945050506040919091013590565b60008060408385031215610ad457600080fd5b8235610adf816109af565b946020939093013593505050565b600060208284031215610aff57600080fd5b81356109a881610a37565b60008060208385031215610b1d57600080fd5b823567ffffffffffffffff80821115610b3557600080fd5b818501915085601f830112610b4957600080fd5b813581811115610b5857600080fd5b8660208260051b8501011115610b6d57600080fd5b60209290920196919550909350505050565b6020808252601e908201527f6f6e6c7920626f756e6420636f6d706c69616e63652063616e2063616c6c0000604082015260600190565b60208082526021908201527f6f6e6c7920636f6d706c69616e636520636f6e74726163742063616e2063616c6040820152601b60fa1b606082015260800190565b6001600160a01b0392909216825261ffff16602082015260400190565b634e487b7160e01b600052603260045260246000fd5b600060018201610c4a57634e487b7160e01b600052601160045260246000fd5b5060010190565b600060208284031215610c6357600080fd5b81516109a8816109af565b600060208284031215610c8057600080fd5b81516109a881610a3756fea26469706673582212203cc4e4b154923bb2c15351366b4a1c54e3213c4e78eebe84b705c28266842bfc64736f6c63430008130033",
  "linkReferences": {},
  "deployedLinkReferences": {}
}