{
  "_format": "hh-sol-artifact-1",
  "contractName": "CountryRestrictionsTest",
  "sourceName": "contracts/trex/compliance/legacy/test/CountryRestrictionsTest.sol",
  "abi": [
    {
      "anonymous": false,
      "inputs": [
        {
          "indexed": false,
          "internalType": "uint16",
          "name": "_country",
          "type": "uint16"
        }
      ],
      "name": "AddedRestrictedCountry",
      "type": "event"
    },
    {
      "anonymous": false,
      "inputs": [
        {
          "indexed": true,
          "internalType": "address",
          "name": "_agent",
          "type": "address"
        }
      ],
      "name": "AgentAdded",
      "type": "event"
    },
    {
      "anonymous": false,
      "inputs": [
        {
          "indexed": true,
          "internalType": "address",
          "name": "_agent",
          "type": "address"
        }
      ],
      "name": "AgentRemoved",
      "type": "event"
    },
    {
      "anonymous": false,
      "inputs": [
        {
          "indexed": true,
          "internalType": "address",
          "name": "previousOwner",
          "type": "address"
        },
        {
          "indexed": true,
          "internalType": "address",
          "name": "newOwner",
          "type": "address"
        }
      ],
      "name": "OwnershipTransferred",
      "type": "event"
    },
    {
      "anonymous": false,
      "inputs": [
        {
          "indexed": false,
          "internalType": "uint16",
          "name": "_country",
          "type": "uint16"
        }
      ],
      "name": "RemovedRestrictedCountry",
      "type": "event"
    },
    {
      "anonymous": false,
      "inputs": [
        {
          "indexed": false,
          "internalType": "address",
          "name": "_agentAddress",
          "type": "address"
        }
      ],
      "name": "TokenAgentAdded",
      "type": "event"
    },
    {
      "anonymous": false,
      "inputs": [
        {
          "indexed": false,
          "internalType": "address",
          "name": "_agentAddress",
          "type": "address"
        }
      ],
      "name": "TokenAgentRemoved",
      "type": "event"
    },
    {
      "anonymous": false,
      "inputs": [
        {
          "indexed": false,
          "internalType": "address",
          "name": "_token",
          "type": "address"
        }
      ],
      "name": "TokenBound",
      "type": "event"
    },
    {
      "anonymous": false,
      "inputs": [
        {
          "indexed": false,
          "internalType": "address",
          "name": "_token",
          "type": "address"
        }
      ],
      "name": "TokenUnbound",
      "type": "event"
    },
    {
      "inputs": [
        {
          "internalType": "address",
          "name": "_agent",
          "type": "address"
        }
      ],
      "name": "addAgent",
      "outputs": [],
      "stateMutability": "nonpayable",
      "type": "function"
    },
    {
      "inputs": [
        {
          "internalType": "uint16",
          "name": "_country",
          "type": "uint16"
        }
      ],
      "name": "addCountryRestriction",
      "outputs": [],
      "stateMutability": "nonpayable",
      "type": "function"
    },
    {
      "inputs": [
        {
          "internalType": "address",
          "name": "_agentAddress",
          "type": "address"
        }
      ],
      "name": "addTokenAgent",
      "outputs": [],
      "stateMutability": "nonpayable",
      "type": "function"
    },
    {
      "inputs": [
        {
          "internalType": "uint16[]",
          "name": "_countries",
          "type": "uint16[]"
        }
      ],
      "name": "batchRestrictCountries",
      "outputs": [],
      "stateMutability": "nonpayable",
      "type": "function"
    },
    {
      "inputs": [
        {
          "internalType": "uint16[]",
          "name": "_countries",
          "type": "uint16[]"
        }
      ],
      "name": "batchUnrestrictCountries",
      "outputs": [],
      "stateMutability": "nonpayable",
      "type": "function"
    },
    {
      "inputs": [
        {
          "internalType": "address",
          "name": "_token",
          "type": "address"
        }
      ],
      "name": "bindToken",
      "outputs": [],
      "stateMutability": "nonpayable",
      "type": "function"
    },
    {
      "inputs": [
        {
          "internalType": "address",
          "name": "_from",
          "type": "address"
        },
        {
          "internalType": "address",
          "name": "_to",
          "type": "address"
        },
        {
          "internalType": "uint256",
          "name": "_value",
          "type": "uint256"
        }
      ],
      "name": "canTransfer",
      "outputs": [
        {
          "internalType": "bool",
          "name": "",
          "type": "bool"
        }
      ],
      "stateMutability": "view",
      "type": "function"
    },
    {
      "inputs": [
        {
          "internalType": "address",
          "name": "",
          "type": "address"
        },
        {
          "internalType": "address",
          "name": "_to",
          "type": "address"
        },
        {
          "internalType": "uint256",
          "name": "",
          "type": "uint256"
        }
      ],
      "name": "complianceCheckOnCountryRestrictions",
      "outputs": [
        {
          "internalType": "bool",
          "name": "",
          "type": "bool"
        }
      ],
      "stateMutability": "view",
      "type": "function"
    },
    {
      "inputs": [
        {
          "internalType": "address",
          "name": "_to",
          "type": "address"
        },
        {
          "internalType": "uint256",
          "name": "_value",
          "type": "uint256"
        }
      ],
      "name": "created",
      "outputs": [],
      "stateMutability": "nonpayable",
      "type": "function"
    },
    {
      "inputs": [
        {
          "internalType": "address",
          "name": "_from",
          "type": "address"
        },
        {
          "internalType": "uint256",
          "name": "_value",
          "type": "uint256"
        }
      ],
      "name": "destroyed",
      "outputs": [],
      "stateMutability": "nonpayable",
      "type": "function"
    },
    {
      "inputs": [
        {
          "internalType": "address",
          "name": "_agent",
          "type": "address"
        }
      ],
      "name": "isAgent",
      "outputs": [
        {
          "internalType": "bool",
          "name": "",
          "type": "bool"
        }
      ],
      "stateMutability": "view",
      "type": "function"
    },
    {
      "inputs": [
        {
          "internalType": "uint16",
          "name": "_country",
          "type": "uint16"
        }
      ],
      "name": "isCountryRestricted",
      "outputs": [
        {
          "internalType": "bool",
          "name": "",
          "type": "bool"
        }
      ],
      "stateMutability": "view",
      "type": "function"
    },
    {
      "inputs": [
        {
          "internalType": "address",
          "name": "_agentAddress",
          "type": "address"
        }
      ],
      "name": "isTokenAgent",
      "outputs": [
        {
          "internalType": "bool",
          "name": "",
          "type": "bool"
        }
      ],
      "stateMutability": "view",
      "type": "function"
    },
    {
      "inputs": [
        {
          "internalType": "address",
          "name": "_token",
          "type": "address"
        }
      ],
      "name": "isTokenBound",
      "outputs": [
        {
          "internalType": "bool",
          "name": "",
          "type": "bool"
        }
      ],
      "stateMutability": "view",
      "type": "function"
    },
    {
      "inputs": [],
      "name": "owner",
      "outputs": [
        {
          "internalType": "address",
          "name": "",
          "type": "address"
        }
      ],
      "stateMutability": "view",
      "type": "function"
    },
    {
      "inputs": [
        {
          "internalType": "address",
          "name": "_agent",
          "type": "address"
        }
      ],
      "name": "removeAgent",
      "outputs": [],
      "stateMutability": "nonpayable",
      "type": "function"
    },
    {
      "inputs": [
        {
          "internalType": "uint16",
          "name": "_country",
          "type": "uint16"
        }
      ],
      "name": "removeCountryRestriction",
      "outputs": [],
      "stateMutability": "nonpayable",
      "type": "function"
    },
    {
      "inputs": [
        {
          "internalType": "address",
          "name": "_agentAddress",
          "type": "address"
        }
      ],
      "name": "removeTokenAgent",
      "outputs": [],
      "stateMutability": "nonpayable",
      "type": "function"
    },
    {
      "inputs": [],
      "name": "renounceOwnership",
      "outputs": [],
      "stateMutability": "nonpayable",
      "type": "function"
    },
    {
      "inputs": [],
      "name": "tokenBound",
      "outputs": [
        {
          "internalType": "contract IToken",
          "name": "",
          "type": "address"
        }
      ],
      "stateMutability": "view",
      "type": "function"
    },
    {
      "inputs": [
        {
          "internalType": "address",
          "name": "newOwner",
          "type": "address"
        }
      ],
      "name": "transferOwnership",
      "outputs": [],
      "stateMutability": "nonpayable",
      "type": "function"
    },
    {
      "inputs": [
        {
          "internalType": "address",
          "name": "_from",
          "type": "address"
        },
        {
          "internalType": "address",
          "name": "_to",
          "type": "address"
        },
        {
          "internalType": "uint256",
          "name": "_value",
          "type": "uint256"
        }
      ],
      "name": "transferred",
      "outputs": [],
      "stateMutability": "nonpayable",
      "type": "function"
    },
    {
      "inputs": [
        {
          "internalType": "address",
          "name": "_token",
          "type": "address"
        }
      ],
      "name": "unbindToken",
      "outputs": [],
      "stateMutability": "nonpayable",
      "type": "function"
    }
  ],
  "bytecode": "0x608060405234801561001057600080fd5b5061001a3361001f565b61006f565b600080546001600160a01b038381166001600160a01b0319831681178455604051919092169283917f8be0079c531659141344cd1fd0a4f28419497f9722a3daafe3b4186f6b6457e09190a35050565b61120c8061007e6000396000f3fe608060405234801561001057600080fd5b506004361061014d5760003560e01c80638d2ea772116100c3578063bdf9a07e1161007c578063bdf9a07e146102b4578063c7a4ecf8146102c7578063cdde2932146102da578063e46638e6146102ed578063f2fde38b14610300578063ff3e69541461031357600080fd5b80638d2ea772146101db5780638da5cb5b1461022f57806393e62f071461025457806397a6278e14610267578063993e8b951461027a578063bc4c85521461028d57600080fd5b806340db3b501161011557806340db3b50146101c85780635f8dead3146101db5780636aae7b26146101ee578063715018a61461020157806384e79842146102095780638baf29b41461021c57600080fd5b80630333ce24146101525780631ffbb06414610167578063249c981d1461018f578063346531fa146101a25780633ff5aa02146101b5575b600080fd5b610165610160366004610f3c565b610326565b005b61017a610175366004610f6e565b6103ed565b60405190151581526020015b60405180910390f35b61016561019d366004610fa1565b610400565b61017a6101b0366004610f6e565b610444565b6101656101c3366004610f6e565b6104ed565b6101656101d6366004610f6e565b6105cb565b6101656101e9366004611066565b6106ed565b6101656101fc366004610f3c565b610711565b6101656107c1565b610165610217366004610f6e565b6107d5565b61016561022a366004611092565b610875565b6000546001600160a01b03165b6040516001600160a01b039091168152602001610186565b60035461023c906001600160a01b031681565b610165610275366004610f6e565b61089e565b61017a610288366004610f6e565b61093e565b61017a61029b366004610f3c565b61ffff1660009081526004602052604090205460ff1690565b6101656102c2366004610fa1565b61095e565b61017a6102d5366004611092565b61099e565b6101656102e8366004610f6e565b6109e5565b61017a6102fb366004611092565b610aa6565b61016561030e366004610f6e565b610ac9565b610165610321366004610f6e565b610b42565b61032e610c07565b61ffff811660009081526004602052604090205460ff16156103975760405162461bcd60e51b815260206004820152601a60248201527f636f756e74727920616c7265616479207265737472696374656400000000000060448201526064015b60405180910390fd5b61ffff8116600081815260046020908152604091829020805460ff1916600117905590519182527f686ddf4acaa296f02dade9efd41d8a09a2eba14d730f9117404e6ffe6b96a01891015b60405180910390a150565b60006103fa600183610c61565b92915050565b60005b81518110156104405761042e828281518110610421576104216110d3565b6020026020010151610711565b80610438816110e9565b915050610403565b5050565b6001600160a01b03811660009081526002602052604081205460ff161580156104d857506003546040516307feec1960e21b81526001600160a01b03848116600483015290911690631ffbb06490602401602060405180830381865afa1580156104b2573d6000803e3d6000fd5b505050506040513d601f19601f820116820180604052508101906104d69190611110565b155b156104e557506000919050565b506001919050565b336105006000546001600160a01b031690565b6001600160a01b0316148061053157506003546001600160a01b03161580156105315750336001600160a01b038216145b61057d5760405162461bcd60e51b815260206004820152601c60248201527f6f6e6c79206f776e6572206f7220746f6b656e2063616e2063616c6c00000000604482015260640161038e565b600380546001600160a01b0319166001600160a01b0383169081179091556040519081527f2de35142b19ed5a07796cf30791959c592018f70b1d2d7c460eef8ffe713692b906020016103e2565b336105de6000546001600160a01b031690565b6001600160a01b031614806105fb5750336001600160a01b038216145b6106475760405162461bcd60e51b815260206004820152601c60248201527f6f6e6c79206f776e6572206f7220746f6b656e2063616e2063616c6c00000000604482015260640161038e565b6003546001600160a01b038281169116146106a45760405162461bcd60e51b815260206004820152601760248201527f5468697320746f6b656e206973206e6f7420626f756e64000000000000000000604482015260640161038e565b600380546001600160a01b03191690556040516001600160a01b03821681527f28a4ca7134a3b3f9aff286e79ad3daadb4a06d1b43d037a3a98bdc074edd9b7a906020016103e2565b6106f5610ce4565b6104405760405162461bcd60e51b815260040161038e90611132565b610719610c07565b61ffff811660009081526004602052604090205460ff166107755760405162461bcd60e51b815260206004820152601660248201527518dbdd5b9d1c9e481b9bdd081c995cdd1c9a58dd195960521b604482015260640161038e565b61ffff8116600081815260046020908152604091829020805460ff1916905590519182527f7dad2e3bc77f5830a7421a19a06cee2e76fcd4bdbe0793f240b3cf094cebcceb91016103e2565b6107c9610c07565b6107d36000610cf4565b565b6107dd610c07565b6001600160a01b0381166108335760405162461bcd60e51b815260206004820152601f60248201527f696e76616c696420617267756d656e74202d207a65726f206164647265737300604482015260640161038e565b61083e600182610d44565b6040516001600160a01b038216907ff68e73cec97f2d70aa641fb26e87a4383686e2efacb648f2165aeb02ac562ec590600090a250565b61087d610ce4565b6108995760405162461bcd60e51b815260040161038e90611132565b505050565b6108a6610c07565b6001600160a01b0381166108fc5760405162461bcd60e51b815260206004820152601f60248201527f696e76616c696420617267756d656e74202d207a65726f206164647265737300604482015260640161038e565b610907600182610dc0565b6040516001600160a01b038216907fed9c8ad8d5a0a66898ea49d2956929c93ae2e8bd50281b2ed897c5d1a6737e0b90600090a250565b6003546000906001600160a01b038381169116146104e557506000919050565b60005b81518110156104405761098c82828151811061097f5761097f6110d3565b6020026020010151610326565b80610996816110e9565b915050610961565b6000806109aa84610e42565b90506109c98161ffff1660009081526004602052604090205460ff1690565b156109d85760009150506109de565b60019150505b9392505050565b6109ed610c07565b6001600160a01b03811660009081526002602052604090205460ff16610a555760405162461bcd60e51b815260206004820181905260248201527f54686973204167656e74206973206e6f74207265676973746572656420796574604482015260640161038e565b6001600160a01b038116600081815260026020908152604091829020805460ff1916905590519182527f6a659bb87bb23efbdc295f8eed8ae8c4379bfb77660ced2ef0f3d7d26b05c6a691016103e2565b6000610ab384848461099e565b610abf575060006109de565b5060019392505050565b610ad1610c07565b6001600160a01b038116610b365760405162461bcd60e51b815260206004820152602660248201527f4f776e61626c653a206e6577206f776e657220697320746865207a65726f206160448201526564647265737360d01b606482015260840161038e565b610b3f81610cf4565b50565b610b4a610c07565b6001600160a01b03811660009081526002602052604090205460ff1615610bb35760405162461bcd60e51b815260206004820181905260248201527f54686973204167656e7420697320616c72656164792072656769737465726564604482015260640161038e565b6001600160a01b038116600081815260026020908152604091829020805460ff1916600117905590519182527fd62c45e13ac30396aceb3ad37c89bd1ba9048032fe61679000e92eb93dbfd67d91016103e2565b6000546001600160a01b031633146107d35760405162461bcd60e51b815260206004820181905260248201527f4f776e61626c653a2063616c6c6572206973206e6f7420746865206f776e6572604482015260640161038e565b60006001600160a01b038216610cc45760405162461bcd60e51b815260206004820152602260248201527f526f6c65733a206163636f756e7420697320746865207a65726f206164647265604482015261737360f01b606482015260840161038e565b506001600160a01b03166000908152602091909152604090205460ff1690565b6000610cef3361093e565b905090565b600080546001600160a01b038381166001600160a01b0319831681178455604051919092169283917f8be0079c531659141344cd1fd0a4f28419497f9722a3daafe3b4186f6b6457e09190a35050565b610d4e8282610c61565b15610d9b5760405162461bcd60e51b815260206004820152601f60248201527f526f6c65733a206163636f756e7420616c72656164792068617320726f6c6500604482015260640161038e565b6001600160a01b0316600090815260209190915260409020805460ff19166001179055565b610dca8282610c61565b610e205760405162461bcd60e51b815260206004820152602160248201527f526f6c65733a206163636f756e7420646f6573206e6f74206861766520726f6c6044820152606560f81b606482015260840161038e565b6001600160a01b0316600090815260209190915260409020805460ff19169055565b600354604080516304d3863d60e21b815290516000926001600160a01b03169163134e18f49160048083019260209291908290030181865afa158015610e8c573d6000803e3d6000fd5b505050506040513d601f19601f82011682018060405250810190610eb0919061119c565b604051637e42683b60e01b81526001600160a01b0384811660048301529190911690637e42683b90602401602060405180830381865afa158015610ef8573d6000803e3d6000fd5b505050506040513d601f19601f820116820180604052508101906103fa91906111b9565b61ffff81168114610b3f57600080fd5b8035610f3781610f1c565b919050565b600060208284031215610f4e57600080fd5b81356109de81610f1c565b6001600160a01b0381168114610b3f57600080fd5b600060208284031215610f8057600080fd5b81356109de81610f59565b634e487b7160e01b600052604160045260246000fd5b60006020808385031215610fb457600080fd5b823567ffffffffffffffff80821115610fcc57600080fd5b818501915085601f830112610fe057600080fd5b813581811115610ff257610ff2610f8b565b8060051b604051601f19603f8301168101818110858211171561101757611017610f8b565b60405291825284820192508381018501918883111561103557600080fd5b938501935b8285101561105a5761104b85610f2c565b8452938501939285019261103a565b98975050505050505050565b6000806040838503121561107957600080fd5b823561108481610f59565b946020939093013593505050565b6000806000606084860312156110a757600080fd5b83356110b281610f59565b925060208401356110c281610f59565b929592945050506040919091013590565b634e487b7160e01b600052603260045260246000fd5b60006001820161110957634e487b7160e01b600052601160045260246000fd5b5060010190565b60006020828403121561112257600080fd5b815180151581146109de57600080fd5b60208082526044908201527f6572726f72203a20746869732061646472657373206973206e6f74206120746f60408201527f6b656e20626f756e6420746f2074686520636f6d706c69616e636520636f6e746060820152631c9858dd60e21b608082015260a00190565b6000602082840312156111ae57600080fd5b81516109de81610f59565b6000602082840312156111cb57600080fd5b81516109de81610f1c56fea26469706673582212207cc561063f01c1f7173aa98398cf78756ba2119f80c3e9f07703a07d7853c5b064736f6c63430008130033",
  "linkReferences": {},
  "deployedLinkReferences": {}
}