{
  "_format": "hh-sol-artifact-1",
  "contractName": "KycManagerTpft",
  "sourceName": "contracts/branded-token/KycManagerrTpft.sol",
  "abi": [
    {
      "inputs": [
        {
          "internalType": "address",
          "name": "identityFactory_",
          "type": "address"
        },
        {
          "internalType": "address",
          "name": "identityRegistry_",
          "type": "address"
        }
      ],
      "stateMutability": "nonpayable",
      "type": "constructor"
    },
    {
      "anonymous": false,
      "inputs": [
        {
          "indexed": true,
          "internalType": "address",
          "name": "previousOwner",
          "type": "address"
        },
        {
          "indexed": true,
          "internalType": "address",
          "name": "newOwner",
          "type": "address"
        }
      ],
      "name": "OwnershipTransferred",
      "type": "event"
    },
    {
      "inputs": [
        {
          "internalType": "address",
          "name": "_wallet",
          "type": "address"
        },
        {
          "internalType": "address",
          "name": "_identityAddress",
          "type": "address"
        },
        {
          "internalType": "uint16",
          "name": "country",
          "type": "uint16"
        }
      ],
      "name": "addIdentityToIdentityRegistry",
      "outputs": [],
      "stateMutability": "nonpayable",
      "type": "function"
    },
    {
      "inputs": [
        {
          "internalType": "address",
          "name": "_wallet",
          "type": "address"
        },
        {
          "internalType": "string",
          "name": "_salt",
          "type": "string"
        },
        {
          "internalType": "bytes32[]",
          "name": "_managementKeys",
          "type": "bytes32[]"
        },
        {
          "internalType": "uint16",
          "name": "country",
          "type": "uint16"
        },
        {
          "internalType": "uint256",
          "name": "_topic",
          "type": "uint256"
        },
        {
          "internalType": "uint256",
          "name": "_scheme",
          "type": "uint256"
        },
        {
          "internalType": "address",
          "name": "_issuer",
          "type": "address"
        },
        {
          "internalType": "bytes",
          "name": "_signature",
          "type": "bytes"
        },
        {
          "internalType": "bytes",
          "name": "_data",
          "type": "bytes"
        },
        {
          "internalType": "string",
          "name": "_uri",
          "type": "string"
        }
      ],
      "name": "approveKyc",
      "outputs": [],
      "stateMutability": "nonpayable",
      "type": "function"
    },
    {
      "inputs": [],
      "name": "owner",
      "outputs": [
        {
          "internalType": "address",
          "name": "",
          "type": "address"
        }
      ],
      "stateMutability": "view",
      "type": "function"
    },
    {
      "inputs": [],
      "name": "renounceOwnership",
      "outputs": [],
      "stateMutability": "nonpayable",
      "type": "function"
    },
    {
      "inputs": [
        {
          "internalType": "address",
          "name": "identityFactory_",
          "type": "address"
        }
      ],
      "name": "setIdentityFactory",
      "outputs": [],
      "stateMutability": "nonpayable",
      "type": "function"
    },
    {
      "inputs": [
        {
          "internalType": "address",
          "name": "identityRegistry_",
          "type": "address"
        }
      ],
      "name": "setIdentityRegistry",
      "outputs": [],
      "stateMutability": "nonpayable",
      "type": "function"
    },
    {
      "inputs": [
        {
          "internalType": "address",
          "name": "newOwner",
          "type": "address"
        }
      ],
      "name": "transferIdentityFactoryOwnership",
      "outputs": [],
      "stateMutability": "nonpayable",
      "type": "function"
    },
    {
      "inputs": [
        {
          "internalType": "address",
          "name": "newOwner",
          "type": "address"
        }
      ],
      "name": "transferOwnership",
      "outputs": [],
      "stateMutability": "nonpayable",
      "type": "function"
    }
  ],
  "bytecode": "0x608060405234801561001057600080fd5b50604051610cb1380380610cb183398101604081905261002f91610171565b61003833610051565b610041826100a1565b61004a816100cb565b50506101a4565b600080546001600160a01b038381166001600160a01b0319831681178455604051919092169283917f8be0079c531659141344cd1fd0a4f28419497f9722a3daafe3b4186f6b6457e09190a35050565b6100a96100f5565b600180546001600160a01b0319166001600160a01b0392909216919091179055565b6100d36100f5565b600280546001600160a01b0319166001600160a01b0392909216919091179055565b6000546001600160a01b031633146101535760405162461bcd60e51b815260206004820181905260248201527f4f776e61626c653a2063616c6c6572206973206e6f7420746865206f776e6572604482015260640160405180910390fd5b565b80516001600160a01b038116811461016c57600080fd5b919050565b6000806040838503121561018457600080fd5b61018d83610155565b915061019b60208401610155565b90509250929050565b610afe806101b36000396000f3fe608060405234801561001057600080fd5b50600436106100885760003560e01c8063cbf3f8611161005b578063cbf3f861146100dc578063e7e215a6146100ef578063f2fde38b14610102578063f9534fda1461011557600080fd5b80631bb939fb1461008d578063715018a6146100a25780638da5cb5b146100aa578063bab6ac56146100c9575b600080fd5b6100a061009b36600461070d565b610128565b005b6100a0610240565b600054604080516001600160a01b039092168252519081900360200190f35b6100a06100d7366004610826565b610254565b6100a06100ea36600461086d565b6103b9565b6100a06100fd36600461086d565b6103e3565b6100a061011036600461086d565b61044d565b6100a061012336600461086d565b6104cb565b6101306104f5565b600154604051637f2e6acd60e11b81526000916001600160a01b03169063fe5cd59a90610165908e908e908e906004016108d7565b6020604051808303816000875af1158015610184573d6000803e3d6000fd5b505050506040513d601f19601f820116820180604052508101906101a8919061093d565b60405163b1a34e0d60e01b815290915081906001600160a01b0382169063b1a34e0d906101e3908b908b908b908b908b908b9060040161095a565b6020604051808303816000875af1158015610202573d6000803e3d6000fd5b505050506040513d601f19601f8201168201806040525081019061022691906109ba565b506102328c838b610254565b505050505050505050505050565b6102486104f5565b610252600061054f565b565b61025c6104f5565b604080516001808252818301909252839160009190602080830190803683370190505090508481600081518110610295576102956109d3565b6001600160a01b03929092166020928302919091019091015260408051600180825281830190925260009181602001602082028036833701905050905082816000815181106102e6576102e66109d3565b6001600160a01b0392909216602092830291909101909101526040805160018082528183019092526000918160200160208202803683370190505090508481600081518110610337576103376109d3565b61ffff9092166020928302919091019091015260025460405163653dc9f160e01b81526001600160a01b039091169063653dc9f19061037e90869086908690600401610a28565b600060405180830381600087803b15801561039857600080fd5b505af11580156103ac573d6000803e3d6000fd5b5050505050505050505050565b6103c16104f5565b600280546001600160a01b0319166001600160a01b0392909216919091179055565b6103eb6104f5565b60015460405163f2fde38b60e01b81526001600160a01b0383811660048301529091169063f2fde38b90602401600060405180830381600087803b15801561043257600080fd5b505af1158015610446573d6000803e3d6000fd5b5050505050565b6104556104f5565b6001600160a01b0381166104bf5760405162461bcd60e51b815260206004820152602660248201527f4f776e61626c653a206e6577206f776e657220697320746865207a65726f206160448201526564647265737360d01b60648201526084015b60405180910390fd5b6104c88161054f565b50565b6104d36104f5565b600180546001600160a01b0319166001600160a01b0392909216919091179055565b6000546001600160a01b031633146102525760405162461bcd60e51b815260206004820181905260248201527f4f776e61626c653a2063616c6c6572206973206e6f7420746865206f776e657260448201526064016104b6565b600080546001600160a01b038381166001600160a01b0319831681178455604051919092169283917f8be0079c531659141344cd1fd0a4f28419497f9722a3daafe3b4186f6b6457e09190a35050565b6001600160a01b03811681146104c857600080fd5b80356105bf8161059f565b919050565b634e487b7160e01b600052604160045260246000fd5b604051601f8201601f1916810167ffffffffffffffff81118282101715610603576106036105c4565b604052919050565b600082601f83011261061c57600080fd5b813567ffffffffffffffff811115610636576106366105c4565b610649601f8201601f19166020016105da565b81815284602083860101111561065e57600080fd5b816020850160208301376000918101602001919091529392505050565b600082601f83011261068c57600080fd5b8135602067ffffffffffffffff8211156106a8576106a86105c4565b8160051b6106b78282016105da565b92835284810182019282810190878511156106d157600080fd5b83870192505b848310156106f0578235825291830191908301906106d7565b979650505050505050565b803561ffff811681146105bf57600080fd5b6000806000806000806000806000806101408b8d03121561072d57600080fd5b6107368b6105b4565b995060208b013567ffffffffffffffff8082111561075357600080fd5b61075f8e838f0161060b565b9a5060408d013591508082111561077557600080fd5b6107818e838f0161067b565b995061078f60608e016106fb565b985060808d0135975060a08d013596506107ab60c08e016105b4565b955060e08d01359150808211156107c157600080fd5b6107cd8e838f0161060b565b94506101008d01359150808211156107e457600080fd5b6107f08e838f0161060b565b93506101208d013591508082111561080757600080fd5b506108148d828e0161060b565b9150509295989b9194979a5092959850565b60008060006060848603121561083b57600080fd5b83356108468161059f565b925060208401356108568161059f565b9150610864604085016106fb565b90509250925092565b60006020828403121561087f57600080fd5b813561088a8161059f565b9392505050565b6000815180845260005b818110156108b75760208185018101518683018201520161089b565b506000602082860101526020601f19601f83011685010191505092915050565b6001600160a01b0384168152606060208083018290526000916108fc90840186610891565b838103604085015284518082528286019183019060005b8181101561092f57835183529284019291840191600101610913565b509098975050505050505050565b60006020828403121561094f57600080fd5b815161088a8161059f565b86815285602082015260018060a01b038516604082015260c06060820152600061098760c0830186610891565b82810360808401526109998186610891565b905082810360a08401526109ad8185610891565b9998505050505050505050565b6000602082840312156109cc57600080fd5b5051919050565b634e487b7160e01b600052603260045260246000fd5b600081518084526020808501945080840160005b83811015610a1d57815161ffff16875295820195908201906001016109fd565b509495945050505050565b606080825284519082018190526000906020906080840190828801845b82811015610a6a5781516001600160a01b031684529284019290840190600101610a45565b5050508381038285015285518082528683019183019060005b81811015610aa85783516001600160a01b031683529284019291840191600101610a83565b50508481036040860152610abc81876109e9565b9897505050505050505056fea2646970667358221220ebc1482328cf7b01026329d10f498b4ae6d88cbcc85df47ad2e87150b1c2bf1b64736f6c63430008130033",
  "linkReferences": {},
  "deployedLinkReferences": {}
}